:1000000040C100005BC1000059C1000057C10000A1
:1000100055C1000053C100000C945F1D4FC100008A
:100020004DC100004BC1000049C1000047C10000A4
:100030000C945B1E43C100000C943B1D0C94E51C0A
:100040000C94961C3BC100000C94881E37C1000024
:1000500035C1000033C1000031C100002FC10000D4
:100060002DC100002BC1000000A12283E445C6671A
:1000700048E96ACBAC0D8E2FD071F253349516B788
:100080009839BA1BFF42001400FFFF000000000176
:10009000210500509E4B0002162B1200628080004A
:1000A0000A32C30F13C300FF00003B001747800351
:1000B00001451800010F1234567818273645418241
:1000C00036578413657287641532768413527162D1
:1000D00084357186435206060C181E0401FF0A007F
:1000E0005C76277B6113237A5106060E18230401E0
:1000F000FF08005C80007BF803237A53F84F1CC88C
:100100006E02486A404F1C901C24367A4061315D73
:1001100037FD4F863C4122EEB39AB2C0442AFED747
:100120006E3CCDF52BB4BB09003E45474A949D0B70
:10013000003E43494AD1D000003F42464ACBCD045D
:10014000004143464A833C6000473E5C2B60004AC6
:100150003C57070000414819161A6C1B431C401DF0
:10016000912156221023A9240A2500261129592C51
:10017000882D312E0B030709000200171806070807
:100180003E0B0C0D0E0F10111213141514314049B3
:1001900049494949494906060C18190405FF080050
:1001A0005C7627AA3911237A420000891112239B19
:1001B000322446AD573665BF74488CC19D5AAFD3C3
:1001C000BE6CCAE5DB7EE9F7F80A463A420A3C36DD
:1001D0003F0A43363F3A352E36323E2E3C2F3B33D4
:1001E0003B333B343E342F393E2E382E362E383AB0
:1001F00041323E333F00005F3DF1A6233A16AAAFDD
:100200001CB262EBE0210807BE1A5F15AF0A4F244B
:10021000AD485E34ED8C06C9F2521836DF9D127C73
:10022000B1F5D5D77098B73351DB674ED95B0A4526
:10023000E4A5E6E726ABBD79C3208E00004834A7CD
:100240009BBB8BE1858C3E1E45E618246BABE728F3
:10025000384B8161D494F403251D698BFEA79B174D
:100260008B20295F8BB16191D3017438219F12A03B
:10027000B38829CA23CBC06C0C29B3A1A0160AD01D
:10028000A90011241FBECFEFD8E0DEBFCDBF11E023
:10029000A0E0B1E0E2ECF2E402C005900D92AE37CE
:1002A000B107D9F725E0AEE7B1E001C01D92AA334E
:1002B000B207E1F70E942B1F0C945F21A1CE98E0BA
:1002C00080E0880F4E9981605C9A00005C989150A4
:1002D000C1F708955C985D9898E087FF08C05D9A23
:1002E0005C9A880F5C989150C1F75D9A08955D986B
:1002F000F7CFFF920F931F93CF93DF93F82E192F11
:10030000062F5F988FE7E6DFCF2DD12F0C0F1D2F23
:10031000111DC017D10719F08991DCDFFACF5F9A60
:10032000DF91CF911F910F91FF9008950F931F932D
:10033000CF93DF938C01289880E3CCDFE8010B5F3B
:100340001F4F8991C7DFC017D107D9F7289ADF91CE
:10035000CF911F910F910895289880E5BBDF83E727
:10036000B9DF289A08950F931F93CF93DF93D82F67
:100370005F988FEFAFDF0BEE14E0C0E0DC1731F0D9
:100380009EDFF80181938F01CF5FF8CF5F9ADF91F5
:10039000CF911F910F91089528989CDF289A089576
:1003A000FF920F931F93CF93DF93F82E192F062FF1
:1003B000289880EA8FDFCF2DD12F0C0F1D2F111D14
:1003C000C017D10719F0899185DFFACF289ADF91FC
:1003D000CF911F910F91FF9008958F929F92AF92AE
:1003E000BF92CF92DF92EF92FF920F931F93CF9322
:1003F000DF93CDB7DEB7A0970FB6F894DEBF0FBE80
:10040000CDBF50910F0590E0543018F495E59983D5
:1004100091E070910201E52FF0E09F01265F3A4FD5
:1004200001E211E0492FA42EB12C65E02A303607F5
:10043000B9F0D901FE909D01CC24C394D12CCC0EEF
:10044000DD1EAC0CBD1CD501FC92772329F0D80130
:100450006C916F25D5016C934F5F0F5F1F4FE3CFFA
:10046000950F42E1E42E45E0F42E8F010F5D1E4F03
:10047000D82ED90E692FD7014D917D01A62FB0E05E
:1004800038E020E0B22EBB0C242F2170C22E2B2D81
:100490002C2946953150B1F788248394912C8C0EE9
:1004A0009D1E8A0E9B1ED4012C93772329F0D80120
:1004B0003C912327D4012C936F5F0F5F1F4FD612FF
:1004C000DACF4FEF480F490F90910905992309F4AE
:1004D0003FC091E0543008F090E0A1E0B0E0AC0FF4
:1004E000BD1FA90FB11D22ED35EB961788F45D9164
:1004F000352759E0515051F08901220F331F17FF62
:10050000F9CF11E2212710E13127F4CF9F5FEDCF22
:100510003397E80FF11DEE0FFF1F772379F1E55CAC
:10052000FD4F859194912827392781E090E08C0F29
:100530009D1F860F911DDC013C9363E0640F92E0E8
:10054000940FE1E0F0E0EC0FFD1FE90FF11D2083B7
:10055000CE01019625DFA0960FB6F894DEBF0FBE40
:10056000CDBFDF91CF911F910F91FF90EF90DF9062
:10057000CF90BF90AF909F908F900895EB50FE4F1B
:10058000D0CFCF93C62F28988062A4DE8C2FA2DE16
:10059000289ACF91089560911005677D60931005AA
:1005A000862F90E09595879583708093030186E070
:1005B000E8CF60E787E0E5DF6EE080E0E2DF82E041
:1005C00092E00197F1F70895CF9380916903C3E01A
:1005D00087FFC0E083FDC0E0809103018C1761F0CC
:1005E00080911005897F6C2F660F682B6093100532
:1005F00086E0C7DFC0930301CF910895E82FF0E0B4
:10060000EE0FFF1FE35DFD4F208131812115310584
:1006100091F02F3F97E0390771F09FE0929FA00182
:10062000939F500D11249A0194E0369527959A9541
:10063000E1F7205C3F4F883008F03860C901089529
:10064000CF93DF93382FDC0190E080E041E850E168
:100650002A2F231B2617C8F42D912927E22FEF708C
:10066000F0E0EE0FFF1FE755FE4FC591D4912295A4
:100670002F70249FF001259FF00D1124982F8827BB
:100680008E279F278C279D27E3CFDF91CF91089559
:100690000F931F93CF93DF932091EC049091B803B5
:1006A00029138BC02091ED049091B703291385C0C5
:1006B0006091EB0403E0060F08137FC08091B40340
:1006C00081608093B40310E0F801E751FB4F808113
:1006D00080588093B303F801E651FB4F80818F77F8
:1006E0008093B20323E0A80142505109822F90E089
:1006F0008417950754F4FC01EC56FC4F85519B4F31
:10070000DC018C9180832F5FF1CF309111058091B6
:100710009A0381508A3008F05DC03330D1F4909153
:100720009B0380919303292F28272F7109F04CC038
:1007300087FF48C020919203982F9F71921709F468
:1007400041C020E890E001968F719927822B809319
:100750009303109291033F3081F564508EEE94E044
:100760006FDFC92FB0E0DB2FF801E951FB4F90811B
:100770009C171D0611F5F801E851FB4F208130E070
:1007800082171306D1F49091F004892F8F7088306E
:1007900021F58093900310928F0310926F031092B3
:1007A000770310927F0310928703809199038295BB
:1007B0008F70883011F410926D03DF91CF911F91EB
:1007C0000F91089520E0BECF9F71909392038068AF
:1007D0008093930310929A03BCCF80919003292FAA
:1007E00028272370B1F59091F104282F2370E8E0B9
:1007F0002E9F90011124F901E159FC4F973098F494
:100800009183A2EFB4E041E050E04F5F5F4F6EEFA5
:10081000640F691748F46D91F901E40FF51FE15970
:10082000FC4F6083F2CF118221593C4F91E0D901F6
:100830009C938F5F83708093900380916E0387FFFA
:10084000B4CF980F9370909390038F7780936E033B
:10085000ACCF10929A03282F30E02F5F3F4F29270B
:1008600023703327232B41F593706091F104B8E096
:100870009B9F90011124F901E159FC4F673098F4D6
:100880006183A2EFB4E041E050E04F5F5F4F7EEF45
:10089000740F761748F47D91FA01E20FF31FE159C6
:1008A000FC4F7083F2CF118221593C4F41E0F90196
:1008B0004083906890936E0383708460809390036C
:1008C00074CFCF93DF9381114FC085E580931205DC
:1008D0008091B803809313058091B703809314052A
:1008E0008091B603809315058091B503809316051A
:1008F00020915F02C1E1D1E0A2E1B5E049E151E020
:1009000068EB7BE03991E32FF0E0EE0FFF1FE35C33
:10091000FC4F0190F081E02DCF01880F991F880FC7
:10092000991F8E0F9F1FE3E096958795EA95E1F753
:10093000845A9C4F243031F4313021F4FB01E81B00
:10094000F90BCF0115968C93159716969C931697D5
:1009500012964C175D07B1F62230B1F138F4213010
:10096000A1F0DF91CF9108958AEAB0CF233009F446
:100970007CC02430B1F71092250580915D02F0E132
:100980008F9FC00111248A606DC080915E0280FF3C
:1009900005C090911E05906190931E0581FF05C0D2
:1009A00090911E05906290931E0582FF05C0909164
:1009B0001C05906890931C0583FFD3CF80911C0584
:1009C000806480931C05CDCF83E080931F05109237
:1009D000200580915E0280FF03C090E8909320057F
:1009E00081FF05C09091200590649093200582FFBF
:1009F00005C09091200590619093200583FF05C06C
:100A00009091200591609093200584FF08C093E8A1
:100A100090931F059091200590629093200585FF8B
:100A200005C09091200598609093200586FF05C031
:100A30009091200594609093200587FF05C08091D8
:100A4000200582608093200580E1809321058093BA
:100A500022058AEA809323058093240580E680930B
:100A6000250582E0809326057CCF80915A028F5F16
:100A70008A3090F580935A0280911E05806280939F
:100A80001E0510921F051092200580915E0280FFC6
:100A900003C090E89093200581FF05C08091200558
:100AA00080648093200587E28093210583E0809312
:100AB000220580915A02E82FF0E0E457FE4FE491BE
:100AC000E093230581110BC082E0809324051092EE
:100AD00025051092260545CF10925A02CDCF1092CF
:100AE0002405F5CF0F931F93CF93DF934091B50368
:100AF00047702091B603223050F52E5F822F6FE2AF
:100B00000E942521911101C02F5F4093B904CAEBC7
:100B1000D4E0E1E030E00BEE10E0C901840F911D5C
:100B2000B8010E944521482F882321F08A3511F011
:100B30008C3D09F48F5FEF3208F080E08993EF5F1E
:100B4000E23359F7DF91CF911F910F9108952A3E1B
:100B5000A8F2275ED3CFCF93DF93EB01DA01E82F22
:100B6000F0E0EE0FFF1FE35CFC4F208131812C3C55
:100B7000310510F42CEC30E0253387E0380710F015
:100B800024E337E050E040E02C5C31094109510991
:100B9000AC1BBD0B0E94EE2028E636E040E050E0A2
:100BA0000E94C820CE01DD0FAA0BBB0B820F931F42
:100BB000A41FB51FDF91CF910895E82FF0E0EE0F4D
:100BC000FF1FE35CFC4F20813181C901880F991F11
:100BD000880F991F820F931F55E0969587955A9518
:100BE000E1F78132910530F0803221E0920720F464
:100BF0008052089580E008958FEF0895CF93C62F17
:100C00002998806867DB8C2F65DB299ACF9108953E
:100C10005F9860DB5F9A0895CF93C82F8BE3F8DF6E
:100C20006C2F82E195E065DB85E3CF91F1CF5F9892
:100C3000806850DB44DB5F9A0895CF93C62F5F989E
:100C400049DB00008C2F46DB5F9ACF910895EF922D
:100C5000FF920F931F93CF93DF93C9EBD4E00AEB7E
:100C600013E08AE0E82E8EE0F82E86E3D1DF89914A
:100C7000682F660F680F8AE0E0DF83E3C9DFC701F2
:100C80000197F1F785E2D3DFF80181938F01F4E05A
:100C9000CD3BDF0751F7DF91CF911F910F91FF906F
:100CA000EF9008956FE280E0C8DF6FE682E0C5CF85
:100CB000CF9380916602882331F08130B1F184E1D5
:100CC00090E0CF9108958091B403811128C01092D3
:100CD000630210926502809162028F5F8A3F10F575
:100CE000809362028091640291E0980F9093640275
:100CF000C0916202811102C0C093EB046C2F8AE0A4
:100D00009CDFEC2FF0E0E654FC4F608185E295DF3C
:100D10008AE37EDF84E37CDF81E08093660282EDFC
:100D200090E0CFCF10926202DDCF84E780DF805861
:100D300090916502891740F080936502E09164020A
:100D4000F0E0E551FB4F8083809163028F5F8093D9
:100D50006302863008F4B3CF109266028091640279
:100D6000853009F0ACCF81E08093B4031092640227
:100D7000A6CFCF93C82F60915B028CE05EDF68E066
:100D800088E15BDF6091B803C11163E089E055DF62
:100D900065E087E0CF9151CFCF93DF93C82F86E3F3
:100DA00037DFD0E0FE01E654FC4F608185E245DF8D
:100DB000C754DB4F68818AE0DF91CF913ECFCF935C
:100DC00080916903CFEF87FFC0E583FDC0E5809187
:100DD00003018C1729F06C2F8EE32FDFC0930301E2
:100DE000CF9108958F929F92AF92BF92CF92DF9250
:100DF000EF92FF920F931F93CF93DF93CDB7DEB7A0
:100E0000A0970FB6F894DEBF0FBECDBFC82E82E00C
:100E1000D4DEE82E8093120583E0CFDE87FD03C089
:100E20009FE7981B892F8093130580E48093160514
:100E300081E0C3DE87FD03C09FE7981B892F8058A0
:100E400080931405D0905E020D2D10E02D2D2071A1
:100E5000F22ED4FC70C020915703309158032135F5
:100E6000344008F068C0282F30E087FF5FC0C90118
:100E7000959587958093170580E09FDE87FD03C0D9
:100E80009FE7981B892F80931505F1105BC0209177
:100E90005703309158032135344008F053C0282FB0
:100EA00030E087FF4AC0C901959587958093180562
:100EB0008091B503809319058091B60380931A053C
:100EC0008091B70380931B0510921C0510921D059D
:100ED00010921E0510921F0580EC80932005F09063
:100EE0005F02E3E0FE1609F4C5C0EF1568F1FF20CC
:100EF000A1F1F1E0FF1609F4EBC092E1D1FC90E121
:100F000006FB882780F9892B80931C05C11056C0E9
:100F1000C801880F991F000F111F000F111F0470C7
:100F2000982F9870092B02608071EFC08FE790E0D6
:100F3000821B930B9DCF80E49DCF8FE790E0821BB7
:100F4000930BB2CF80E4B2CF25E0F21609F492C041
:100F5000F21618F056E0F512D0CFC80154E095957E
:100F600087955A95E1F7837090911C05980F90939F
:100F70001C05C11023C08D2D817084609801220F43
:100F8000331F322F3870832B2071822B3D2D32700E
:100F900020E2D1FC20E0822B8093200526E0F21293
:100FA0008EC026E0000F111F2A95E1F7007800623D
:100FB000902B90931C058B7D80932005E3E1F5E059
:100FC00062E1C62E65E0D62E81E295E02191E20E27
:100FD0008E179F07D9F7E092210500915D020F5F00
:100FE00000935D02069510E0F801E754FB4F608125
:100FF0008F2D8D7F843009F00CC1862F880F680FEC
:101000008AE01BDEF801E654FC4F608185E215DEC4
:1010100060915B0280915C02861721F060935C0214
:101020008CE00BDECCDEF0900F058F2C912C4091E4
:101030000201C401865F9A4F8E010F5F1F4FA1E22C
:10104000B1E06AE075E098016817790709F461C0BA
:10105000FC01E290CF01F901E1929F01442341F0AC
:101060005F01F1E0AF1AB1085C915E25F501508394
:101070001196EACF80915A028F5F80935A0284FFC3
:101080001CC080E0D7FC84E02091530330915403CE
:101090002031334008F488E0209155033091560305
:1010A0002135E4E03E0720F0805F80931C0555CF9A
:1010B00020313340D0F7805EF8CF80E0F6CF55E0A6
:1010C000F5127CCF906490931C058B7D832B74CF9D
:1010D00082E0D1FC80E080931C0505FB882780F925
:1010E00080931D05C1106ACFC801880F991F880F12
:1010F000991F84709801359527953595279520710E
:10110000822B8260000F111F0072082B00932005B4
:1011100055CF30E020E0F60151916F01AF2DA20FC5
:10112000B0E098E080E0880F652F6170862B5695BF
:101130009150C9F7A00FB11F8C93442349F0B4011B
:10114000620F731F6F5D7E4FFB01908189278C9327
:101150002F5F3F4F20313105F1F620E12F0DD801EF
:1011600082ED95EB3A2F301B321778F43D9193279F
:1011700039E03150B9F3BC01880F991F77FFF9CFDF
:10118000F1E28F27F0E19F27F4CFF4013D96EE0FB7
:10119000FF1F442309F43AC0E55CFD4F459154918B
:1011A00084279527F801E20FF11D9083E1E1EF0D0F
:1011B000E00FF12FF11D808386E32ADD8BE328DD2C
:1011C00065E16F0D8FE339DD63E088E491E091D84C
:1011D00062E16F0DC8018DD885E31ADD80915D0253
:1011E000877080935D02A0960FB6F894DEBF0FBEA5
:1011F000CDBFDF91CF911F910F91FF90EF90DF90C6
:10120000CF90BF90AF909F908F900895EB50FE4F7E
:10121000C5CF85E0B6D960E787E0B3D981EEBCD809
:1012200023E0F21619F055E0F51207C0C2D960E1CB
:1012300082E195E0B5D8C8D9D1CF81E08093090586
:1012400062E080E09ED980E1C8D8F5CFEF92FF92AE
:101250000F931F93CF93DF937C01D0E0C0E0FE019A
:10126000E758FE4F8491F701EC0FFD1F6491109138
:101270005B028C3009F4612FE0DC2196C331D1058B
:1012800071F710935C02C7E5D1E009E711E0FE01B8
:10129000849131966491D1DC22960C171D07B9F721
:1012A00001DD8DDD86E3DF91CF911F910F91FF90DE
:1012B000EF90AECCCF93C82F86E991E0C7DF609165
:1012C000B803C11163E089E0B8DC65E087E0B5DC14
:1012D00086E39EDC60E08AE0B0DC69E883E2ADDCB6
:1012E0008AE3CF9195CCEFB7F894209184003091A8
:1012F0008500EFBF8091280290E040912902509133
:101300002A02841B950B820F931F482F4170409334
:10131000280296958795409124025091250260916C
:10132000260270912702F894480F591F611D711D04
:101330004093240250932502609326027093270263
:1013400030932A0220932902EFBF2091220230918C
:101350002302820F931F80382EE3920708F440C0C7
:1013600080589E4320E180343FE1930718F0285FC6
:1013700080549F41803A3FE0930718F02C5F805AD9
:101380009F40803D37E0930718F02E5F805D9740C7
:10139000883E33E0930718F02F5F885E93404091BA
:1013A0001E0250911F026091200270912102420F93
:1013B000511D611D711D40931E0250931F026093C9
:1013C0002002709321029093230280932202609165
:1013D000240270912502809126029091270208959F
:1013E00020E0C1CFCF92DF92EF92FF92CF93DF93B5
:1013F0006B0179DFEB0177DF6C1B7D0B683E73407F
:10140000D0F381E0C81AD108C851DC4FC114D1040F
:1014100091F7DF91CF91FF90EF90DF90CF900895FB
:101420005A980E946A015A9A08955A9880640E94B4
:101430006A01559898E080E0880F4D9981605C9A28
:1014400000005C989150C1F7559A5A9A0895CF932D
:10145000C62F5A980E946A0100008C2F0E946A01D0
:101460005A9ACF91089563E38BE0F1DF61E38CE05A
:10147000EECF1F93CF93DF93182F5A9880EE0E94E0
:101480006A0185E00E946A01C2E1D5E089910E946B
:101490006A0185E0C732D807C9F75A9A80911105C9
:1014A000813019F080EABCDFDEDF612F8FE0CFDF13
:1014B00080EDDF91CF911F91B3CFCF9380916903DE
:1014C000CFE187FFC0E083FDC0E0809103018C176E
:1014D00029F06C2F88E2BBDFC0930301CF91089500
:1014E000CF93DF93D0916903C0915D02D7FD1EC0F9
:1014F00081E0E7D981E0BDDF8091600290916102D7
:1015000001979093610280936002892B19F4D0684F
:10151000D0936903CF5FC0935D0280915F028430F6
:1015200081F480E99FE0DF91CF91089580E0C9D9EF
:10153000EC2FEF70F0E0E754FB4F80819ADFBDDFC6
:10154000E9CF86EE95E0EFCF0F931F93E5EBF3E045
:1015500090838183072F182F292F332702836383DA
:10156000007F6F70602B64831F910F9108958091AD
:101570006A03887149F5F89480913B03811123C077
:1015800078941BBC80913C03811112C091E09ABDFC
:1015900086B5885D88BD88B58E5287BD86E085BBDF
:1015A00080916E00846080936E0090933B03089559
:1015B00081E08ABD85BB90916E00916090936E0032
:1015C00080933B030895789408958095482F50E0C8
:1015D0009A01220F232F221F330B90913C0391116C
:1015E0002FC0226094E0559547959A95E1F74827DA
:1015F000942F969596959427392F330F93279270B1
:101600009227209179022E5F203C08F020E0309153
:101610007A02321781F0E0917902F0E0880F816060
:10162000E758FD4F8283E0917902F0E0E658FD4FE4
:1016300092832093790280916A03887121F497CF75
:10164000922F9E6FDECF0895CF93DF93D82FC62FB2
:101650008DE4BBDF80E5B9DF8D2FB7DF8C2FDF9105
:10166000CF91B3CFCF93DF9369E083E0EDDFC7E69F
:10167000D2E08991AADF82E0C037D807D1F7DF91A5
:10168000CF9108950F931F93CF93DF9300D000D095
:101690001F92CDB7DEB78C0185E0E8E0F1E0DE0116
:1016A000119601900D928A95E1F785E080930F05E0
:1016B00063E083E00E94C102CE0101960E94960180
:1016C00085E0F801AAE0B5E001900D928A95E1F776
:1016D0000F900F900F900F900F90DF91CF911F916F
:1016E0000F910895CF93C091690380E0C7FD64C056
:1016F0008091600290916102009709F057C080913B
:101700005F02843029F100F5882309F43AC0833060
:1017100009F43EC08091B80363E00E94252124E0D3
:10172000929FC0011124A9EBB4E030E020E0875380
:101730009E4FFC01E20FF31FE491ED932F5F3F4FAB
:1017400024303105B1F71DC0853061F1863011F7C5
:101750008091B8038F7090E0880F991FFC01EB52C5
:10176000FE4FE491E093B904E05FE093BB04FC0119
:10177000EA52FE4FE491E093BA04E05FE093BC04C8
:1017800066DAC068C093690380EA9FE0CF9108954C
:1017900084E0ECE4F1E0A9EBB4E001900D928A95CD
:1017A000E1F7EFCF84E0E1E5F1E0F5CF0197909329
:1017B00061028093600281E015DBE6CF0F931F93F7
:1017C000CF93DF93C82F00915F0284E1013009F0CD
:1017D00083E1809312058091B503809313053091C6
:1017E000B603309314052091B7032093150590910B
:1017F000B80390931605830F820F890F80931A0503
:10180000EBE1F5E08AE0DF011D928A95E9F7CC2350
:10181000B9F1109217051092180581E0809319050F
:1018200080911B05ECE1F5E025E235E09191890F0F
:101830002E173F07D9F78093250581E0809309058E
:1018400062E080E00E94C10280915F02813009F471
:10185000B0C06091B904C1110AC0E0915D0281E09D
:101860008E0F80935D02F0E0E754FB4F608185E0CE
:101870000E94C10280915D02837080935D02B7C0B7
:1018800010915D021093170583E0809319054CEBCE
:1018900050E064E470E05FD9D82F809357020130A4
:1018A00009F460C088E08093180582E086D98093AF
:1018B0001B0580E28093210580932205D13820F416
:1018C00080E88D1B80935702809157028F7781307B
:1018D00011F4109257028091570280931C054BEB34
:1018E00050E063E470E081E036D980931D054BEB56
:1018F00050E063E470E080E02ED980931E0580E222
:1019000080931F058093200520915E02422F50E0B6
:10191000CA01880F991F880F991F8870922F9173A1
:101920009460892B80932305CA0164E0880F991F76
:101930006A95E1F7807C559547954072842B2595F3
:10194000259525952071822B8093240520915503A0
:10195000309156032031B3E03B0728F5886080932F
:1019600024055ECF90915A0288E0111180E1891B15
:10197000809318054BEB50E063E470E082E0EBD815
:1019800080931B0580E4809321058093220581E8E4
:101990008D0F833020F0D150D09357029CCF8FE72A
:1019A0008093570298CF2135344008F439CF8460B2
:1019B000D6CF69E4C1110BC0E0915A02F0E083E098
:1019C000F595E7958A95E1F7E754FB4F608185E04F
:1019D0000E94C102C1110BC080915A028F5F809397
:1019E0005A028031A0F010925A0210925D0260E714
:1019F00087E00E94C10281EE0E94CC0184E10E9436
:101A0000ED01DF91CF911F910F910C94E40288308A
:101A100070F381E032CFCF93DF938091690387FF2A
:101A200009C080E0CBDE8091580290915902DF918D
:101A3000CF910895C0916002D0916102209731F456
:101A400080688093690310925A02EDCF81E0B6DE80
:101A50002197D0936102C0936002E5CFEF92FF928D
:101A60000F931F93CF93DF9300915502109156026D
:101A7000083E23E0120708F05FC081E18093120561
:101A800083E08093130521E0209314058091B8032F
:101A9000809315058091B70380931605C8016AE00D
:101AA00070E00E94312135E0389FF001399FF00D40
:101AB0001124E0931705E754FB4F808180931805AC
:101AC000818180931905828180931A058381809397
:101AD0001B05848180931C0510921D0510921E0524
:101AE00010921F05109220051092210510922205D8
:101AF0002093230586E38CD860E08AE09ED869E8CD
:101B000083E29BD88AE384D8809112058F5F84D8C2
:101B10008091690387FF09C088EE93E09093560295
:101B20008093550288E293E260C00F5F1F4F1093CD
:101B3000560200935502F6CF083E43E0140709F021
:101B400047C08AEE93E0909356028093550280E05E
:101B5000B1DB10922C0210922B02809169038068F5
:101B60008093690380912B0290912C0201966CEB7B
:101B700070E00E943121082F80932B0290932C0259
:101B800020915502309156026FE270E00E9431219F
:101B9000FC01E754FB4F7F012C3EF3E03F0761F56A
:101BA0006FE282E04AD86FE680E047D886E330D81B
:101BB000F70160818AE041D869E883E23ED88DEE82
:101BC00093E0909356028093550284E195E00DC016
:101BD0000D3E134039F684E31BD889EE93E09093D1
:101BE00056028093550280EF93E2DF91CF911F91CF
:101BF0000F91FF90EF900895293E3340E1F48BEF71
:101C000016D8182F1F77109353028FEF810F84314E
:101C100008F098C0812F0E94B301E12FF0E0E65157
:101C2000FB4F808187FF05C010925A02812F0E94CE
:101C3000480338D8C4D886E30E940806F7016081BB
:101C40008AE00E941D0610915B0280915C02811760
:101C500031F0612F8CE00E941D0610935C0269E850
:101C600083E20E941D068AE30E94080681E18093B8
:101C700012058091B803809313058091B703809378
:101C8000140500931505809193038093160581E058
:101C90008093170510921C0510921D0510922205C5
:101CA000109223054DE353E0A2E1B5E090E080E01F
:101CB0001FE0FA0161917191AF01169F9001179F8A
:101CC000300D112464E0369527956A95E1F7265F7B
:101CD0003A4F632F77276F707727F82FF170CF2F48
:101CE000E0E0DE2FFE01EE0FFF1FEE0FFF1F01C031
:101CF000660FEA95EAF78430A0F516962C931697AE
:101D0000FC01F595E795E45EFA4F2081622B608334
:101D1000019611968830910561F6809112058F5FCA
:101D20000E940C0680915502909156020196909364
:101D30005602809355028C3E934009F0F3CE8CE41A
:101D40009DE153CF80915A028F5F853618F48093BE
:101D50005A026FCF10925A021092B4031092F104FB
:101D600068CF18962C931897FC013497F595E79552
:101D7000EE5DFA4FCACF8F929F92AF92BF92CF92F1
:101D8000DF92EF92FF920F931F93CF93DF93C09157
:101D90005502D0915602CA3E23E0D20709F4C9C1C8
:101DA00008F08EC0C83E93E0D90709F47BC1C93E54
:101DB000E3E0DE0709F489C18FE20E94CC060E94AD
:101DC000DF068AE30E94080680915F02282F2270B6
:101DD00081FF60C180E28093120583E08093130548
:101DE00081E0809314058091B8038093150580915C
:101DF000B70380931605CE016AE070E00E9431219E
:101E000035E0389FF001399FF00D1124E09317055C
:101E1000E754FB4F808180931805818180931905D9
:101E2000828180931A05838180931B05848180932E
:101E30001C0582E080931D0580914D0280931E0554
:101E40001FE1211101C01CE1E12EF12CA7014D5031
:101E5000510970E060E08FE195E00E9458216DEF3C
:101E6000610F85E195E00E942003F701EE5EFA4FD5
:101E700090831F5FE12FF0E0EE5EFA4F808386E3F0
:101E80000E940806809112058F5F0E940C068091C7
:101E9000690387FF01C188EE93E090935602809317
:101EA000550288E293E2DF91CF911F910F91FF904D
:101EB000EF90DF90CF90BF90AF909F908F9008955C
:101EC000CB3EF3E0DF0709F448C1CC3E23E0D20764
:101ED00009F072CF8BEF0E941706C82FCF77C093FF
:101EE00053028FEF8C0F813108F043C110925A02D8
:101EF0008C2F0E94B3018C2F0E94480380915202C4
:101F000000914F02C0905F02811146C120915002A2
:101F1000309151022930344008F43EC101113CC1D6
:101F200090916A0390FF38C180E180935202109231
:101F30004E0280915002909151020196909351026D
:101F400080935002EC2DE2709E2E80E2C1FE8DE166
:101F5000809312058091B803809313058091B70395
:101F60008093140582E0809315058091540290E0DF
:101F7000AC0176E0440F551F7A95E1F720915D02A0
:101F8000242B209316059595879595958795809395
:101F9000170580914D02809318058091520280931D
:101FA000190510921A05B0904E02F2E1EF2EF5E0FD
:101FB000FF2EA8E08A2E800E102F8071D82EBFE051
:101FC000AB2EDD2009F407C18B2D8127877009F026
:101FD00002C18B2D0E94FE02EC0121E0210FDD20C9
:101FE00009F412C18B2D8227877009F00DC18B2D4A
:101FF0000E94FE021E5FF701C1872D2F2F70382F20
:102000003295307F232B228724E0969587952A9559
:10201000E1F7838783E0E80EF11C1811D2CFD0914D
:102020006D0380919003E0E18E9FC00111248D2B00
:1020300080932705C0FE01C110924F021FE191104D
:1020400001C01CE1E8E2F5E0C6E1119281E08C0FED
:102050001813F8C06EEF6C0F85E195E00E94200325
:10206000E12FF0E0EE5EFA4F9083CE5FEC2FF0E0D0
:10207000EE5EFA4F8083D83021F0DF5FD370D093CB
:102080006D0389EE93E0909356028093550284EF9E
:1020900091E009CF8DE19FCE2196D0935602C09357
:1020A0005502FFCE80E00E94B90610925D02809139
:1020B000690380688093690389EE93E090935602E8
:1020C0008093550281E090E0EECEC0915B0280915A
:1020D0005C028C1731F06C2F8CE00E941D06C093BF
:1020E0005C020E945206C0915D028C2F0E94CC06B9
:1020F0000E94DF068AE30E940806809154028C0F3A
:102100009927991F6FE270E00E94452180935D023C
:1021100086E30E940806809112058F5F0E940C06DC
:102120008AEE93E0909356028093550280E594E105
:10213000BACE6FE282E00E941D066FE680E00E9448
:102140001D0686E30E9408068BEE93E090935602EC
:102150008093550288EC90E0A6CE84E30E940806A6
:102160008CEE93E090935602809355028CE19CE0B4
:102170009ACE80915A028F5F80935A02853640F042
:1021800088E080936D0310925A0281E0809391035E
:102190008AE30E940806B2CE84FFCBCE90914E0215
:1021A000492F50E027E030E0C0FC02C02FE030E0D3
:1021B000421753074CF48E5F8F70806180935202F8
:1021C0009F5F90934E02B5CE109252021092510230
:1021D00010925002AECEE12FF0E0EE0FFF1FE35C55
:1021E000FC4F80819181A89EE001A99ED00D112411
:1021F00064E0D695C7956A95E1F7C05CDF4F18306B
:1022000008F4EBCED860E9CEE22FF0E0EE0FFF1F2E
:10221000E35CFC4F40815181A49EC001A59E900DBE
:10222000112444E0969587954A95E1F7805C9F4F8D
:10223000283008F4DFCE9860DDCE88E008270093D0
:102240004F02FCCEC82F01CF80E30E94080661E058
:1022500070E080E090E0C6D86FE282E00E941D0648
:102260006FE280E00E941D068EE00E94170691E05A
:10227000843C09F090E0892F08951092C50099E000
:102280009093C4001092C0009EE29093C20090917F
:10229000C00097FF03C09091C600F9CF90E99093DA
:1022A000C10010926E0059989091C100977F909351
:1022B000C10010923C0314BC92E095BD8823A1F0AC
:1022C0001092C50081E28093C4008091C2008F7D8E
:1022D0008093C2008091C1008F778093C10080916C
:1022E000C00082608093C0000895AEDF60E080E0AF
:1022F000AED861E070E080E090E074D863E38BE0FA
:10230000A6D863E38CE0A3D880E18FD880EA88D890
:10231000459A8AE891E0FC013197F1F745980197D9
:10232000F1F761E08DE10E94FE058AE193E00197FB
:10233000F1F760EC8CE00E94FE0564E08DE00E9405
:10234000FE0580911105883221F064E28FE00E9441
:10235000FE0560E08EE00E94FE05299880E10E9463
:102360006A010E945F01299A0E94AC0160E08CE141
:102370000E94C10260E08DE10E94C1020E94AC0196
:1023800081EE0E94CC0182EE0E94CC018FEF0E9470
:10239000CC01289887E00E946A010E945F01289A78
:1023A00068E080E00E94C1028AE891E00197F1F7BD
:1023B00064E670E080E090E015D88DEF8093030133
:1023C00008958F929F92AF92BF92CF92DF92EF9239
:1023D000FF920F931F93CF93DF9300D000D01F92F3
:1023E000CDB7DEB720916803211122C08091C601CC
:1023F0008111E7C0109180010E94730980911E0233
:102400009091C00097FFBFC02091C60090917F01BE
:102410009F5F90937F01123008F0ADC0111102C090
:1024200080937E0111E0203309F412E010938001C3
:1024300010916A0315FF1EC00E94730980911E024D
:1024400090911F02A0912002B09121024091C201FF
:102450005091C3016091C4017091C501841B950B1B
:10246000A60BB70B87349105A105B10518F01F7DA8
:1024700010936A030E9473098091BB019091BC0183
:10248000A091BD01B091BE0140911E0250911F026A
:10249000609120027091210284179507A607B70763
:1024A000C0F420916A0325FDDCC12091680321114D
:1024B000E0C18C509E4FAF4FBF4F8093BB019093B4
:1024C000BC01A093BD01B093BE0185B190E2892704
:1024D00085B99091790280917A02981708F080541A
:1024E000891B803408F409C20E947309C0901E023F
:1024F000D0901F02E0902002F09021028091B30161
:102500009091B401A091B501B091B601A7019601D7
:10251000281B390B4A0B5B0BDA01C901853F91403F
:10252000A105B10508F4BCC265E081E08DD89091A9
:102530006A0395FB882780F920916803211101C067
:10254000826020916B0330916C03232B09F4BFC18F
:102550002091690397FFACC18461909111059F3070
:1025600041F008F0ABC1943009F494C2973009F0FF
:10257000AEC18062ACC1123009F058CF203209F0F0
:1025800054CF13E053CF112309F450CF90917E0123
:10259000891B863008F44ACF80917F01833030F068
:1025A0008FEF8093C60180E068DE40CF133029F4BE
:1025B000F894E0E0FFE3099539CF10927F0110E035
:1025C00035CF8091690380FF33CF90916A03392F13
:1025D000326030936A03382F3E7F30936903409115
:1025E000C80145FF58C03860309369033091C80175
:1025F0008091690336FF53C08061809369033091F5
:10260000C9018091690337FF4CC08B7F80936903B8
:1026100080911105833009F046C03DEC30935B0298
:102620003091C701E0E031FF09C03091C7013D7F23
:102630003093C701936090936A03E1E03091C70142
:1026400090916103391335C09091C80130916203B4
:1026500093279F7571F59091C90140916303942769
:102660009F7739F59091C80197FF02C037FFE1C00D
:102670009091C80197FD4DC037FF4BC0833039F0B2
:102680008F3029F0893119F08C3109F0D9C080914F
:1026900069038068D2C0867F80936903A7CF8F7E4D
:1026A000ACCF8460B3CF8F3009F4B7CF3091CA017B
:1026B000B5CF80916903982F9260909369039091B0
:1026C0006A039F7790936A039091C80197FDAEC00B
:1026D00084FDACC08268809369038091C70190E05B
:1026E000853509F090E28091C8018F71890F809340
:1026F00011058091C90190E0A4E095958795AA9570
:10270000E1F7877080935F028091C9018F70809399
:102710004D028091C701809361038091C80180932D
:1027200062038091C9018093630350E040E06AEC4A
:1027300071E03DEF83E0830FDB0111963550883067
:1027400010F4382FDB01BD016F5F7F4F11968D9123
:102750009D910D90BC91A02D032E04C0B695A79518
:10276000979587950A94D2F79770DA01EE2309F4CA
:1027700075C0A35DBD4F8D939C934E5F5F4F4032FC
:102780005105C1F680916A038D7F80936A03809121
:10279000C1008F778093C10080916A0382FF11C0CE
:1027A0009AE1E1EEF1E0A7ECB1E001900D929A958B
:1027B000E1F7909169039160909369038B7F809317
:1027C0006A038091C10080688093C100E5E4F3E072
:1027D00090E080E041E050E061917191613574409A
:1027E00038F0BA01082E01C0660F0A94EAF7262BCA
:1027F00001968830910581F720935E0280916A03EB
:10280000806280936A030E94730980911E029091F6
:102810001F02A0912002B09121028093C2019093E7
:10282000C301A093C401B093C50102CE8F7782602B
:1028300052CF809169038F7782608093690369CF5B
:102840008091600290916102039708F462CF82E068
:1028500090E090936102809360025BCFA35CBC4FD9
:102860008ACF40916B0350916C03452B59F42D9BFB
:1028700005C088519C4FAF4FBF4F1FCEC296A11DC0
:10288000B11D1BCE27FF07C02D9BF3CF8C599F4F47
:10289000AF4FBF4F12CE8091690387FD2D98809175
:1028A000BB019091BC01A091BD01B091BE01EECFE2
:1028B00027FF02C0846051CE8C604FCE9C3109F45A
:1028C00058CE9E3109F455CE953109F452CE0E946E
:1028D000E50A81E00E94E50A82E00E94E50A81E0C3
:1028E0000E94E50A8DE40E94E50AC092B301D092ED
:1028F000B401E092B501F092B6018091690384FFC2
:1029000019C090916A0396FD15C020915B03309128
:102910005C032139354070F020914103309142032E
:102920002E3F310538F48F7782608093690390647D
:1029300090936A038091690384FF1CC090916A039D
:1029400096FF18C020915B0330915C032031334027
:1029500088F49F7B90936A0390911105933039F02E
:102960009F3029F0993119F09C3109F0AEC280688E
:10297000809369038091690381FD01C0D5C780916F
:102980006A0387FD61C010926C0310926B03109272
:10299000C1011092C0012D98A8DC1092BF011092C5
:1029A000B40381E08093910310926E0059981092C5
:1029B0007A021092790210923B0310916A03177EFB
:1029C00020914D02609164037091650380916603CC
:1029D00090916703620F711D811D911D0E94A40AD1
:1029E000EDE2F2E080E094E081939193A2E0ED3497
:1029F000FA07D1F78CEC90E0909332028093310289
:102A0000116010936A030E94730980911E029091D5
:102A10001F02A0912002B09121028093BB019093EC
:102A2000BC01A093BD01B093BE01419A4298809130
:102A300011058F3009F422C408F055C2813009F421
:102A400089C2833009F4E9C39091690380916A03D4
:102A500094FF2BC786FD29C72091620327FD25C758
:102A600020916803211121C7806880936A0381E067
:102A70000F900F900F900F900F90DF91CF911F91BB
:102A80000F91FF90EF90DF90CF90BF90AF909F900D
:102A90008F90089590915F02913009F018CF69CD21
:102AA000809111058F3009F0B6C030918F0380916D
:102AB000AD019091BF011091A201A0E2B8E03B9F4F
:102AC000A0011124FA01E159FC4F2081222309F4CD
:102AD00057C0B18170E060E06B1708F04AC0FA019E
:102AE000E60FF71FE159FC4F2281913031F100F1DF
:102AF000923081F18830C8F01430B0F4912F990FE2
:102B0000990F990FF3EAEF2EF1E0FF2E28E0290F3D
:102B1000F70101917F01E92FF0E0EE57FE4F0083AE
:102B20009F5F9213F5CF1F5F90E06F5F7F4FD4CF11
:102B30002E3701F7892F91E0F8CF2E37C1F02D37CE
:102B4000A1F08A30C8F6E82FF0E0ED55FE4F208363
:102B50008F5FD0CF8A3038F4E82FF0E0ED55FE4F8C
:102B60002A2720838F5F91E0C5CF92E0C3CF80E01A
:102B7000DCCF41595C4FFA0110823F5F33709ECF2A
:102B80009093BF018093AD011093A20130938F0306
:102B90008091B403882349F08091980387FF5EC039
:102BA0008F778093B8011092B4030E947309C0908C
:102BB000AE01D090AF01E090B001F090B1016C197E
:102BC0007D098E099F09613E7E428105910518F1BC
:102BD0008091810190E0019664E270E00E944521BD
:102BE000282F80938101909191039923E1F18091A5
:102BF000AE019091AF01A091B001B091B1018052AE
:102C0000914DAF4FBF4F8093AE019093AF01A09312
:102C1000B001B093B1018091B403882309F4C0C01E
:102C200090911105963309F0BBC066E08BE00E94DD
:102C3000240B8091EB040E94E50A0CEE14E061EF96
:102C4000E62E64E0F62EF80181918F010E94E50ADC
:102C5000E016F106C1F71092B4034FCE880F8F5FD4
:102C60008093B201A0CF263008F075C038E93093C8
:102C7000670230E13093680210926C0210926D028C
:102C800010926E02223009F445C0243009F459C074
:102C9000211161C085E08093690281EF80936A020F
:102CA00082E080936B0283E280936C028FE08093DA
:102CB0006D0269E082E00E94240B809167028C31F2
:102CC00028F4E82FF0E0E859FF4F84910E94E50ACC
:102CD000E8E6EE2EE2E0FE2ED12CC12C11E0D70169
:102CE0008D917D010E94E50AF701319780818C0D5D
:102CF0009D2D911D292F3327820F931F6C01DD24F9
:102D00001F5F193009F473CF183049F7809580930D
:102D10006F02E5CF81E08093690281EF80936A02C0
:102D20008091B80180936B028091B30380936C0211
:102D30008091B70180936D028091B20380936E02FF
:102D4000B8CF8093690281EF80936A028091B201CB
:102D500080936B02AECF112309F449CF62E871E092
:102D600027E632E04AE851E0DB018D91F9018193D9
:102D70009F014A175B07C9F711501093A201112355
:102D800009F497CF110F110F110F191709F491CFF3
:102D9000DB0118968C91FB018193BF019F5FF5CFFA
:102DA00080FF4BC0909111059F3009F446C02EEF73
:102DB00020936702933019F59091970390936802DE
:102DC00090919803909369029091990390936A026D
:102DD0008E7F82608093B4038091B30380936B02F3
:102DE0008091B70180936C028091B20380936D0251
:102DF00010926F0210926E020E94320B7ECD892FCC
:102E00008F7D823059F09C3149F09E3039F09C32F0
:102E100029F0973219F099529230F0F68091BA0168
:102E2000809368028091B901809369028091B80112
:102E300080936A021092B403CFCF81FF5ECD909150
:102E40001105933009F059CD90919A03992309F413
:102E500002CF2DEF20936702973090F126E0209368
:102E60006802965090939A0382608093B403809195
:102E70009B038093690280919C0380936A028091F6
:102E80009D0380936B0280919E0380936C028091DE
:102E90009F0380936D028091A00380936E028091C6
:102EA000A10380936F028091B40381FFA5CFECE969
:102EB000F3E08681819323E0E23AF207D1F79CCFD9
:102EC000909368021092B403D2CF809160029091E7
:102ED0006102039708F44ECD82E090E09093610286
:102EE0008093600247CD843209F415C4863309F417
:102EF00040C2823109F0A8CD809169038F77809319
:102F0000690386E990E090936102809360021091DA
:102F10005F02143009F4D7C208F0D0C2112309F4BB
:102F200045C3A5EBB3E030E020E043E08091B80377
:102F3000642F0E942521F901949FE00DF11D1124B9
:102F4000E450FF4FE491ED932F5F3F4F2330310565
:102F500069F7DFC241985A9886E00E946A0184E5C9
:102F60000E946A0185E70E946A0185EC0E946A015D
:102F70008AE20E946A015A9A00911105D12CC12C53
:102F8000013021F454E8C52E50E0D52EF12CE12C6F
:102F90008E2DF601EE0DFF1D649110915F02013040
:102FA00059F4143049F48E3009F471C08F3109F4AA
:102FB00072C0803209F471C06F3F09F069C0BFEF81
:102FC000EB1AFB0AE2E3EE16F10411F780EA0E9425
:102FD000100A61E082E00E94270A82E00E94150A3E
:102FE0008111FBCF023041F063E184E20E94270AA5
:102FF0006BE386E20E94270A60E08FE00E94270AC6
:1030000062E082E00E94270A82E00E94150A811194
:10301000FBCF85E20E94150AF82E60EA8FE00E943D
:10302000270A62E082E00E94270A82E00E94150AD5
:103030008111FBCF85E20E94150A093291F5877054
:103040006F2D67702CEF260F643010F424E0261BE0
:103050009CEF980F843010F494E0981B2917F8F037
:10306000686085E20E94270A0E94330A0E945D0A76
:1030700080E098E090930101809300010C3121F0F1
:10308000D0F401500230D8F430E020E034C061E0E8
:103090000E94270A94CF6FE1FBCF6EE1F9CF682F32
:1030A000DFCF023009F368E00130D9F262E0053386
:1030B000C1F26AE0D6CF093239F3053329F3209102
:1030C000590330915A0350E040E02C5C310941092A
:1030D0005109A8E5B2E00E94E42028E636E040E08D
:1030E00050E00E94C8202C5231404109510921155D
:1030F000F8E03F07D9F030930101209300012F5FE2
:103100003F4F7901EE0CFF1C6BE436FF04C021E059
:10311000E21AF1086AE481E10E94270A6F2D82E138
:103120000E94270A6E2D83E10E94270A80EA0E94EE
:10313000100A8091B803982F907F913918F080572A
:103140008093B803A091B803BA2FB295BF702A2F0D
:103150002F7030E035952795220F331F220F331F34
:1031600090E080E00AE0A1706FE070E0F82EAC0122
:10317000FC01F595E795F595E795E20FF31FEA5405
:10318000FF4FE49181FF13C0EF70E09FE02D112409
:10319000F0FE0FC0E05B143089F4E03A79F4E7E325
:1031A000B43060F0EDE2B93048F0E9E207C0E295F2
:1031B000EBCF143019F4EA3081F7E1E4AA2319F0D7
:1031C000AB01481B590B47545B4FFE2EFB1AFA010B
:1031D000F08201968031910549F610925D021092BD
:1031E0005A028091690387FD13C084EC99E09093A3
:1031F00061028093600280E699E09093C101809320
:10320000C00180E79AE090936C0380936B031CCC21
:103210001092610210926002EECF4198429A0E9491
:10322000720510925A021092B403109293031092F6
:10323000BA011092B9011092B8011092B303109222
:10324000B7011092B2038091690387FD10C081E03D
:103250000E945A09109256021092550280E197E29C
:103260009093C1018093C0018EE29DE0CCCF88EEA7
:1032700093E09093560280935502F0CF4198429A82
:103280006091640370916503809166039091670378
:103290000E94A40A0E94720510925A0232E0832E04
:1032A00099249394A92CB92C4FE2C42ED12CE12C53
:1032B000F12C8091540281110AC015D7A501940107
:1032C00067D7A701960164D760935402F2CF80912B
:1032D0005F0281FF43C089EE90E00E94260909EB5E
:1032E00014E08AEBE82E83E0F82E99EEC92E94E0E4
:1032F000D92E2AE0A22E2EE0B22E86E30E940806E6
:10330000D8016D918D018AE00E941D0683E30E9421
:103310000806C5010197F1F785E20E941706F7013B
:1033200081937F01C016D10641F78091690387FD23
:1033300018C0109256021092550281E00E94B90600
:1033400088E080936D031092900380E197E2909360
:10335000C1018093C0018BEB9EE055CF86ED90E0DC
:10336000BCCF89EE93E0909356028093550280E0A3
:10337000E5CF4198429A89EF8093620210926402ED
:103380001092B4031092660262E188E00E941D066A
:103390006AE08BE00E941D0660E08CE00E941D0642
:1033A0006CE58DE00E941D066EE48EE00E941D0615
:1033B00063EC8FE00E941D066DE880E10E941D060F
:1033C0006BE381E10E941D0660E182E10E941D061F
:1033D00063E283E10E941D0664EA84E10E941D0607
:1033E00062E685E10E941D0668E088E10E941D06F4
:1033F0006DE189E10E941D066CE18AE10E941D06D3
:1034000067EC8BE10E941D0660E08CE10E941D06C6
:1034100060EB8DE10E941D0666EB81E20E941D06B5
:103420006FE282E00E941D066FE680E00E941D06AA
:1034300086E30E94080684E30E9408068AE99FE06A
:103440000197F1F784E30E9408061AEBE12E13E0DE
:10345000F12E10E00AE0C02E0EE0D02E86E30E948E
:103460000806612F8AE00E941D0683E30E94080679
:10347000C6010197F1F785E20E941706D7018D93E7
:103480007D011F5F193F51F786E30E94080686E31E
:103490000E9408066FE282E00E941D066FE680E04F
:1034A0000E941D0684E30E94080682EE94E0909339
:1034B000C1018093C00188E596E0A5CE153001F1E9
:1034C000163009F02ECD2091B803822F8F7090E036
:1034D000880F991FFC01EB5FFE4FE491E093B50369
:1034E000FC01EA5FFE4FE491E093B603822F8E70F9
:1034F0008E3009F058C021702F5F2093B70309C0A8
:1035000083E0EDE0F1E0A5EBB3E001900D928A9548
:10351000E1F785E0E6E5F1E0DE01119601900D921C
:103520008A95E1F711114CC084E0ECE5F1E0A9EBDC
:10353000B4E001900D928A95E1F789E0809310053F
:103540001092030181E0809302010E94D90213309E
:1035500019F0153009F0DAC063E083E00E94C1027F
:10356000CE0101960E94960181EE0E94CC0182EE6E
:103570000E94CC0160E787E00E94C10260E081E028
:103580000E94C10261E082E00E94C10260E084E02A
:103590000E94C10260E181E10E94C1020E94CB024F
:1035A0000E94E40292C01092B703B3CF8091B5039A
:1035B000887F8093B5038091B8038093B703A9CF28
:1035C0008DEF810F843008F08BC084E0E1E6F1E0FC
:1035D000A9EBB4E001900D928A95E1F7143009F05F
:1035E00091C04198429A0E94241186E30E940806E5
:1035F00061E088E00E941D066AE08BE00E941D06E3
:1036000060915B028CE00E941D066CE58DE00E94DB
:103610001D066EE48EE00E941D0663EC8FE00E94A2
:103620001D066DE880E10E941D066BE381E10E94AA
:103630001D0660E182E10E941D0663E283E10E94B3
:103640001D0664EA84E10E941D0662E685E10E948F
:103650001D0668E088E10E941D066DE189E10E9477
:103660001D066CE18AE10E941D0667EC8BE10E9459
:103670001D0660E08CE10E941D0660EB8DE10E945A
:103680001D0666EB81E20E941D066AEE83E20E943F
:103690001D0660E085E20E941D0661E186E20E944F
:1036A0001D060E9452060E94DF0681E080930201FF
:1036B00085E080930F05FE013196AAE0B5E0019008
:1036C0000D928A95E1F70E94270610925A0284E92A
:1036D00091E19093C1018093C00182E79BE093CD7B
:1036E00084E0E6E6F1E0A9EBB4E001900D928A9562
:1036F000E1F785E0EBE6F1E0DE01119601900D9235
:103700008A95E1F7163009F46CCF17CFCE010196F8
:103710000E94420B29CF809169038F7780936903C0
:1037200088EE93E090936102809360028091B903E8
:1037300010915F02113009F47EC008F450C01430BB
:10374000C0F48370F8E08F9FC00111248B5D9E4F01
:10375000A5EBB3E029EB34E0FC0144914D933496A2
:103760004491F90141939F010196F3E0A93BBF0702
:1037700099F789E0809310051092030181E080930E
:1037800002010E94D902113009F052C081E791E094
:103790000E94420B81EE0E94CC0182EE0E94CC017D
:1037A00060E787E00E94C10260E081E00E94C10200
:1037B00061E082E00E94C10260E084E00E94C102F8
:1037C0000E94CB020E94E402113009F46BC008F49D
:1037D0005AC0143008F05DC08CE19CE056C0E5EBA7
:1037E000EE2EE3E0FE2EE9EBF4E026E0AFE0CA2E99
:1037F000D12CD7018D917D01482F50E074E0559573
:1038000047957A95E1F78F70840F952F911DB6013A
:103810003CD5820F8193215F223459F789E0809350
:1038200010051092030181E0809302010E94D902E9
:1038300087E791E0ADCF63E008D5B6E09B9FC0017C
:1038400011248B5B9E4F45EB53E0A9EBB4E020E0E5
:10385000FC013491FA013193AF01223020F4FC01D4
:103860003496E491EC932F5F01961196243081F702
:1038700089E0809310051092030181E0809302019A
:103880000E94D90283CF88E097E0909359028093F9
:10389000580284EF91E09093C1018093C0018BE0C6
:1038A0009DE0B1CC8CE794E2F0CF8F7780936A03F0
:1038B0009D7F90936903E090C001F090C10121E0E9
:1038C000E2162DE7F206B0F08701012F11270695C9
:1038D000069502501109B80190E080E00E94F209BB
:1038E000102F0027110F110FE01AF10AF092C101F9
:1038F000E092C001F894209184003091850080917D
:10390000C0019091C101880F991F820F931F90935E
:1039100089008093880082E086BB78948091690357
:103920008F7D80936903A3C880E0A2C81F920F9285
:103930000FB60F9211248F939F93EF93FF938AB545
:103940008330A8F18EB380FF34C0599A86959AB51A
:10395000933088F18EBB8AB581508ABD81111EC01B
:103960009091790280917A02981739F1E0917A0268
:10397000F0E0E758FD4F82818EBBE0917A02F0E0E3
:10398000E658FD4F82818BBD80917A028E5F803C2C
:1039900008F080E080937A028AE08ABDFF91EF917F
:1039A0009F918F910F900FBE0F901F9018958BB520
:1039B000CACF5998CBCF8BBDCECF10923B0380910D
:1039C0006E008E7F80936E00E9CF1F920F920FB62C
:1039D0000F9211248F939F93EF93FF938BB580FFEA
:1039E00012C0599A86958BBD8AB581508ABD8111C6
:1039F0003EC080916A03887141F010923B03809130
:103A00006E008B7F29C05998EDCF909179028091FB
:103A10007A02981791F3E0917A02F0E0E758FD4FAF
:103A200082818EBBE0917A02F0E0E658FD4F828100
:103A30008BBD80917A028E5F803C08F080E080939D
:103A40007A0288E08ABD88B5885D87BD87B58056D3
:103A500088BD80916E00826080936E00FF91EF912F
:103A60009F918F910F900FBE0F901F90189588B562
:103A70008C5E88BDF3CF1F920F920FB60F92112468
:103A80008F938EB380FF15C0599A86958EBB8AB5E9
:103A900081508ABD81110FC080916E008D7F80930F
:103AA0006E0083E08ABD8F910F900FBE0F901F9024
:103AB00018955998EACF87B58C5E87BDF4CF1F92D1
:103AC0000F920FB60F9211242F934F935F936F9322
:103AD0007F938F939F93AF93BF93EF93FF938091C7
:103AE0001D0290918400E82FF0E0E350FE4F908398
:103AF0008F5F80931D02803208F4CDC0EDEFF1E0BE
:103B0000219180915D0390915E03A0915F03B0913C
:103B10006003820F911DA11DB11D80935D039093E1
:103B20005E03A0935F03B093600380915D03909167
:103B30005E03A0915F03B091600340915D035091DB
:103B40005E0360915F03709160032AE0880F991F04
:103B5000AA1FBB1F2A95D1F7840F951FA61FB71F59
:103B600080935D0390935E03A0935F03B093600323
:103B700080915D0390915E03A0915F03B09160031B
:103B800040915D0350915E0360915F03709160030B
:103B900026E0B695A795979587952A95D1F784271E
:103BA0009527A627B72780935D0390935E03A09384
:103BB0005F03B093600382E0ED31F80709F0A0CF16
:103BC00080915D0390915E03A0915F03B0916003CB
:103BD00040915D0350915E0360915F0370916003BB
:103BE00023E0880F991FAA1FBB1F2A95D1F7840FC6
:103BF000951FA61FB71F80935D0390935E03A0934C
:103C00005F03B093600380915D0390915E03A09188
:103C10005F03B091600340915D0350915E0360913A
:103C20005F0370916003EBE0B695A7959795879534
:103C3000EA95D1F784279527A627B72780935D03B8
:103C400090935E03A0935F03B093600380915D0344
:103C500090915E03A0915F03B091600340915D037A
:103C600050915E0360915F0370916003FFE0880FE5
:103C7000991FAA1FBB1FFA95D1F7840F951FA61F86
:103C8000B71F80935D0390935E03A0935F03B0938F
:103C9000600310926000FF91EF91BF91AF919F91EF
:103CA0008F917F916F915F914F912F910F900FBEE8
:103CB0000F901F90189578941F920F920FB60F9245
:103CC00011242F933F934F935F936F937F938F9321
:103CD0009F93AF93BF93EF93FF9381E08093FC0199
:103CE000EFE6F0E080818B7F80830E94B70AFF912E
:103CF000EF91BF91AF919F918F917F916F915F9164
:103D00004F913F912F910F900FBE0F901F901895DC
:103D10001F920F920FB60F9211242F933F934F9340
:103D20005F936F937F938F939F93AF93BF93EF9323
:103D3000FF938091C1008F778093C1007894809128
:103D4000C0008C7109F082C0E091FB01EE23C1F14B
:103D50008091FC018130A1F181E08E0F8093FB0105
:103D6000F0E09091C600EF51FE4F90838A3108F049
:103D700053C08091FC01813061F480916F008B7F92
:103D800080936F0080916A038F7E80936A030E9404
:103D9000B70AF8948091C10080688093C100FF91B8
:103DA000EF91BF91AF919F918F917F916F915F91B3
:103DB0004F913F912F910F900FBE0F901F9018952C
:103DC0001092FB011092FC0180916A038B7F80931B
:103DD0006A039091C6009093E1019091E1019C7F6C
:103DE000943539F6806180936A03809184009091C4
:103DF00085008C59964E90938B0080938A0084E0C6
:103E000086BB80916F00846080936F008091FB017E
:103E10008F5F8093FB01ADCF80916A0381FD12C05B
:103E20008AE1E1EEF1E0A7ECB1E001900D928A9514
:103E3000E1F78091690381608093690381E0809359
:103E4000FC0197CF846080936A03F8CF8091C6000D
:103E50008093FB01F3CF789414B817B81AB8559A29
:103E6000549A529A579A3D9A219A209A399A3A9A94
:103E7000519A2A9A2B9A2C9A409A2D9A1092800045
:103E800082E080938100F89414BE8091600080618C
:103E90008093600080E48093600078945A9A5F9ADF
:103EA000299A289A5D9A5C9864E670E080E090E038
:103EB0000E94F209809169031D9961C08F77806229
:103EC0008093690310926803EDE3F3E08DE593E0DE
:103ED00020E034E0219331938E179F07D9F78CECC3
:103EE00090E090934203809341032D98259A0E947D
:103EF000751180915D0390915E03A0915F03B09175
:103F00006003892B8A2B8B2BA1F360915D03709149
:103F10005E0380915F0390916003611571058105D7
:103F2000910509F02CD189E396E8A2E4B5E68093E7
:103F3000640390936503A0936603B09367031092A4
:103F4000610310926203109263031092110581E0E5
:103F50000E943D118FEF9FEF12E020916B03309193
:103F60006C03232B71F020916A0327FD0AC081396D
:103F7000914038F4B19912C0B19BFECF19C080684E
:103F80009FCF0E94E11180916B0390916C03892B6C
:103F9000C1F380916A0387FDF4CFECCFF894809150
:103FA0008400909185009093890080938800789494
:103FB00080916A03982F986090936A0385FF29C0C7
:103FC000E0916B03F0916C03309719F10995EC01C6
:103FD00080916A03877F80936A030E94B70AC13A7F
:103FE0008FE0D807D8F0C05DD740F8948091880062
:103FF000909189008056904F90938900809388001B
:1040000016BB78940E94E111811106C0B19BFECFCE
:10401000E6CFC0EDD7E0DCCFD0E0C0E0F8948091EF
:10402000880090918900CC0FDD1FC80FD91FD09355
:104030008900C093880016BB809188009091890008
:104040002091840030918500821B930B789497FD1A
:10405000AFCF83CF8F929F92AF92BF92CF92DF92DA
:10406000EF92FF92CF93DF93EC01688179818A818F
:104070009B81611571058105910521F464E279ED5B
:104080008BE597E02DE133EF41E050E081D049012D
:104090005A019B01AC01A7EAB1E496D06B017C0107
:1040A000ACEEB4EFA50194019BD0C60ED71EE81E5E
:1040B000F91EF7FE06C081E0C81AD108E10880E8C1
:1040C000F80AC882D982EA82FB82C701B6019F77CB
:1040D000DF91CF91FF90EF90DF90CF90BF90AF90A6
:1040E0009F908F9008958F929F92AF92BF92CF92A0
:1040F000DF92EF92FF92609104017091050180912F
:10410000060190910701611571058105910521F462
:1041100064E279ED8BE597E02DE133EF41E050E08B
:1041200037D049015A019B01AC01A7EAB1E44CD058
:104130006B017C01ACEEB4EFA501940151D0C60E29
:10414000D71EE81EF91EF7FE06C081E0C81AD10886
:10415000E10880E8F80AC0920401D0920501E092DB
:104160000601F0920701C701B6019F77FF90EF901B
:10417000DF90CF90BF90AF909F908F900895609305
:10418000040170930501809306019093070108953F
:10419000052E97FB16F400940FD057FD05D024D0C0
:1041A00007FC02D046F408C0509540953095219503
:1041B0003F4F4F4F5F4F0895909580957095619553
:1041C0007F4F8F4F9F4F089531D0A59F900DB49F83
:1041D000900DA49F800D911D11240895B7FFF4CF79
:1041E000F3DF821B930B0895A1E21A2EAA1BBB1BBF
:1041F000FD010DC0AA1FBB1FEE1FFF1FA217B307B3
:10420000E407F50720F0A21BB30BE40BF50B661FC8
:10421000771F881F991F1A9469F76095709580958C
:1042200090959B01AC01BD01CF010895A29FB00103
:10423000B39FC001A39F700D811D1124911DB29FDA
:10424000700D811D1124911D0895991B79E004C002
:10425000991F961708F0961B881F7A95C9F78095C5
:104260000895AA1BBB1B51E107C0AA1FBB1FA617BD
:10427000B70710F0A61BB70B881F991F5A95A9F70F
:1042800080959095BC01CD01089597FB072E16F4FB
:10429000009406D077FD08D0E4DF07FC05D03EF49B
:1042A000909581959F4F0895709561957F4F0895E2
:1042B000DC0101C06D9341505040E0F70895F8943F
:0242C000FFCF2E
:1042C200000801FD01000000550F710C00A403005D
:1042D20000000102030405060708090A0B0C0D0E73
:1042E2000FE3B14BEA85BCE5660DAE8C881269EE30
:1042F2001FC76297D50B79CACC1B5D191024D3DC7A
:104302003F8EC52FAA16F395710F5500323E424ECD
:104312000037324742006D6A7777770012223242C5
:10432200002E363E46000A35423D006D6A737373B5
:0E43320000EEDDCCBB1100C457096521000070
:00000001FF
