:1000000040C100005BC1000059C1000057C10000A1
:1000100055C1000053C100000C94691C4FC1000081
:100020004DC100004BC1000049C1000047C10000A4
:100030000C94401E43C100000C946D170C941717CC
:100040000C94C8163BC100000C946C1E37C1000014
:1000500035C1000033C1000031C100002FC10000D4
:100060002DC100002BC1000000A12283E445C6671A
:1000700048E96ACBAC0D8E2FD071F253349516B788
:100080009839BA1BFF42001400FFFF000000000176
:10009000210500509E4B0002162B1200628080004A
:1000A0000A32C30F13C300FF00003B001747800351
:1000B00001451800010F1234567818273645418241
:1000C00036578413657287641532768413527162D1
:1000D00084357186435206060C181E0401FF0A007F
:1000E0005C76277B6113237A5106060E18230401E0
:1000F000FF08005C80007BF803237A53F84F1CC88C
:100100006E02486A404F1C901C24367A4061315D73
:1001100037FD4F863C4122EEB39AB2C0442AFED747
:100120006E3CCDF52BB4BB09003E45474A949D0B70
:10013000003E43494AD1D000003F42464ACBCD045D
:10014000004143464A833C6000473E5C2B60004AC6
:100150003C57070000414819161A6C1B431C401DF0
:10016000912156221023A9240A2500261129592C51
:10017000882D312E0B030709000200171806070807
:100180003E0B0C0D0E0F10111213141514314049B3
:1001900049494949494906060C18190405FF080050
:1001A0005C7627AA3911237A420000891112239B19
:1001B000322446AD573665BF74488CC19D5AAFD3C3
:1001C000BE6CCAE5DB7EE9F7F800005F3DF1A623CF
:1001D0003A16AAAF1CB262EBE0210807BE1A5F15FF
:1001E000AF0A4F24AD485E34ED8C06C9F252183682
:1001F000DF9D127CB1F5D5D77098B73351DB674ED0
:10020000D95B0A45E4A5E6E726ABBD79C3208E009D
:10021000004834A79BBB8BE1858C3E1E45E6182425
:100220006BABE728384B8161D494F403251D698BAF
:10023000FEA79B178B20295F8BB16191D301743886
:10024000219F12A0B38829CA23CBC06C0C29B3A16B
:10025000A0160AD0A90A463A420A3C363F0A43365B
:100260003F3A352E36323E2E3C2F3B333B333B3428
:100270003E342F393E2E382E362E383A41323E3318
:100280003F0011241FBECFEFD8E0DEBFCDBF11E08D
:10029000A0E0B1E0EAE7F2E402C005900D92AE37CB
:1002A000B107D9F725E0AEE7B1E001C01D92A63352
:1002B000B207E1F70E940E1F0C943B21A1CE8F9252
:1002C0009F92AF92BF92CF92DF92EF92FF920F93E5
:1002D0001F93CF93DF9300D000D01F92CDB7DEB72E
:1002E0002091E3022111FEC08091C601811142C01C
:1002F000109180010E94821B809106059091C000A0
:1003000097FF17C02091C60090917F019F5F909347
:100310007F01123040F4111102C080937E0120331E
:1003200029F512E024C0123011F52032D1F713E084
:100330001EC01123E1F090917E01891B8630B8F038
:1003400080917F01833038F08FEF8093C60180E089
:100350000E94781D0CC0133029F4F894E0E0FFE30C
:10036000099505C010927F0110E001C011E01093C3
:100370008001B8C08091E40280FFB4C09091E50292
:10038000392F32603093E502382F3E7F3093E402FC
:100390004091D30445FF04C038603093E40203C0A9
:1003A000867F8093E4023091D3048091E40236FF8B
:1003B00002C0806101C08F7E8093E4023091D4043A
:1003C0008091E40237FF02C08B7F01C0846080937C
:1003D000E40280918804833011F43DEC04C08F3036
:1003E000E1F33091D5043093B6043091D20431FF5B
:1003F0000AC03091D2043D7F3093D2049360909331
:10040000E50231E001C030E04091D2049091DC027D
:1004100049130C944E0B9091D3044091DD02942724
:100420009F7511F00C944E0B5091D4049091DE0204
:1004300095279F7711F00C944E0B0C94610B8091D3
:10044000E5028D7F8093E5028091C1008F778093D4
:10045000C1008091E50282FF11C09AE1ECEEF4E068
:10046000A2EDB4E001900D929A95E1F79091E4022B
:1004700091609093E4028B7F8093E5028091C100AC
:1004800080688093C100E0ECF2E080E090E041E021
:1004900050E0619171916135744038F0BA01082ED5
:1004A00001C0660F0A94EAF7262B01968830910561
:1004B00081F72093B9048091E50280628093E50280
:1004C0000E94821B8091060590910705A091080566
:1004D000B09109058093C2019093C301A093C40118
:1004E000B093C5018091E50285FF20C00E94821B68
:1004F0008091060590910705A0910805B091090526
:100500004091C2015091C3016091C4017091C50135
:10051000841B950BA60BB70B87349105A105B1057C
:1005200028F08091E5028F7D8093E5020E94821B76
:100530008091BB019091BC01A091BD01B091BE0121
:1005400040910605509107056091080570910905D5
:1005500084179507A607B70708F03EC02091E5026B
:1005600025FD09C02091E302211115C08C509E4F3A
:10057000AF4FBF4F25C04091E6025091E702452B97
:1005800031F42D9908C0C296A11DB11D19C027FFD5
:1005900007C02D9911C088519C4FAF4FBF4F10C05D
:1005A0008091E40287FD2D988091BB019091BC0160
:1005B000A091BD01B091BE018C599F4FAF4FBF4F6D
:1005C0008093BB019093BC01A093BD01B093BE0189
:1005D00095B180E2892785B99091F4018091F50168
:1005E000981708F08054891B803408F47CC20E945C
:1005F000821BC0900605D0900705E0900805F0909A
:1006000009058091B3019091B401A091B501B09119
:10061000B601A7019601281B390B4A0B5B0BDA01C7
:10062000C901853F9140A105B10508F44CC065E0C2
:1006300081E00E943D189091E50295FB882780F9A2
:100640002091E302211101C082602091E6023091E5
:10065000E702232B09F197FF02C0846107C0909144
:10066000E40297FF02C0846001C08C60909188040E
:100670009F3089F028F4943051F0973069F40BC022
:100680009C3149F09E3139F0953131F404C090919C
:10069000BA04913009F480620E94911781E00E94AF
:1006A000911782E00E94911781E00E9491178CE4DB
:1006B0000E949117C092B301D092B401E092B501AB
:1006C000F092B60110C2809188048F3009F060C1A9
:1006D000309109038091AD019091BF011091A20169
:1006E00070E2A8E03A9FA0011124FA01E751FD4F02
:1006F0002081222309F45AC00181DA01A551BD4F9E
:1007000060E0061709F44BC02D91913039F018F0D4
:10071000923089F01CC02E37D1F436C02E37B1F19B
:100720002D37A1F08A30A8F4E82FF0E0ED55FE4F08
:1007300020838F5F0CC08A3060F4E82FF0E0ED5525
:10074000FE4F272720838F5F91E001C092E0883021
:1007500000F11430B0F4912F990F990F990F23EAFB
:10076000E22E21E0F22E28E0290FF701D1907F013F
:10077000E92FF0E0EE57FE4FD0829F5F9213F5CF46
:100780001F5F982F20E007C021E005C021E090E026
:1007900002C0292F982F6F5F892F922FB2CFFA01B5
:1007A000E751FD4F10823F5F33709BCF9093BF01A5
:1007B0008093AD011093A2013093090380912C0323
:1007C000882371F08091110387FF04C08F77809395
:1007D000B80104C0880F8F5F8093B20110922C0380
:1007E0000E94821BC090AE01D090AF01E090B0019A
:1007F000F090B101DC01CB018C199D09AE09BF0954
:10080000813E9E42A105B10508F4C2C080918101DC
:1008100090E0019664E270E00E942121982F80937D
:10082000810120910B032223A9F08091AE019091C8
:10083000AF01A091B001B091B1018052914DAF4F85
:10084000BF4F8093AE019093AF01A093B001B093DE
:10085000B1019EC0863060F428E92093C00420E1F5
:100860002093C1041092C5041092C6041092C704CC
:100870009230A1F0943049F1911131C085E080931C
:10088000C20481EF8093C30482E08093C40483E2B6
:100890008093C5048FE08093C60445C081E08093B7
:1008A000C20481EF8093C3048091B8018093C40493
:1008B00080912B038093C5048091B7018093C60477
:1008C00080912A038093C7042EC08093C20481EFD5
:1008D0008093C3048091B2018093C40424C0112387
:1008E00009F4A3CF62E871E080EC94E02AE831E0FB
:1008F000DB014D91FC014193CF012A173B07C9F75A
:1009000011501093A201112371F0110F110F110F4B
:1009100080E0181741F0DB0118969C91FB01919340
:10092000BF018F5FF6CF69E082E00E943D188091A1
:10093000C0048C3128F4E82FF0E0E859FF4F84918F
:100940000E949117A1ECCA2EA4E0DA2E00E010E07C
:10095000FF24F3945601D6018D916D010E949117E9
:10096000F50180819801280F311DC901232F3327FC
:10097000820F931F8C011127F39439E0F31609F4C9
:1009800054CFF8E0FF12E6CF80958093C804E2CF01
:1009900080912C038823E9F0909188049633C9F460
:1009A00066E08BE00E943D18809163040E949117DD
:1009B00004E614E0E9E6EE2EE4E0FE2ED8018D9187
:1009C0008D010E949117E016F106C1F710922C03D9
:1009D0008AC080FF49C0909188049F3009F444C0C8
:1009E0002EEF2093C004933089F4909110039093DC
:1009F000C104909111039093C204909112039093BB
:100A0000C3048E7F826080932C031DC0892F8F7D4D
:100A1000823059F09C3149F09E3039F09C3229F0F7
:100A2000973219F09952923070F48091BA01809304
:100A3000C1048091B9018093C2048091B801809370
:100A4000C30410922C0380912B038093C4048091E3
:100A5000B7018093C50480912A038093C604109245
:100A6000C8041092C70435C081FF3DC0909188042E
:100A70009330C9F590911303992309F4A7CF2DEF73
:100A80002093C004973050F026E02093C104965084
:100A900090931303826080932C0304C09093C1044D
:100AA00010922C03809114038093C204E5E1F3E0DB
:100AB00083EC94E0AF01DA012D91AD01DC012D93BF
:100AC000CD01B3E04B315B07B1F780912C0381FD81
:100AD00003C00E944B1807C08681819323E0EB314D
:100AE000F207D1F7F6CF8091E40284FF19C090910C
:100AF000E50296FD15C02091D6023091D70221392A
:100B0000354070F02091BC023091BD022E3F31057E
:100B100038F48F7782608093E40290649093E502CA
:100B20008091E40284FF28C09091E50296FF24C0E2
:100B30002091D6023091D70220313340E8F49F7BD8
:100B40009093E50290918804933031F09F3021F02A
:100B5000993111F09C3121F480688093E4020CC03B
:100B60008091BB049091BC04039730F082E090E048
:100B70009093BC048093BB049091E402892F82700F
:100B800091FF50C68091E50287FD34C51092E702BF
:100B90001092E6021092C1011092C0012D980E949D
:100BA000B01D1092BF0110922C0381E080930B03C3
:100BB00010926E0059981092F5011092F401109263
:100BC000B6028091E502877E8093E5022091E701DD
:100BD0008091DF029091E002A091E102B091E202E7
:100BE000BC01CD01620F711D811D911D0E94651D0B
:100BF000E7ECF1E087EE91E020E034E021933193DF
:100C00008E179F07D9F78CEC90E09093CC018093DE
:100C1000CB018091E50281608093E5020E94821BF6
:100C20008091060590910705A0910805B0910905EE
:100C30008093BB019093BC01A093BD01B093BE0112
:100C4000419A4298809188048F3009F491C130F420
:100C5000813071F0833009F45AC1CCC4843209F474
:100C6000FCC3863309F4FEC1823109F0C3C49DC2BE
:100C700041985A9886E00E94661884E50E9466189A
:100C800085E70E94661885EC0E9466188AE20E9439
:100C900066185A9A80918804813019F0E12CF12C61
:100CA00004C074E8E72E70E0F72E00E010E0802F1B
:100CB000F701E00FF11F649190918804913051F495
:100CC0009091BA04943031F40E3039F00F3139F08C
:100CD000003239F06F3F31F407C061E003C06FE1CB
:100CE00001C06EE10E944A1C0F5F1F4F02331105C5
:100CF000F1F680EA0E94351C61E082E00E944A1C05
:100D000082E00E94391C8111FBCF809188048230DF
:100D100041F063E184E20E944A1C6BE386E20E9498
:100D20004A1C60E08FE00E944A1C62E082E00E9460
:100D30004A1C82E00E94391C8111FBCF85E20E948F
:100D4000391C182F60EA8FE00E944A1C62E082E0A2
:100D50000E944A1C82E00E94391C8111FBCF85E26F
:100D60000E94391C909188049932B1F48770612FE8
:100D70006770643018F02CEF260F02C024E0261BA9
:100D8000843018F09CEF980F02C094E0981B29174C
:100D900008F4682F68600BC0923061F0913021F048
:100DA000953321F06AE003C068E001C062E085E2AB
:100DB0000E944A1C0E94A1160E94541C80E098E0E8
:100DC0009093010180930001809188048C3151F04F
:100DD00020F48150823030F002C5893219F0853319
:100DE00009F0FDC420E030E03093010120930001C0
:100DF0002F5F3F4F8901000F111F36FF04C00150C4
:100E000011096AE401C06BE481E10E944A1C612F70
:100E100082E10E944A1C602F83E10E944A1C80EA02
:100E20000E94351C80913003982F907F913918F0E3
:100E300080578093300340913003B42FB295BF7038
:100E4000242F2F7030E0359527951091BA0480E05B
:100E500090E0220F331F220F331FA42FA1706FE0E9
:100E600070E0082FAC01FC01F595E795F595E79545
:100E7000E20FF31FEA54FF4FE49181FFE295EF7018
:100E8000EE0FFE2FFF0FFF0FEF0F00FF04C0E05B20
:100E9000143091F404C0143079F4EA3041F0E03AAF
:100EA00059F4B43030F0B93030F4EDE205C0E1E48B
:100EB00003C0E7E301C0E9E2AA2319F0AB01481B34
:100EC000590B4F5C5B4F0E2F0B1BFA0100830196F1
:100ED0008031910531F61092B8041092B5048091DA
:100EE000E40287FD07C084EC99E09093BC048093F2
:100EF000BB0404C01092BC041092BB0480E699E0CD
:100F00009093C1018093C00186EA9DE06FC3419830
:100F1000429A0E945D121092B50410922C03109216
:100F20000C031092BA011092B9011092B8011092FC
:100F30002B031092B70110922A038091E40287FDDF
:100F400008C081E00E94AC101092EA011092E90101
:100F500006C088EE93E09093EA018093E90180E176
:100F600097E29093C1018093C0018DEC90E13EC364
:100F70004198429A6091DF027091E0028091E10213
:100F80009091E2020E94651D0E945D121092B504CC
:100F900042E0842E99249394A92CB92C5FE2C52EAB
:100FA000D12CE12CF12C8091E80181110DC00E941F
:100FB0005020A50194010E94A420A70196010E943F
:100FC000A4206093E801EFCF8091BA0481FF03C0B1
:100FD00089EE90E002C086ED90E00E94771001E378
:100FE00014E022E3E22E23E0F22E3AE0C32E3EE0AC
:100FF000D32E86E30E94591BD8016D918D018AE0A2
:101000000E94631B83E30E94591BC6010197F1F7FD
:1010100085E20E945D1BF70181937F01F4E00136B8
:101020001F0739F78091E40287FD06C01092EA019C
:101030001092E90181E007C089EE93E09093EA0104
:101040008093E90180E0E0D588E08093E802109287
:101050000A0380E197E29093C1018093C0018DE182
:101060009EE0C4C24198429A89EF8093BD041092D9
:10107000BE041092BF0462E188E00E94631B6AE034
:101080008BE00E94631B60E08CE00E94631B6CE5B8
:101090008DE00E94631B6EE48EE00E94631B63EC94
:1010A0008FE00E94631B6DE880E10E94631B6BE38D
:1010B00081E10E94631B60E182E10E94631B63E2A5
:1010C00083E10E94631B64EA84E10E94631B62E681
:1010D00085E10E94631B68E088E10E94631B6DE16B
:1010E00089E10E94631B6CE18AE10E94631B67EC4B
:1010F0008BE10E94631B60E08CE10E94631B60EB4C
:101100008DE10E94631B66EB81E20E94631B6FE22C
:1011100082E00E94631B6FE680E00E94631B86E30F
:101120000E94591B84E30E94591B8AE99FE00197A2
:10113000F1F784E30E94591B82E3E82E83E0F82E46
:1011400010E09AE0C92E9EE0D92E86E30E94591B3A
:10115000612F8AE00E94631B83E30E94591BC60132
:101160000197F1F785E20E945D1BD7018D937D0108
:101170001F5F193F51F786E30E94591B86E30E94C7
:10118000591B6FE282E00E94631B6FE680E00E94C1
:10119000631B84E30E94591B82EE94E09093C1018B
:1011A0008093C00180ED97E121C28091E4028F77A6
:1011B0008093E40286E990E09093BC048093BB04A2
:1011C0004091BA04443089F060F4411137C08091F5
:1011D0002D03887F80932D038091300380932F030C
:1011E00049C04530F1F0463049F520913003822F57
:1011F0008F7090E0880F991FFC01EB5FFE4FE49128
:10120000E0932D03FC01EA5FFE4FE491E0932E038F
:10121000822F8E708E3079F421702F5F20932F03F0
:1012200029C083E0E8E0F1E0ADE2B3E001900D9287
:101230008A95E1F71FC010922F031CC0ADE2B3E006
:1012400020E030E053E080913003652F0E940121BF
:10125000892F90E0FC01EE0FFF1FE80FF91FE20F4E
:10126000F31FE450FF4FE491ED932F5F3F4F233086
:10127000310549F785E0E8E4F1E0DE0111960190DF
:101280000D928A95E1F7411106C084E0EEE4F1E0A9
:10129000A1E3B4E094C08DEF840F843008F081C0E6
:1012A00084E0E3E5F1E0A1E3B4E001900D928A95DA
:1012B000E1F7443009F088C04198429A0E94201C0E
:1012C00086E30E94591B61E088E00E94631B6AE08C
:1012D0008BE00E94631B6091B6048CE00E94631B4C
:1012E0006CE58DE00E94631B6EE48EE00E94631B40
:1012F00063EC8FE00E94631B6DE880E10E94631B3A
:101300006BE381E10E94631B60E182E10E94631B49
:1013100063E283E10E94631B64EA84E10E94631B31
:1013200062E685E10E94631B68E088E10E94631B1E
:101330006DE189E10E94631B6CE18AE10E94631BFD
:1013400067EC8BE10E94631B60E08CE10E94631BF1
:1013500060EB8DE10E94631B66EB81E20E94631BE0
:101360006AEE83E20E94631B60E085E20E94631BD9
:1013700061E186E20E94631B0E949B160E946D1B26
:1013800081E08093020185E080938604FE0131961E
:10139000A1E8B4E001900D928A95E1F70E945B15F7
:1013A00051C084E0E8E5F1E0A1E3B4E001900D92E2
:1013B0008A95E1F785E0EDE5F1E0DE011196019017
:1013C0000D928A95E1F703C0463009F475CF89E0A4
:1013D000809387041092030181E0809302010E94B0
:1013E00090168091BA04833011F0853049F463E09F
:1013F00083E00E949718CE0101960E942B1404C02E
:10140000CE0101960E94411481EE0E94751882EE71
:101410000E94751860E787E00E94971860E081E0FD
:101420000E94971861E082E00E94971860E084E0D3
:101430000E94971860E181E10E9497180E941D1494
:101440000E94A2181092B50484E991E19093C10121
:101450008093C0018EEE9AE1C9C08091E4028F773B
:101460008093E40288EE93E09093BC048093BB04E5
:10147000809131039091BA04913089F190F09430C9
:1014800008F06AC083704DE253E0A1E3B4E0F8E0F5
:101490008F9FC001112420E030E0BC016C5F7F4FC2
:1014A00046C00DE213E0E1E3F4E026E0AFE0EA2E0F
:1014B000F12CD8013D918D01832F90E074E095953A
:1014C00087957A95E1F73F70830F911DB7010E94D0
:1014D0002121820F8193215F223459F73DC063E0BF
:1014E0000E9401214DE253E0A1E3B4E0E6E09E9FBB
:1014F0009001112480E090E0B9016C5F7F4FF90109
:10150000E80FF91FEB5BFE4F1491FA011193AF0145
:10151000823038F4FB01E80FF91FEB5BFE4FE491DA
:10152000EC93019611968430910549F715C0FC01A2
:10153000E20FF31FEB5DFE4F1491FA011193AF011F
:10154000FB01E20FF31FEB5DFE4FE491ED932F5F84
:101550003F4F2430310559F789E08093870410927A
:10156000030181E0809302010E9490168091BA04E9
:10157000813019F483E691E002C089E691E00E948F
:10158000411481EE0E94751882EE0E94751860E782
:1015900087E00E94971860E081E00E94971861E060
:1015A00082E00E94971860E084E00E9497180E94F1
:1015B0001D140E94A2188091BA04813049F028F0CD
:1015C000843060F48CE19CE005C088E097E002C0C4
:1015D0008CE794E29093B4048093B30484EF91E099
:1015E0009093C1018093C0018AE198E19093E70252
:1015F0008093E6029091E4028091E50294FF0EC090
:1016000086FD0CC02091DD0227FD08C02091E30279
:10161000211104C080688093E5023EC08F778093DB
:10162000E5029D7F9093E402E090C001F090C1013B
:10163000F1E0EF16FDE7FF06B0F08701012F11275B
:101640000695069502501109B80180E090E00E94CD
:10165000001C102F0027110F110FE01AF10AF09251
:10166000C101E092C001F89420918400309185007E
:101670008091C0019091C101880F991F820F931F23
:10168000909389008093880082E086BB7894809153
:10169000E4028F7D8093E40281E0C4C08091E40283
:1016A000982F92609093E4029091E5029F77909337
:1016B000E5029091D30497FD50C084FD4EC082682E
:1016C0004EC09091D30497FF6AC047FD68C08091D7
:1016D000E4028F7782608093E4028091D204809349
:1016E000DC028091D3048093DD028091D404809346
:1016F000DE02E7ECF1E048EB52E0A5EDB4E08DEF5F
:1017000013E0180F183018F01BEF180F1196BD01D9
:101710006F5F7F4F11968D919D910D90BC91A02D83
:10172000012E04C0B695A795979587950A94D2F790
:101730009770332319F09183808303C0DA018D936E
:101740009C9332964E5F5F4FB1E0E73EFB0711F48A
:101750000C941F02DB01812FD3CF8F77826080939F
:10176000E4028091D204853511F480E001C080E26A
:101770009091D3049F71890F809388048091D40441
:1017800090E044E0959587954A95E1F787708093BE
:10179000BA048091D4048F708093E7019ECF90911A
:1017A000D30497FD9ACF47FF98CF833031F08F3025
:1017B00021F0893111F08C3121F48091E4028068AC
:1017C0008ACF8091BB049091BC04039708F485CF25
:1017D00082E090E09093BC048093BB047ECF209184
:1017E000D4023091D502C901A0E0B0E09C01AD0166
:1017F0002C5C310941095109A8E5B2E00E94C020E2
:1018000028E636E040E050E00E94A420DA01C90159
:101810008C529140A109B1099C018115984009F4AD
:10182000FECAE2CA0F900F900F900F900F90DF91B9
:10183000CF911F910F91FF90EF90DF90CF90BF90CD
:10184000AF909F908F900895682FE82FF0E0EE0FF3
:10185000FF1FE953FE4F408151814115510599F019
:101860004F3F87E0580791F08FE0849F9001859F5C
:10187000300D112484E0369527958A95E1F7C9014A
:10188000805C9F4F05C080E090E002C08FEF97E042
:10189000683008F098600895CF93DF93811102C0FB
:1018A00085E501C08AEA80938904809130038093A2
:1018B0008A0480912F0380938B0480912E03809360
:1018C0008C0480912D0380938D042091BA04CCE088
:1018D000D1E0E9E8F4E049E954E068EB7BE03991D4
:1018E000A32FB0E0AA0FBB1FA854BD4F8D919C91B0
:1018F000DC01AA0FBB1FAA0FBB1F8A0F9B1FA3E00F
:1019000096958795AA95E1F7845A9C4F243031F437
:10191000313021F4DB01A81BB90BCD0185839683FF
:1019200032964E175F07D9F6223099F118F421301C
:1019300089F0BDC0233009F47BC0243009F0B7C062
:1019400010929C048091B804B0E18B9FC0011124D7
:101950008A60ABC08091B90480FF05C09091950466
:1019600090619093950481FF05C0909195049062D9
:101970009093950482FF05C0909193049068909392
:10198000930483FF94C080919304806480939304B4
:101990008EC083E080939604109297048091B904DE
:1019A00080FF03C090E89093970481FF05C0909159
:1019B000970490649093970482FF05C090919704D8
:1019C00090619093970483FF05C090919704916074
:1019D0009093970484FF08C093E8909396049091A5
:1019E000970490629093970485FF05C090919704A7
:1019F00098609093970486FF05C090919704946037
:101A00009093970487FF05C080919704826080932C
:101A1000970480E180939804809399048AEA8093E4
:101A20009A0480939B0480E680939C0482E03DC0EE
:101A30008091B5048F5F8A3018F48093B50402C09A
:101A40001092B50480919504806280939504109261
:101A50009604109297048091B90480FF03C090E827
:101A60009093970481FF05C08091970480648093D0
:101A7000970487E28093980483E08093990480918F
:101A8000B504E82FF0E0E457FE4FE491E0939A04A8
:101A9000811104C082E080939B0402C010929B04D9
:101AA00010929C0410929D0402C080939D04DF91CB
:101AB000CF910895CF93DF93EB01DA01E82FF0E0A7
:101AC000EE0FFF1FE854FD4F20813181243387E062
:101AD000380730F42C3C310528F42CEC30E002C0FF
:101AE00024E337E0A90160E070E09A01AB012C5CCF
:101AF000310941095109AC1BBD0B0E94CA2028E6DF
:101B000036E040E050E00E94A420CE01DD0FAA0B99
:101B1000BB0B820F931FA41FB51FDF91CF910895B8
:101B2000CF93DF93C82F86E30E94591BD0E0FE01BC
:101B3000EE5CFC4F608185E20E94631BCF5CDB4F53
:101B400068818AE0DF91CF910C94631B8091E4025D
:101B500087FD16C081E0A0DE81E00E94A71680917B
:101B6000BB049091BC0401979093BC048093BB0488
:101B7000892B99F48091E40280688093E4020DC07F
:101B800080E08ADEE091B804EF70F0E0EF5CFB4F9C
:101B900080810E94A7160E94541C8091B8048F5F18
:101BA0008093B8048091BA04843019F086EE95E0F1
:101BB000089580E99FE00895CF93DF93382FDC01EB
:101BC00080E090E041E850E12A2F231B2617C8F45B
:101BD0002D912927E22FEF70F0E0EE0FFF1FE75560
:101BE000FE4FC591D49122952F70249FF001259F1F
:101BF000F00D1124982F88278E279F278C279D274B
:101C0000E3CFDF91CF910895CF93C82F6091B604B1
:101C10008CE00E94631B68E088E10E94631BC11195
:101C200003C06091300301C063E089E00E94631B40
:101C300065E087E0CF910C94631B8F929F92AF92E7
:101C4000BF92CF92DF92EF92FF920F931F93CF93A9
:101C5000DF93C091E901D091EA01CA3E23E0D207A7
:101C600009F4D9C058F4C83E93E0D90709F48EC0EE
:101C7000C93EE3E0DE0709F49BC00AC0CB3EF3E0B7
:101C8000DF0709F4DCC0CC3E23E0D20709F4E3C04F
:101C90008FE246DF0E946D1B8AE30E94591B8091F0
:101CA000BA04282F227081FD02C08DE101C080E2BC
:101CB0008093890483E080938A0481E080938B047D
:101CC0008091300380938C0480912F0380938D0446
:101CD000CE016AE070E00E940D2135E0389FF001EE
:101CE000399FF00D1124E0938E04EF5CFB4F80814F
:101CF00080938F04818180939004828180939104EA
:101D000083818093920484818093930482E0809302
:101D100094048091E70180939504211102C01CE195
:101D200001C01FE1E12EF12CA7014D50510960E0E7
:101D300070E086E994E00E9434216DEF610F8CE839
:101D400094E03ADFF701E757FB4F90831F5FE12FE5
:101D5000F0E0E757FB4F808386E30E94591B809198
:101D600089048F5F5FD58091E40287FF07C088EE0A
:101D700093E09093EA018093E90105C02196D09306
:101D8000EA01C093E90188E293E2A4C180E03CDF6C
:101D90001092B8048091E40280688093E40289EE96
:101DA00093E09093EA018093E90181E090E092C191
:101DB0006091B6048091B704861739F08CE00E94D8
:101DC000631B8091B6048093B704B5D78091B804A3
:101DD000A7DE0E946D1B8AE30E94591B2091B80464
:101DE0008091E80190E0820F911D6FE270E00E9407
:101DF00021218093B80486E30E94591B80918904B5
:101E00008F5F10D58AEE93E09093EA018093E90109
:101E100080E594E15FC16FE282E00E94631B6FE6A0
:101E200080E00E94631B86E30E94591B8BEE93E0C7
:101E30009093EA018093E90188EC90E04BC184E340
:101E40000E94591B8CEE93E09093EA018093E90184
:101E50008CE19CE03FC18BEF0E945D1BC82FCF77C8
:101E6000C093F2018FEF8C0F813138F41092B504DA
:101E70008C2F08D68C2F4AD612C08091B5048F5F64
:101E80008093B504853640F088E08093E802109294
:101E9000B50481E080930B038AE30E94591B809173
:101EA000F101C090BA04D090EE01811113C02091CD
:101EB000EF013091F0012930344060F0D1100AC0B8
:101EC0009091E50290FF06C080E18093F1011092AD
:101ED000ED011FC084FF1DC09091ED01492F50E01E
:101EE000C0FC03C02FE030E002C027E030E0421722
:101EF00053074CF48E5F8F7080618093F1019F5F78
:101F00009093ED0106C01092F1011092F001109231
:101F1000EF018091EF019091F00101969093F00113
:101F20008093EF01EC2DE2709E2EC1FC02C08DE18A
:101F300001C080E2809389048091300380938A04F9
:101F400080912F0380938B0482E080938C04809196
:101F5000E80190E09C0176E0220F331F7A95E1F7CB
:101F60003091B804232B20938D04959587959595F2
:101F7000879580938E048091E70180938F04009170
:101F8000F1010093900410929104B090ED01F9E8F2
:101F9000EF2EF4E0FF2EA8E08A2E8D0C1D2D00718F
:101FA000BFE0AB2E002341F08B2D8127877021F4F9
:101FB0008B2D4ADCEC0117C0E12FF0E0EE0FFF1F84
:101FC000E854FD4F80819181A89EE001A99ED00D2B
:101FD000112464E0D695C7956A95E1F7C05CDF4FA0
:101FE000183008F0D86021E0210F002339F08B2D44
:101FF0008227877019F48B2D27DC17C0E22FF0E0C1
:10200000EE0FFF1FE854FD4F40815181A49EC00197
:10201000A59E900D112444E0969587954A95E1F789
:10202000805C9F4F283008F098601E5FF701C187E1
:102030003D2F3F70282F2295207F232B228724E0DD
:10204000969587952A95E1F7838783E0E80EF11C42
:102050001811A8CF80910A03E0E18E9FC0011124DE
:102060009091E802892B80939E04C0FE03C01092D9
:10207000EE0104C088E0D826D092EE01911002C093
:10208000CCE101C0CFE1EFE9F4E086E111928F5F8E
:10209000C813FCCF6DEF6C0F8CE894E08DDDEC2F56
:1020A000F0E0E757FB4F9083CF5FEC2FF0E0E7576E
:1020B000FB4F80838091E802883021F08F5F83702E
:1020C0008093E80289EE93E09093EA018093E9011E
:1020D00084EF91E0DF91CF911F910F91FF90EF90EE
:1020E000DF90CF90BF90AF909F908F9008950F9307
:1020F0001F93CF93DF938C01C0E0D0E0FE01E7583F
:10210000FE4F8491F801EC0FFD1F64918C3011F4A7
:102110006091B6040E94631B2196C331D10571F70B
:102120008091B6048093B704C7E5D1E009E711E0D8
:10213000FE018491319664910E94631B22960C17D4
:102140001D07B1F7F8D50E946D1B86E3DF91CF9193
:102150001F910F910C94591BCF93C82F86E991E0E2
:10216000C6DFC11103C06091300301C063E089E0A4
:102170000E94631B65E087E00E94631B86E30E9468
:10218000591B60E08AE00E94631B69E883E20E94B9
:10219000631B8AE3CF910C94591B1F93CF93DF935A
:1021A000C091E901D091EA01C83E23E0D20708F0CE
:1021B00062C081E18093890483E080938A0421E0F6
:1021C00020938B048091300380938C0480912F03A3
:1021D00080938D04CE016AE070E00E940D2135E00D
:1021E000389FF001399FF00D1124E0938E04EF5CCD
:1021F000FB4F808180938F04818180939004828142
:1022000080939104838180939204848180939304CA
:1022100010929404109295041092960410929704D0
:10222000109298041092990420939A0486E30E94D5
:10223000591B60E08AE00E94631B69E883E20E9408
:10224000631B8AE30E94591B809189048F5FEAD245
:102250008091E40287FF07C088EE93E09093EA0143
:102260008093E90105C02196D093EA01C093E9016A
:1022700088E293E21EC1C83E83E0D80791F48AEE5B
:1022800093E09093EA018093E90180E065DF10928A
:10229000EC011092EB018091E40280688093E402EB
:1022A0000FC0CD3ED34061F484E30E94591B89EEF8
:1022B00093E09093EA018093E90180EF93E2F9C003
:1022C0008091EB019091EC0101966CEB70E00E9423
:1022D0000D21D82F192F8093EB019093EC01809161
:1022E000E9019091EA018C3E23E0920729F56FE223
:1022F00082E00E94631B6FE680E00E94631B86E31E
:102300000E94591B8D2F912F6FE270E00E940D21CA
:10231000FC01EF5CFB4F60818AE00E94631B69E86F
:1023200083E20E94631B8DEE93E09093EA01809319
:10233000E90184E195E0BDC0893E934051F58BEF02
:102340000E945D1BC82FCF77C093F2018FEF8C0FD7
:10235000843170F48C2F96D3EC2FF0E0EE59FB4FC4
:10236000808187FF13C01092B5048C2FCFD30EC08D
:102370008091B5048F5F853618F48093B50406C04C
:102380001092B50410922C0310926904D4D40E94C8
:102390006D1B86E30E94591B8D2F912F6FE270E019
:1023A0000E940D21FC01EF5CFB4F60818AE00E94DE
:1023B000631B6091B6048091B704861739F08CE0F6
:1023C0000E94631B8091B6048093B70469E883E29E
:1023D0000E94631B8AE30E94591B81E18093890458
:1023E0008091300380938A0480912F0380938B0423
:1023F000D0938C0480910C0380938D0481E08093B2
:102400008E041092930410929404109299041092E6
:102410009A04A8EBB2E0E9E8F4E040E050E01FE005
:102420008D919D91189FB001199F700D1124C4E0EA
:1024300076956795CA95E1F7665F7A4F242F2170EC
:10244000872F9927443038F46683EA01D595C795DC
:10245000CD56DB4F07C06087EA012497D595C79515
:10246000C756DB4F8F70992730E0220F331F220FA2
:10247000331F01C0880F2A95EAF79881892B88833A
:102480004F5F5F4F31964830510551F68091890476
:102490008F5FC8D18091E9019091EA0101969093F4
:1024A000EA018093E9018C3E934009F0E1CE8CE48F
:1024B0009DE1DF91CF911F9108950F931F93CF93CB
:1024C000DF9340912D03477020912E03223010F4AA
:1024D0002E5F03C02A3E08F0275E822F6FE20E9423
:1024E0000121911101C02F5F40933104C2E3D4E078
:1024F000E1E030E00BEE10E0C901840F911DB8015E
:102500000E942121482F882321F08A3511F08C3D2B
:1025100009F48F5FEF3208F080E08993EF5FE233D8
:1025200059F7DF91CF911F910F910895E82FF0E0B7
:10253000EE0FFF1FE854FD4F808191819C01220F17
:10254000331F220F331F820F931F55E096958795F7
:102550005A95E1F78132910530F0803221E09207FF
:1025600020F48052089580E008958FEF08950F932E
:102570001F93CF93DF93D82F0091BA04013011F449
:1025800084E101C083E18093890430912D0330936D
:102590008A0420912E0320938B0490912F03909313
:1025A0008C048091300380938D04230F920F890F48
:1025B000809391048AE0E2E9F4E0DF011D928A95BC
:1025C000E9F7DD2341F010928E0410928F0481E030
:1025D00080939004A3C01091B80410938E0483E0FC
:1025E000809390044CEB50E064E470E063DAC82F11
:1025F0008093F3010130D1F088E080938F0482E072
:1026000095DF8093920480E28093980480939904EC
:10261000C13820F480E88C1B8093F3018091F30192
:102620008F77813029F51092F30122C09091B50483
:10263000111102C088E001C080E1891B80938F04E2
:102640004BEB50E063E470E082E034DA8093920474
:1026500080E4809398048093990481E88C0F833000
:1026600020F0C150C093F30103C08FE78093F301C2
:102670008091F301809393044BEB50E063E470E0AE
:1026800081E018DA809394044BEB50E063E470E04F
:1026900080E010DA8093950480E280939604809322
:1026A00097042091B904922F917021FD02C030E06F
:1026B00001C038E0822F8071892B8460922F907244
:1026C000892B382B30939A0422FD02C080E001C090
:1026D00080E423FD02C090E001C090E8982B26FD25
:1026E00002C080E001C080E2982B822F881F8827DB
:1026F000881F8295807F892B80939B042091D00234
:102700003091D1022031B3E03B0710F4886004C05F
:102710002135344018F0846080939B0480919204AA
:10272000E3E9F4E02CE934E09191890F2E173F079B
:10273000D9F780939C0481E08093800462E080E07C
:10274000F6D48091BA048130A9F0DD2319F06091AC
:1027500031040AC0E091B80481E08E0F8093B80480
:10276000F0E0EF5CFB4F608185E0E1D48091B8043C
:10277000837022C0D1110CC0E091B504F0E083E079
:10278000F595E7958A95E1F7EF5CFB4F608101C015
:1027900069E485E0CCD4D11111C08091B5048F5F7C
:1027A0008093B504803128F01092B5041092B804DB
:1027B00005C0883018F081E08093B80460E787E0B6
:1027C000B6D481EE92D484E18AD0DF91CF911F916B
:1027D0000F91B8C4CF93C62F2998806877D48C2FD7
:1027E00075D4299ACF910895FF920F931F93CF9399
:1027F000DF93F82E092F162F5F988FE767D4CF2D20
:10280000D02FCE01810F911D8C01C017D10719F077
:1028100089915CD4FACF5F9ADF91CF911F910F918C
:10282000FF900895CF93C82F8BE343D76C2F89E88F
:1028300094E0DADF85E3CF913CC760918704677D40
:1028400060938704862F90E0959587958370809399
:10285000030186E06CC40F931F93CF93DF938C0129
:10286000289880E333D4E8010B5F1F4F89912ED461
:10287000C017D107D9F7289ADF91CF911F910F91F7
:1028800008950F931F93CF93DF9300D000D01F9232
:10289000CDB7DEB78C0185E0ECE1F1E0DE01119609
:1028A00001900D928A95E1F785E08093860463E0BC
:1028B00083E03DD4CE010196CEDF85E0F801A1E8AA
:1028C000B4E001900D928A95E1F70F900F900F9070
:1028D0000F900F90DF91CF911F910F910895AF92BC
:1028E000BF92DF92EF92FF920F931F93CF93DF93EC
:1028F000CDB7DEB7A0970FB6F894DEBF0FBECDBF41
:1029000030918604343020F495E5998351E001C07C
:1029100050E070910201E32FF0E08F0100581B4F4F
:10292000A1E2AA2EA1E0BA2E20E0922F950F321735
:10293000C9F0D8014C91EE24E394F12CEC0EFD1E6D
:10294000E90EF11CD7014C93772329F0D5019C9116
:102950004927D7014C932F5F01501109BFEFAB1AE4
:10296000BB0AE3CFAF014F5D5E4F09E814E0682F6B
:10297000690F961721F1A92EB12CD801ED908D0188
:10298000B8E0FB2E20E0220FBE2DB1702B2BE69479
:10299000FA94F110F8CFEE24E394F12CEC0EFD1E26
:1029A000AE0CBF1CD5012C93772329F0DA01FC90E3
:1029B0002F25D5012C939F5F4F5F5F4FDACF90910A
:1029C0008004992309F444C091E0343008F090E089
:1029D00022ED35EB9617D0F4A1E0B0E0AC0FBD1FAF
:1029E000A90FB11D4C91342749E0415069F0D9013C
:1029F000AA0FBB1F37FF06C09D0151E2252750E1FA
:102A00003527F3CF9D01F1CF9F5FE4CF90E033975F
:102A1000E80FF91FEE0FFF1F772319F0E15FFD4F5D
:102A200002C0E753FE4F8591949128273927E1E0B2
:102A3000F0E0EC0FFD1FE60FF11D308381E0860F03
:102A4000E1E0F0E0EC0FFD1FE80FF11D6E5F208369
:102A5000CE0101964ED3A0960FB6F894DEBF0FBEFE
:102A6000CDBFDF91CF911F910F91FF90EF90DF903D
:102A7000BF90AF900895289880E528D383E726D3A8
:102A8000289A08950F931F93CF93DF93D82F5F98C1
:102A90008FEF1CD303E614E0C0E0DC1731F00BD35A
:102AA000F80181938F01CF5FF8CF5F9ADF91CF91CB
:102AB0001F910F910895EF92FF920F931F93CF9361
:102AC000DF93C1E3D4E002E313E08AE0E82E8EE076
:102AD000F82E86E3EED56991862F880F680F8AE07D
:102AE000F2D583E3E6D5C7010197F1F785E2E5D595
:102AF000F80181938F01F4E0C533DF0751F7DF91CF
:102B0000CF911F910F91FF90EF900895CF93DF9396
:102B100020916404909130032913FFC02091650433
:102B200090912F032913F9C060916304C3E0C60F8D
:102B3000C813F3C080912C03816080932C03D0E0F4
:102B4000FE01EF59FB4F8081805880932B03FE01DB
:102B5000EE59FB4F80818F7780932A0323E0AE01EB
:102B600042505109822F90E08417950754F4FC01DC
:102B7000E35FFC4FDC01AD59BB4F8C9180832F5F2D
:102B8000F1CF809113038150309188048A3018F579
:102B9000333019F59091140380910C03292F2827C5
:102BA0002F7199F487FF08C02091B204982F9F716C
:102BB000921711F020E801C020E090E001968F719B
:102BC0009927822B80930C0308C09F719093B204C5
:102BD000806880930C031092130310920B033F3014
:102BE00009F09BC0645086E694E00E94DC0D492FFA
:102BF0005527FE01E15AFB4F208130E04217530771
:102C000009F08BC09927C05ADB4F288130E082172A
:102C1000930709F082C090916804892F8F708830E3
:102C200069F480930A03109209031092E90210924A
:102C3000F1021092F9021092010367C080910A0319
:102C4000292F2827237081F540916904282F2370AC
:102C500098E0299F90011124F901E751FD4F473079
:102C600068F44183AAE6B4E0F901E551FD4F90E034
:102C7000491729F05D9151939F5FFACF1182F901B5
:102C8000E751FD4F91E090838F5F837080930A033B
:102C90008091B10487FF39C0980F937090930A0315
:102CA0008F778093B10431C010921303282F30E046
:102CB0002F5F3F4F292723703327232B11F5937064
:102CC0005091690448E0949F90011124F901E75163
:102CD000FD4F573068F45183AAE6B4E0F901E5519D
:102CE000FD4F40E0541729F06D9161934F5FFACF8B
:102CF0001182F901E751FD4F41E0408390689093C4
:102D0000B1048370846080930A03809112038295DA
:102D10008F70883011F41092E802DF91CF910895FE
:102D200060E787E004D26EE080E001D282E092E0CA
:102D30000197F1F708956FE280E0C5D46FE682E075
:102D4000C2C463E38BE0A6D561E38CE0A3C51F9307
:102D5000CF93DF93182F5A9880EEB8D185E0B6D183
:102D6000C9E8D4E08991B2D184E0CE39D807D1F74F
:102D70005A9A80918804813019F080EA76D5E1DF93
:102D8000612F8FE087D580EDDF91CF911F916DC5C9
:102D90001F920F920FB60F9211248F939F93EF9370
:102DA000FF938AB5833010F08EB301C08BB580FFDE
:102DB00002C0599A01C0599886959AB5933010F07F
:102DC0008EBB01C08BBD8AB581508ABD811126C0E2
:102DD0009091F4018091F5019817C9F0E091F50107
:102DE000F0E0EC50FE4F82818EBBE091F501F0E007
:102DF000EB50FE4F82818BBD8091F5018E5F803C50
:102E000008F080E08093F5018AE08ABD07C0109247
:102E1000B60280916E008E7F80936E00FF91EF91DD
:102E20009F918F910F900FBE0F901F9018951F923A
:102E30000F920FB60F9211248F939F93EF93FF93EE
:102E40008BB580FF02C0599A01C0599886958BBDF9
:102E50008AB581508ABD811134C08091E5028871A4
:102E600041F59091F4018091F501981711F1E091ED
:102E7000F501F0E0EC50FE4F82818EBBE091F50150
:102E8000F0E0EB50FE4F82818BBD8091F5018E5FAB
:102E9000803C08F080E08093F50188E08ABD88B529
:102EA000885D87BD87B5805688BD80916E00826041
:102EB00005C01092B60280916E008B7F80936E00E9
:102EC00003C088B58C5E88BDFF91EF919F918F9173
:102ED0000F900FBE0F901F9018951F920F920FB674
:102EE0000F9211248F938EB380FF02C0599A01C0B4
:102EF000599886958EBB8AB581508ABD811108C0CC
:102F000080916E008D7F80936E0083E08ABD03C048
:102F100087B58C5E87BD8F910F900FBE0F901F906D
:102F200018958095282F30E0A901440F452F441FA4
:102F3000550B9091B702911111C0426094E0359504
:102F400027959A95E1F72827922F96959695292708
:102F5000922F990F29272270242702C0242F2E6F29
:102F60009091F4019E5F903C08F090E03091F50163
:102F7000931781F0E091F401F0E0880F8160EC504C
:102F8000FE4F8283E091F401F0E0EB50FE4F22838C
:102F90009093F4018091E502887109F443C6089585
:102FA000CF93DF93C091BF04CC2319F0C13059F106
:102FB0003CC08091BD048F5F8A3F18F48093BD04AC
:102FC00002C01092BD048091BE0491E0980F9093CE
:102FD000BE04C091BD04811102C0C09363046C2F74
:102FE0008AE071D3EC2FF0E0EE5CFC4F608185E26B
:102FF0006AD38AE35ED384E35CD381E08093BF0429
:103000008CE291E014C01092BF04D091BE0484E71A
:1030100054D3ED2FF0E0ED59FB4F80588083D5302D
:1030200021F4C0932C031092BE048EE190E0DF9156
:10303000CF910895CF93DF938091E40287FF03C07F
:1030400080E095DA13C0C091BB04D091BC042097F6
:1030500031F480688093E4021092B50407C081E0E7
:1030600086DA2197D093BC04C093BB048091B3044B
:103070009091B404DF91CF910895CF93DF93D82F2F
:10308000C62F8DE44EDF80E54CDF8D2F4ADF8C2F7D
:10309000DF91CF9146CFCF93DF9369E083E0EDDFFF
:1030A000C0ECD4E089913DDF84E0C93CD807D1F77A
:1030B000DF91CF91089598E080E0880F4E9981606C
:1030C0005C9A00005C989150C1F708955C985D98F7
:1030D00098E087FF02C05D9A01C05D985C9A880FF6
:1030E0005C989150B1F75D9A08952898EFDF289A7F
:1030F0000895FF920F931F93CF93DF93F82E092F1C
:10310000162F289880EAE2DFCF2DD02FCE01810F35
:10311000911D8C01C017D10719F08991D7DFFACF23
:10312000289ADF91CF911F910F91FF900895CF932F
:10313000C62F28988F718062C9DF8C2FC7DF289A2D
:10314000CF910895CF938091E40287FF02C0C3E03E
:1031500001C0C0E083FDC0E080910301C81761F0A9
:1031600060918704697F8C2F880F682B6093870498
:1031700086E0DDDFC0930301CF910895AF92BF9247
:10318000CF92DF92EF92FF920F931F93CF93DF9333
:10319000CDB7DEB7A0970FB6F894DEBF0FBECDBF98
:1031A000E82E82E0C3D9F82E8093890483E0BED94B
:1031B00087FD03C09FE7981B892F80938A0480E4D2
:1031C00080938D0481E0B2D987FD03C09FE7981BEF
:1031D000892F90E8980F90938B041091B904512F88
:1031E0005071D52E14FD14C02091D2023091D3021B
:1031F0002135344068F4292F30E097FF02C0C9011F
:1032000004C08FE790E0821B930B9595879501C0D2
:1032100080E480938E0480E089D987FD03C09FE716
:10322000981B01C0982F90938C04D11014C020914A
:10323000D2023091D3022135344068F4292F30E096
:1032400097FF02C0C90104C08FE790E0821B930B77
:103250009595879501C080E480938F0480912D031C
:103260008093900480912E038093910480912F038A
:1032700080939204109293041092940410929504F7
:103280001092960480EC809397040091BA04033066
:1032900071F030F4002391F1013009F46EC08AC05E
:1032A000053029F058F1063009F084C027C080911C
:1032B000B5048F5F8093B50484FF1DC0812F881FE4
:1032C0008827881F880F880F2091CE023091CF0267
:1032D0002031334008F488E02091D0023091D102AF
:1032E000213554E0350710F0805F06C020313340AF
:1032F00018F4805E01C080E0809393048091930471
:1033000015FF02C092E001C090E021E0D11001C0A1
:1033100020E0292B280F20939304E1106BC0812F0C
:103320008170846012FF02C098E001C090E0892B98
:1033300013FF02C090E101C090E0982B312F327052
:1033400011FD02C080E201C080E0892B80939704C8
:10335000063051F4332311F090EA01C090E2292B9A
:10336000209393048B7D44C0053009F043C0206452
:10337000209393048B7D832B3BC011FD02C082E020
:1033800001C080E08093930415FB882780F9809327
:103390009404E1102FC010FF02C096E001C092E03B
:1033A00016FF02C080E101C080E0892BDD20F1F032
:1033B00090E21DC011FD02C082E101C080E116FB58
:1033C000992790F9892B80939304E11013C010FF83
:1033D00002C096E001C092E012FF02C088E001C086
:1033E00080E0892B13FF02C090E101C090E0892B9F
:1033F00080939704EAE8F4E08191F80E54E0E8390C
:10340000F507D1F7F0929804E091B804EF5FE093EC
:10341000B804E695802F8D7F843009F0ABC00E2F65
:1034200010E0F801EF5CFB4F6081862F880F680F7A
:103430008AE049D1F801EE5CFC4F608185E243D11E
:103440006091B6048091B704861721F06093B704A9
:103450008CE039D142D1F0908604AF2CB12C309160
:103460000201B5016F577B4F8E010F5F1F4F41E285
:1034700051E0F1E8CF2EF4E0DF2ED801C616D706D2
:1034800071F0FB018291BF018C93332321F0FA018B
:10349000908189278C9311964F5F5F4FEFCF69E83A
:1034A00074E0A5014F5D5E4F20E12F0D9F2DA92FE8
:1034B000B0E0FB01D190BF01E8E0EE2E80E0880F84
:1034C000FD2DF1708F2BD694EA94E110F8CFA00F68
:1034D000B11F8C93332321F0FA01E0808E258C9369
:1034E0009F5F4F5F5F4F9213E2CFD80182ED95EB64
:1034F0004A2F401B421790F44D91942749E04150C8
:10350000B9F3BC01660F771F97FF06C0CB01F1E24C
:103510008F27F0E19F27F3CFCB01F1CFF5013D9647
:10352000EE0FFF1F332319F0E15FFD4F02C0E75399
:10353000FE4F4591549184279527F801E20FF11D24
:10354000908391E19F0DF801E90FF11D808386E3DF
:10355000B0D08BE3AED065E16F0D8FE3B4D063E004
:103560008FE691E041D962E16F0DC8013DD985E355
:10357000A0D01EC0F0E0EF5CFB4F608185E0D7DD9E
:1035800060E787E0D4DD81EEB0DD033011F0053077
:1035900031F4C6DB60E189E894E0ABDD08C081E08E
:1035A0008093800462E080E0C2DD80E198D9CADDCA
:1035B0008091B80487708093B804A0960FB6F894F1
:1035C000DEBF0FBECDBFDF91CF911F910F91FF9056
:1035D000EF90DF90CF90BF90AF9008958091E4027C
:1035E00087FF02C080E061C02091BB043091BC0421
:1035F0002115310509F052C08091BA04843071F070
:1036000048F4882309F444C0833061F584E0E3E79B
:10361000F1E021C08530E1F0863021F58091300362
:103620008F7090E0880F991FFC01EF59FD4FE491D6
:10363000E0933104E05FE0933304FC01EE59FD4F69
:10364000E491E0933204E05FE093340434DA20C084
:1036500084E0E8E7F1E0A1E3B4E001900D928A95FF
:10366000E1F716C08091300363E0CBD5A1E3B4E06D
:1036700044E0949FC0011124F901E80FF91FEB5AAF
:10368000FD4FE491ED932F5F3F4F24303105A1F7BB
:103690008091E40280688093E40208C021503109DF
:1036A0003093BC042093BB0481E068DD80EA9FE096
:1036B00008955F980BDD5F9A08955F98806806DD36
:1036C000FADC5F9A0895CF93C62F5F98FFDC000065
:1036D0008C2FFCDC5F9ACF910895CF938091E40208
:1036E00087FF02C0CFEF01C0C0E583FDC0E5809138
:1036F0000301C81729F06C2F8EE3E5DFC0930301A7
:10370000CF910895EFB7F89420918400309185000F
:10371000EFBF8091330590E040913405509135051D
:10372000841B950B820F931F482F417040933305E4
:103730009695879540912F05509130056091310500
:1037400070913205F894480F591F611D711D409307
:103750002F055093300560933105709332053093F7
:10376000350520933405EFBF20912D0530912E05AE
:10377000820F931F80382EE3920720F080589E43DB
:1037800020E101C020E080343FE1930718F0285F7A
:1037900080549F41803A3FE0930718F02C5F805A95
:1037A0009F40803D37E0930718F02E5F805D974083
:1037B000883E33E0930718F02F5F885E9340409176
:1037C0000605509107056091080570910905420FA3
:1037D000511D611D711D40930605509307056093AF
:1037E00008057093090590932E0580932D0560912F
:1037F0002F05709130058091310590913205089523
:10380000CF92DF92EF92FF92CF93DF936B017C0117
:1038100079DFEB01C114D10461F074DF6C1B7D0B07
:10382000683E7340B8F381E0C81AD108C851DC4F34
:10383000F1CFDF91CF91FF90EF90DF90CF9008957F
:1038400080E337DF61E070E080E090E0D9DF6FE295
:1038500082E039DF6FE280E036DF8EE02EDF91E03C
:10386000843C09F090E0892F08955A982FDC5A9AE9
:1038700008955A9880642ADC559898E080E0880F73
:103880004D9981605C9A00005C989150C1F7559AFF
:103890005A9A0895CF93C62F5A9818DC00008C2F9F
:1038A00015DC5A9ACF910895CF938091E40287FF57
:1038B00002C0CFE101C0C0E083FDC0E08091030100
:1038C000C81729F06C2F88E2E5DFC0930301CF9180
:1038D00008951F920F920FB60F9211242F934F93BA
:1038E0005F936F937F938F939F93AF93BF93EF9368
:1038F000FF9380912C0590918400E82FF0E0E45F25
:10390000FA4F90838F5F80932C05803208F4CDC0EE
:10391000ECE0F5E021918091D8029091D902A0913C
:10392000DA02B091DB02820F911DA11DB11D8093BF
:10393000D8029093D902A093DA02B093DB0280916F
:10394000D8029091D902A091DA02B091DB024091A5
:10395000D8025091D9026091DA027091DB022AE01C
:10396000880F991FAA1FBB1F2A95D1F7840F951F97
:10397000A61FB71F8093D8029093D902A093DA02B2
:10398000B093DB028091D8029091D902A091DA0223
:10399000B091DB024091D8025091D9026091DA02D5
:1039A0007091DB0226E0B695A795979587952A95A5
:1039B000D1F784279527A627B7278093D80290931D
:1039C000D902A093DA02B093DB0285E0EC32F8076B
:1039D00009F0A0CF8091D8029091D902A091DA028B
:1039E000B091DB024091D8025091D9026091DA0285
:1039F0007091DB0223E0880F991FAA1FBB1F2A9535
:103A0000D1F7840F951FA61FB71F8093D8029093FC
:103A1000D902A093DA02B093DB028091D802909190
:103A2000D902A091DA02B091DB024091D802509104
:103A3000D9026091DA027091DB02EBE0B695A795AE
:103A400097958795EA95D1F784279527A627B727D5
:103A50008093D8029093D902A093DA02B093DB024C
:103A60008091D8029091D902A091DA02B091DB0244
:103A70004091D8025091D9026091DA027091DB0234
:103A8000FFE0880F991FAA1FBB1FFA95D1F7840F7B
:103A9000951FA61FB71F8093D8029093D902A093B9
:103AA000DA02B093DB0210926000FF91EF91BF91B8
:103AB000AF919F918F917F916F915F914F912F91D6
:103AC0000F900FBE0F901F9018950F931F93EDE26C
:103AD000F3E090838183072F182F292F3327028348
:103AE0006383007F6F70602B64831F910F91089533
:103AF0001092C50099E09093C4001092C0009EE21D
:103B00009093C2009091C00097FF03C09091C600AF
:103B1000F9CF90E99093C10010926E00599890915E
:103B2000C100977F9093C1001092B70214BC92E03D
:103B300095BD8823A1F01092C50081E28093C40056
:103B40008091C2008F7D8093C2008091C1008F77E9
:103B50008093C1008091C00082608093C00008956E
:103B60006FDE60E080E096DE61E070E080E090E093
:103B700047DE63E38BE08EDE63E38CE08BDE80E187
:103B800078DE80EA72DE459A8AE891E0FC0131979E
:103B9000F1F745980197F1F761E08DE10E94EA1392
:103BA0008AE193E00197F1F760EC8CE00E94EA1360
:103BB00064E08DE00E94EA1380918804883221F04D
:103BC00064E28FE00E94EA1360E08EE00E94EA1354
:103BD000299880E17BDA6FDA299A0E943B1560E030
:103BE0008CE1A5DA60E08DE1A2DA0E943B1581EE5E
:103BF0007CDA82EE7ADA8FEF78DA289887E066DA74
:103C00005ADA289A68E080E092DA8AE891E001972F
:103C1000F1F764E670E080E090E0F2DD8DEF8093F4
:103C2000030108958091E502887149F5F894809127
:103C3000B602811123C078941BBC8091B702811118
:103C400012C091E09ABD86B5885D88BD88B58E5258
:103C500087BD86E085BB80916E00846080936E0096
:103C60009093B602089581E08ABD85BB90916E0065
:103C7000916090936E008093B602089578940895B1
:103C800078941F920F920FB60F9211242F933F93A7
:103C90004F935F936F937F938F939F93AF93BF9354
:103CA000EF93FF9381E080930B05EFE6F0E08081D6
:103CB0008B7F8083B7DFFF91EF91BF91AF919F9191
:103CC0008F917F916F915F914F913F912F910F90C5
:103CD0000FBE0F901F9018951F920F920FB60F9264
:103CE00011242F933F934F935F936F937F938F9301
:103CF0009F93AF93BF93EF93FF938091C1008F7712
:103D00008093C10078948091C0008C7151F4E0914F
:103D10000A05EE2399F180910B05813009F05AC014
:103D20002DC08091C60080930A0581E080930B0529
:103D300080910B05813059F480916F008B7F8093C7
:103D40006F008091E5028F7E8093E5026BDFF8942F
:103D50008091C10080688093C100FF91EF91BF9175
:103D6000AF919F918F917F916F915F914F913F9113
:103D70002F910F900FBE0F901F90189510920A056B
:103D800010920B058091E5028B7F8093E502909164
:103D9000C6009093EC049091EC049C7F943541F61E
:103DA00080618093E50280918400909185008C5918
:103DB000964E90938B0080938A0084E086BB80911E
:103DC0006F00846080936F0080910A058F5F8093FD
:103DD0000A05AECF81E08E0F80930A05F0E0909146
:103DE000C600E451FB4F90838A3108F4A1CF809143
:103DF000E50281FD0FC08AE1ECEEF4E0A2EDB4E053
:103E000001900D928A95E1F78091E40281608093A0
:103E1000E4028BCF84608093E50287CF789414B856
:103E200017B81AB8559A549A529A579A3D9A219AA5
:103E3000209A399A3A9A519A2A9A2B9A2C9A409A0D
:103E40002D9A1092800082E080938100F89414BE35
:103E50008091600080618093600080E480936000C6
:103E600078945A9A5F9A299A289A5D9A5C9864E69F
:103E700070E080E090E0C4DC8091E4021D9903C012
:103E80008F77806201C080688093E4021092E30221
:103E9000E8EBF2E080E094E08193919322E0E83D4A
:103EA000F207D1F78CEC90E09093BD028093BC02B6
:103EB0002D98259A55DE8091D8029091D902A09133
:103EC000DA02B091DB02892B8A2B8B2BA1F3609154
:103ED000D8027091D9028091DA029091DB026115CB
:103EE00071058105910509F026D189E396E8A2E4E0
:103EF000B5E68093DF029093E002A093E102B093D5
:103F0000E2021092DC021092DD021092DE021092A8
:103F1000880481E0EDDD8FEF9FEF12E02091E60253
:103F20003091E702232BC1F02091E50227FD14C058
:103F30008139914088F4B19B18C0F8948091840035
:103F400090918500909389008093880078940FC0A9
:103F50008091E50287FFEFCF0E945F018091E6022A
:103F60009091E702892BA1F7F7CFB19BFECF80910B
:103F7000E502982F98609093E50285FF09C0E091D3
:103F8000E602F091E702309719F00995EC0102C0C2
:103F9000C0EDD7E08091E502877F8093E50242DEA5
:103FA000C13A8FE0D807C0F0C05DD740F894809147
:103FB0008800909189008056904F9093890080935B
:103FC000880016BB78940E945F01811103C0B19BE9
:103FD000FECFE6CFC0E0D0E0F894809188009091C9
:103FE0008900CC0FDD1FC80FD91FD0938900C09363
:103FF000880016BB809188009091890020918400F0
:1040000030918500821B930B789497FDB0CF86CFBB
:104010008F929F92AF92BF92CF92DF92EF92FF92D8
:10402000CF93DF93EC01688179818A819B8161154F
:1040300071058105910521F464E279ED8BE597E046
:104040002DE133EF41E050E07FD049015A019B015F
:10405000AC01A7EAB1E494D06B017C01ACEEB4EF03
:10406000A501940199D0DC01CB018C0D9D1DAE1DE5
:10407000BF1DB7FF03C00197A109B048888399838A
:10408000AA83BB83BC01CD019F77DF91CF91FF90C5
:10409000EF90DF90CF90BF90AF909F908F9008955A
:1040A0008F929F92AF92BF92CF92DF92EF92FF9248
:1040B00060910401709105018091060190910701C2
:1040C000611571058105910521F464E279ED8BE5B7
:1040D00097E02DE133EF41E050E036D049015A013D
:1040E0009B01AC01A7EAB1E44BD06B017C01ACEEC3
:1040F000B4EFA501940150D0DC01CB018C0D9D1DC6
:10410000AE1DBF1DB7FF03C00197A109B048809342
:10411000040190930501A0930601B0930701BC012F
:10412000CD019F77FF90EF90DF90CF90BF90AF9041
:104130009F908F9008956093040170930501809380
:104140000601909307010895052E97FB16F400943D
:104150000FD057FD05D024D007FC02D046F408C08C
:1041600050954095309521953F4F4F4F5F4F0895A3
:1041700090958095709561957F4F8F4F9F4F0895D3
:1041800031D0A59F900DB49F900DA49F800D911DDF
:1041900011240895B7FFF4CFF3DF821B930B08952A
:1041A000A1E21A2EAA1BBB1BFD010DC0AA1FBB1F3B
:1041B000EE1FFF1FA217B307E407F50720F0A21BAD
:1041C000B30BE40BF50B661F771F881F991F1A941A
:1041D00069F760957095809590959B01AC01BD0144
:1041E000CF010895A29FB001B39FC001A39F700D9E
:1041F000811D1124911DB29F700D811D1124911DEF
:104200000895991B79E004C0991F961708F0961B32
:10421000881F7A95C9F780950895AA1BBB1B51E1A9
:1042200007C0AA1FBB1FA617B70710F0A61BB70B26
:10423000881F991F5A95A9F780959095BC01CD01CB
:10424000089597FB072E16F4009406D077FD08D04A
:10425000E4DF07FC05D03EF4909581959F4F0895CB
:10426000709561957F4F0895DC0101C06D934150B9
:0A4270005040E0F70895F894FFCFE6
:10427A00000801FD01000000A40300000001020380
:10428A000405060708090A0B0C0D0E0F550F710CD1
:10429A0000E3B14BEA85BCE5660DAE8C881269EE87
:1042AA001FC76297D50B79CACC1B5D191024D3DCC2
:1042BA003F8EC52FAA16F3956D6A7777770012227B
:1042CA003242002E363E46000A35423D006D6A7380
:1042DA00737300EEDDCCBB1100C457096521007170
:0E42EA000F5500323E424E0037324742000070
:00000001FF
