:1000000032C100004DC100004BC1000049C10000D9
:1000100047C1000045C100000C94331741C10000E6
:100020003FC100003DC100003BC1000039C10000DC
:100030000C94D71835C1000033C1000031C1000055
:100040002FC100002DC100000C9409190C94D51586
:1000500027C1000025C1000023C1000021C100000C
:100060001FC100001DC10000FF42001400FFFF007F
:1000700000000001210500509E4B0002162B1200CB
:10008000628080000A32C30F13C300FF00003B00F0
:100090001747800301451800010F123456781827BE
:1000A00036454182365784136572876415327684EB
:1000B0001352716284357186435206060C181E0471
:1000C00001FF0A005C76277B6113237A5106060E36
:1000D00018230401FF08005C80007BF803237A5397
:1000E000F84F1CC86E02486A404F1C901C24367A98
:1000F0004061315D37FD4F863C4122EEB39AB2C07C
:10010000442AFED76E3CCDF52BB4BB09003E4547D3
:100110004A949D0B003E43494AD1D000003F4246DD
:100120004ACBCD04004143464A833C6000473E5CD5
:100130002B60004A3C57070000414819161A6C1BF7
:10014000431C401D912156221023A9240A25002674
:100150001129592C882D312E0B0307090002001795
:10016000180607083E0B0C0D0E0F10111213141574
:100170001431404949494949494906060C181904AE
:1001800005FF08005C7627AA3911237A420000890E
:100190001112239B322446AD573665BF74488CC17B
:1001A0009D5AAFD3BE6CCAE5DB7EE9F7F800005F6D
:1001B0003DF1A6233A16AAAF1CB262EBE021080774
:1001C000BE1A5F15AF0A4F24AD485E34ED8C06C9E8
:1001D000F2521836DF9D127CB1F5D5D77098B7333F
:1001E00051DB674ED95B0A45E4A5E6E726ABBD794E
:1001F000C3208E00004834A79BBB8BE1858C3E1E3C
:1002000045E618246BABE728384B8161D494F4039E
:10021000251D698BFEA79B178B20295F8BB16191F0
:10022000D3017438219F12A0B38829CA23CBC06C94
:100230000C29B3A1A0160AD0A90A463A420A3C36B4
:100240003F0A43363F3A352E36323E2E3C2F3B3363
:100250003B333B343E342F393E2E382E362E383A3F
:1002600041323E333F0011241FBECFEFD8E0DEBF46
:10027000CDBF11E0A0E0B1E0E2E5FEE302C00590F1
:100280000D92AE37B107D9F724E0AEE7B1E001C077
:100290001D92A430B207E1F70E94F91C0C94271FAD
:1002A000AFCE8F929F92AF92BF92CF92DF92EF929A
:1002B000FF920F931F93CF93DF9300D000D01F9234
:1002C000CDB7DEB7209121022111FEC08091C60179
:1002D000811142C0109180010E944C168091B80398
:1002E0009091C00097FF17C02091C60090917F01A8
:1002F0009F5F90937F01123040F4111102C08093F0
:100300007E01203329F512E024C0123011F520328D
:10031000D1F713E01EC01123E1F090917E01891BFB
:100320008630B8F080917F01833038F08FEF809372
:10033000C60180E00E9442180CC0133029F4F894E2
:10034000E0E0FFE3099505C010927F0110E001C0D5
:1003500011E010938001B8C08091220280FFB4C0E8
:1003600090912302392F326030932302382F3E7F41
:10037000309322024091850345FF04C038603093DA
:10038000220203C0867F80932202309185038091F0
:10039000220236FF02C0806101C08F7E809322025C
:1003A000309186038091220237FF02C08B7F01C00B
:1003B0008460809322028091F902833011F43DEC35
:1003C00004C08F30E1F3309187033093EB03309119
:1003D000840331FF0AC0309184033D7F309384034E
:1003E00093609093230231E001C030E04091840398
:1003F00090911A0249130C947E0A909185034091C2
:100400001B0294279F7511F00C947E0A509186036D
:1004100090911C0295279F7711F00C947E0A0C9402
:10042000910A809123028D7F809323028091C100E5
:100430008F778093C1008091230282FF11C09AE1DF
:10044000EEE9F3E0A4E8B3E001900D929A95E1F7AC
:10045000909122029160909322028B7F80932302DD
:100460008091C10080688093C100EEEFF1E080E0F0
:1004700090E041E050E0619171916135744038F055
:10048000BA01082E01C0660F0A94EAF7262B0196DE
:100490008830910581F72093EE03809123028062DA
:1004A000809323020E944C168091B8039091B90367
:1004B000A091BA03B091BB038093C2019093C30192
:1004C000A093C401B093C5018091230285FF20C091
:1004D0000E944C168091B8039091B903A091BA0381
:1004E000B091BB034091C2015091C3016091C4011E
:1004F0007091C501841B950BA60BB70B8734910532
:10050000A105B10528F0809123028F7D80932302FD
:100510000E944C168091BB019091BC01A091BD013D
:10052000B091BE014091B8035091B9036091BA03F4
:100530007091BB0384179507A607B70708F03EC064
:100540002091230225FD09C020912102211115C00F
:100550008C509E4FAF4FBF4F25C040912402509109
:100560002502452B31F42D9908C0C296A11DB11D5D
:1005700019C027FF07C02D9911C088519C4FAF4F5C
:10058000BF4F10C08091220287FD2D988091BB0142
:100590009091BC01A091BD01B091BE018C599F4FBB
:1005A000AF4FBF4F8093BB019093BC01A093BD019F
:1005B000B093BE0195B180E2892785B99091F5018C
:1005C0008091F401981708F0805A891B803208F452
:1005D00067C20E944C16C090B803D090B903E09057
:1005E000BA03F090BB038091B3019091B401A09144
:1005F000B501B091B601A7019601281B390B4A0B32
:100600005B0BDA01C901853F9140A105B10508F4F2
:100610004EC08DE40E94151685E00E94151690913B
:10062000230295FB882780F920912102211101C026
:1006300082602091240230912502232B09F197FF3B
:1006400002C0846107C09091220297FF02C08460BB
:1006500001C08C609091F9029F3089F028F49430A9
:1006600051F0973069F40BC09C3149F09E3139F05C
:10067000953131F404C09091EF03913009F4806218
:100680000E94151681E00E94151682E00E94151640
:1006900081E00E9415168CE40E941516C092B301E9
:1006A000D092B401E092B501F092B601F9C1809107
:1006B000F9028F3009F067C1309147028091AD0196
:1006C0009091BF011091A20170E2A8E03A9FA001B1
:1006D0001124FA01E95DFD4F2081222309F45AC05B
:1006E0000181DA01A75DBD4F60E0061709F44BC038
:1006F0002D91913039F018F0923089F01CC02E37CE
:10070000D1F436C02E37B1F12D37A1F08A30A8F4DC
:10071000E82FF0E0ED55FE4F20838F5F0CC08A304C
:1007200060F4E82FF0E0ED55FE4F272720838F5F20
:1007300091E001C092E0883000F11430B0F4912FC4
:10074000990F990F990F23EAE22E21E0F22E28E06B
:10075000290FF701D1907F01E92FF0E0EE57FE4F0E
:10076000D0829F5F9213F5CF1F5F982F20E007C0C4
:1007700021E005C021E090E002C0292F982F6F5F93
:10078000892F922FB2CFFA01E95DFD4F10823F5FB2
:1007900033709BCF9093BF018093AD011093A20162
:1007A0003093470280916A02882371F080914F0252
:1007B00087FF04C08F778093B80104C0880F8F5FD4
:1007C0008093B20110926A020E944C16C090AE0152
:1007D000D090AF01E090B001F090B101DC01CB010D
:1007E0008C199D09AE09BF09813E9E42A105B10544
:1007F00008F4C9C08091810190E0019664E270E044
:100800000E940D1F982F809381012091490222237D
:1008100021F08EE70E941516A2C0863060F428E908
:100820002093F20320E12093F3031092F703109238
:10083000F8031092F9039230A1F0943049F191112C
:1008400031C085E08093F40381EF8093F50382E06B
:100850008093F60383E28093F7038FE08093F8039D
:1008600044C081E08093F40381EF8093F50380918D
:10087000B8018093F603809169028093F703809119
:10088000B7018093F803809168028093F9032DC02B
:100890008093F40381EF8093F5038091B2018093FC
:1008A000F60323C0112309F4B4CF42E851E082EFEC
:1008B00093E0DA012D91FC012193CF01F1E0AA38F8
:1008C000BF07C1F711501093A201112371F0110F4E
:1008D000110F110F80E0181741F0DA0118969C9162
:1008E000FA019193AF018F5FF6CF8EE70E94151644
:1008F0008091F2030E941516F3EFEF2EF3E0FF2E26
:1009000000E010E0DD24D394A0E2CA2E5701D70105
:100910008C9193E8980F923030F48DE70E94151671
:10092000F70180818C250E941516FFEFEF1AFF0A50
:10093000D5018C91F801E80FF11DCF01292F332744
:10094000820F931F8C011127D394F9E0DF1639F041
:10095000F8E0DF12DBCF80958093FA03D7CF809148
:10096000AE019091AF01A091B001B091B101805260
:10097000914DAF4FBF4F8093AE019093AF01A093C5
:10098000B001B093B10190916A0290FF49C080918B
:10099000F9028F3009F444C02EEF2093F203833024
:1009A00089F480914E028093F30380914F028093EB
:1009B000F403809150028093F5039E7F92609093A0
:1009C0006A021DC0982F9F7D923059F08C3149F0FA
:1009D0008E3039F08C3229F0873219F0895282300A
:1009E00070F48091BA018093F3038091B9018093F0
:1009F000F4038091B8018093F50310926A0280910C
:100A000069028093F6038091B7018093F703809188
:100A100068028093F8031092FA031092F90335C02C
:100A200091FF3EC08091F9028330D1F5809151024F
:100A30008823A1F12DEF2093F203873050F026E0B8
:100A40002093F303865080935102926090936A0240
:100A500004C08093F30310926A0280915202809343
:100A6000F403E3E5F2E025EF33E089E592E0BF012E
:100A7000DB014D91BD01D9014D939D01861797076B
:100A8000B9F720916A0221FD03C00E94CF1908C066
:100A9000268121938E179F07D9F7F7CF10926A020C
:100AA0008091220284FF19C09091230296FD15C007
:100AB00020911402309115022139354070F02091B7
:100AC000FA013091FB012E3F310538F48F778260B7
:100AD000809322029064909323028091220284FFEB
:100AE00028C09091230296FF24C0209114023091D7
:100AF000150220313340E8F49F7B909323029091BC
:100B0000F902933031F09F3021F0993111F09C318E
:100B100021F48068809322020CC08091F0039091B0
:100B2000F103039730F082E090E09093F10380931B
:100B3000F00390912202892F827091FFA3C58091CA
:100B4000230287FD87C4109225021092240210927E
:100B5000C1011092C0012D980E9472180E940319C1
:100B60001092BF0110926A0281E0809349021092B4
:100B7000F4011092F50180912302877E8093230275
:100B80002091E70180911D0290911E02A0911F0209
:100B9000B0912002BC01CD01620F711D811D911D1C
:100BA0000E942F18E7ECF1E080E094E081939193AC
:100BB00021E0E73EF207D1F78CEC90E09093CC0176
:100BC0008093CB01809123028160809323020E9455
:100BD0004C168091B8039091B903A091BA03B091DB
:100BE000BB038093BB019093BC01A093BD01B09364
:100BF000BE01419A42989091F9029F3009F490C148
:100C000030F4913069F0933009F459C123C48091D4
:100C10002202923109F4FDC1943209F450C31AC47E
:100C200041985A9886E00E94FE1984E50E94FE19B8
:100C300085E70E94FE1985EC0E94FE198AE20E9457
:100C4000FE195A9A8091F902813019F0E12CF12CA9
:100C500004C078E6E72E70E0F72E00E010E0802F69
:100C6000F701E00FF11F64919091F902913051F476
:100C70009091EF03943031F40E3039F00F3139F0A8
:100C8000003239F06F3F31F407C061E003C06FE11B
:100C900001C06EE10E9414170F5F1F4F0233110550
:100CA000F1F680EA0E94FF1661E082E00E941417CC
:100CB00082E00E9403178111FBCF8091F9028230FC
:100CC00041F063E184E20E9414176BE386E20E9424
:100CD000141760E08FE00E94141762E082E00E9427
:100CE000141782E00E9403178111FBCF85E20E9456
:100CF0000317182F60EA8FE00E94141762E082E069
:100D00000E94141782E00E9403178111FBCF85E235
:100D10000E9403179091F9029932B1F48770612F04
:100D20006770643018F02CEF260F02C024E0261BF9
:100D3000843018F09CEF980F02C094E0981B29179C
:100D400008F4682F68600BC0923061F0913021F098
:100D5000953321F06AE003C068E001C062E085E2FB
:100D60000E9414170E94AE150E941E1780E098E0A2
:100D700090930101809300018091F9028C3151F030
:100D800020F48150823030F05AC4893219F0853312
:100D900009F055C420E030E03093010120930001B8
:100DA0002F5F3F4F8901000F111F36FF04C0015014
:100DB00011096AE401C06BE481E10E941417612FFC
:100DC00082E10E941417602F83E10E94141780EAC9
:100DD0000E94FF1680916E02982F907F913918F033
:100DE000805780936E0240916E02B42FB295BF700F
:100DF000242F2F7030E0359527951091EF0380E078
:100E000090E0220F331F220F331FA42FA1706FE039
:100E100070E0082FAC01FC01F595E795F595E79595
:100E2000E20FF31FE656FF4FE49181FFE295EF706A
:100E3000EE0FFE2FFF0FFF0FEF0F00FF04C0E05B70
:100E4000143091F404C0143079F4EA3041F0E03AFF
:100E500059F4B43030F0B93030F4EDE205C0E1E4DB
:100E600003C0E7E301C0E9E2AA2319F0AB01481B84
:100E7000590B4E555D4F0E2F0B1BFA010083019647
:100E80008031910531F61092ED031092EA038091C2
:100E9000220287FD07C084EC99E09093F1038093D0
:100EA000F00304C01092F1031092F00380E699E081
:100EB0009093C1018093C00186ED9CE0C7C2419828
:100EC000429A0E946B111092EA0310926A021092E9
:100ED0004A021092BA011092B9011092B801109210
:100EE00069021092B701109268028091220287FD78
:100EF00008C081E00E94D10F1092EA011092E9012E
:100F000006C088EE93E09093EA018093E90180E1C6
:100F100097E29093C1018093C0018CEE9FE096C24E
:100F20004198429A60911D0270911E0280911F02A9
:100F3000909120020E942F180E946B111092EA03D8
:100F400022E0822E99249394A92CB92C3FE2C32E3F
:100F5000D12CE12CF12C8091E80181110DC00E946F
:100F60003C1EA50194010E94901EA70196010E94BB
:100F7000901E6093E801EFCF8091EF0381FF03C0E3
:100F80008DEC90E002C08AEB90E0DAD702EA12E042
:100F900080E7E82E82E0F82E9AE0C92E9EE0D92E56
:100FA00086E30E942316D8016D918D018AE00E948C
:100FB0002D1683E30E942316C6010197F1F785E2FF
:100FC0000E942716F70181937F01F2E0023D1F077F
:100FD00039F78091220287FD06C01092EA01109233
:100FE000E90181E007C089EE93E09093EA018093E4
:100FF000E90180E039D588E080932602109248020A
:1010000080E197E29093C1018093C0018DE49DE05F
:101010001DC28F778093220286E990E09093F103BE
:101020008093F0034091EF03443089F060F4411164
:1010300037C080916B02887F80936B0280916E0233
:1010400080936D0249C04530F1F0463049F520915A
:101050006E02822F8F7090E0880F991FFC01E7517C
:10106000FF4FE491E0936B02FC01E651FF4FE491E6
:10107000E0936C02822F8E708E3079F421702F5F96
:1010800020936D0229C083E0E8E0F1E0ABE6B2E036
:1010900001900D928A95E1F71FC010926D021CC05D
:1010A000ABE6B2E020E030E053E080916E02652FC5
:1010B0000E94ED1E892F90E0FC01EE0FFF1FE80F4C
:1010C000F91FE20FF31FE052FF4FE491ED932F5F02
:1010D0003F4F2330310549F785E0E8E4F1E0DE01D8
:1010E000119601900D928A95E1F7411106C084E0B6
:1010F000EEE4F1E0A2EAB2E094C08DEF840F843018
:1011000008F081C084E0E3E5F1E0A2EAB2E00190FA
:101110000D928A95E1F7443009F088C04198429ACF
:101120000E94EA1686E30E94231661E088E00E948E
:101130002D166AE08BE00E942D166091EB038CE087
:101140000E942D166CE58DE00E942D166EE48EE057
:101150000E942D1663EC8FE00E942D166DE880E151
:101160000E942D166BE381E10E942D1660E182E161
:101170000E942D1663E283E10E942D1664EA84E149
:101180000E942D1662E685E10E942D1668E088E136
:101190000E942D166DE189E10E942D166CE18AE115
:1011A0000E942D1667EC8BE10E942D1660E08CE109
:1011B0000E942D1660EB8DE10E942D1666EB81E2F8
:1011C0000E942D166AEE83E20E942D1660E085E2F1
:1011D0000E942D1661E186E20E942D160E94A8153C
:1011E0000E94371681E08093020185E08093F70228
:1011F000FE013196A2EFB2E001900D928A95E1F7DF
:101200000E94691451C084E0E8E5F1E0A2EAB2E08E
:1012100001900D928A95E1F785E0EDE5F1E0DE01C0
:10122000119601900D928A95E1F703C0463009F4BA
:1012300075CF89E08093F8021092030181E08093DA
:1012400002010E949D158091EF03833011F08530DB
:1012500049F463E083E00E942F1ACE0101960E94B8
:10126000391304C0CE0101960E944F1381EE0E94F3
:101270000D1A82EE0E940D1A60E787E00E942F1A75
:1012800060E081E00E942F1A61E082E00E942F1A44
:1012900060E084E00E942F1A60E181E10E942F1A31
:1012A0000E942B130E943A1A1092EA0384E991E1FA
:1012B0009093C1018093C0018DE89CE1C7C08F77F6
:1012C0008093220288EE93E09093F1038093F003E1
:1012D00080916F029091EF03913089F190F09430FA
:1012E00008F06AC083704BE652E0A2EAB2E0F8E090
:1012F0008F9FC001112420E030E0BC016C5F7F4F64
:1013000046C00BE612E0E2EAF2E026E0AFE0EA2EA9
:10131000F12CD8013D918D01832F90E074E09595DB
:1013200087957A95E1F73F70830F911DB7010E9471
:101330000D1F820F8193215F223459F73DC063E076
:101340000E94ED1E4BE652E0A2EAB2E0E6E09E9F6C
:101350009001112480E090E0B9016C5F7F4FFC01A7
:10136000E20FF31FE75DFE4F1491FA011193AF01F5
:10137000823038F4FB01E80FF91FE75DFE4FE4917E
:10138000EC93019611968430910549F715C0FC0144
:10139000E20FF31FE75FFE4F1491FA011193AF01C3
:1013A000FB01E20FF31FE75FFE4FE491ED932F5F28
:1013B0003F4F2430310559F789E08093F8021092AD
:1013C000030181E0809302010E949D158091EF034B
:1013D000813019F483E691E002C089E691E00E9431
:1013E0004F1381EE0E940D1A82EE0E940D1A60E7E3
:1013F00087E00E942F1A60E081E00E942F1A61E0CE
:1014000082E00E942F1A60E084E00E942F1A0E945E
:101410002B130E943A1A8091EF03813049F028F093
:10142000843060F48CE19CE005C088E097E002C065
:101430008CE794E29093E9038093E80384EF91E0D2
:101440009093C1018093C0018CEA99E190932502A9
:1014500080932402909122028091230294FF0EC077
:1014600086FD0CC020911B0227FD08C0209121029F
:10147000211104C08068809323023EC08F7780933F
:1014800023029D7F90932202E090C001F090C10161
:10149000F1E0EF16FDE7FF06B0F08701012F1127FD
:1014A0000695069502501109B80180E090E00E946F
:1014B000CA16102F0027110F110FE01AF10AF0922F
:1014C000C101E092C001F894209184003091850020
:1014D0008091C0019091C101880F991F820F931FC5
:1014E000909389008093880082E086BB78948091F5
:1014F00022028F7D8093220281E0C4C0809122026B
:10150000982F926090932202909123029F7790935C
:1015100023029091850397FD50C084FD4EC08268E0
:101520004EC09091850397FF6AC047FD68C08091C7
:1015300022028F77826080932202809184038093BD
:101540001A028091850380931B0280918603809309
:101550001C02E7ECF1E046EF51E0A7E8B3E08DEFC5
:1015600013E0180F183018F01BEF180F1196BD017B
:101570006F5F7F4F11968D919D910D90BC91A02D25
:10158000012E04C0B695A795979587950A94D2F732
:101590009770332319F09183808303C0DA018D9310
:1015A0009C9332964E5F5F4FB1E0E73EFB0711F42C
:1015B0000C941102DB01812FD3CF8F77826080934F
:1015C000220280918403853511F480E001C080E21D
:1015D000909185039F71890F8093F9028091860312
:1015E00090E044E0959587954A95E1F78770809360
:1015F000EF03809186038F708093E7019ECF9091D7
:10160000850397FD9ACF47FF98CF833031F08F3015
:1016100021F0893111F08C3121F48091220280680F
:101620008ACF8091F0039091F103039708F485CF5E
:1016300082E090E09093F1038093F0037ECF2091BD
:10164000120230911302C901A0E0B0E09C01AD018B
:101650002C5C310941095109A8E5B2E00E94AC1E99
:1016600028E636E040E050E00E94901EDA01C90111
:101670008C529140A109B1099C018115984009F44F
:10168000A6CB8ACB0F900F900F900F900F90DF9109
:10169000CF911F910F91FF90EF90DF90CF90BF906F
:1016A000AF909F908F900895682FE82FF0E0EE0F95
:1016B000FF1FE953FE4F408151814115510599F0BB
:1016C0004F3F87E0580791F08FE0849F9001859FFE
:1016D000300D112484E0369527958A95E1F7C901EC
:1016E000805C9F4F05C080E090E002C08FEF97E0E4
:1016F000683008F098600895CF93DF93811102C09D
:1017000085E501C08AEA8093FA0280916E02809397
:10171000FB0280916D028093FC0280916C028093A9
:10172000FD0280916B028093FE022091EF03CCE0DA
:10173000D1E0EAEFF2E04AE053E068EB7BE0399178
:10174000A32FB0E0AA0FBB1FAA50BE4F8D919C9152
:10175000DC01AA0FBB1FAA0FBB1F8A0F9B1FA3E0B0
:1017600096958795AA95E1F7845A9C4F243031F4D9
:10177000313021F4DB01A81BB90BCD0185839683A1
:1017800032964E175F07D9F6223099F118F42130BE
:1017900089F0BDC0233009F47BC0243009F0B7C004
:1017A00010920D038091ED03B0E18B9FC0011124D5
:1017B0008A60ABC08091EE0380FF05C09091060364
:1017C00090619093060381FF05C09091060390629B
:1017D0009093060382FF05C0909104039068909354
:1017E000040383FF94C08091040380648093040306
:1017F0008EC083E080930703109208038091EE036C
:1018000080FF03C090E89093080381FF05C090918A
:10181000080390649093080382FF05C09091080329
:1018200090619093080383FF05C090910803916035
:101830009093080384FF08C093E890930703909166
:10184000080390629093080385FF05C090910803F8
:1018500098609093080386FF05C0909108039460F8
:101860009093080387FF05C08091080382608093EE
:10187000080380E18093090380930A038AEA809336
:101880000B0380930C0380E680930D0382E03DC040
:101890008091EA038F5F8A3018F48093EA0302C0D4
:1018A0001092EA03809106038062809306031092EF
:1018B0000703109208038091EE0380FF03C090E8B5
:1018C0009093080381FF05C0809108038064809392
:1018D000080387E28093090383E080930A038091E1
:1018E000EA03E82FF0E0E059FE4FE491E0930B03A8
:1018F000811104C082E080930C0302C010920C039B
:1019000010920D0310920E0302C080930E03DF911C
:10191000CF910895CF93DF93EB01DA01E82FF0E048
:10192000EE0FFF1FEA50FE4F20813181243387E004
:10193000380730F42C3C310528F42CEC30E002C0A0
:1019400024E337E0A90160E070E09A01AB012C5C70
:10195000310941095109AC1BBD0B0E94B61E28E696
:1019600036E040E050E00E94901ECE01DD0FAA0B51
:10197000BB0B820F931FA41FB51FDF91CF9108955A
:10198000CF93DF93C82F86E30E942316D0E0FE0199
:10199000E059FD4F608185E20E942D16CE55DD4F46
:1019A00068818AE0DF91CF910C942D1680912202FC
:1019B00087FD16C081E0A0DE81E00E94B415809111
:1019C000F0039091F10301979093F1038093F0035A
:1019D000892B99F4809122028068809322020DC0A5
:1019E00080E08ADEE091ED03EF70F0E0EE55FD4F10
:1019F00080810E94B4150E941E178091ED038F5FB5
:101A00008093ED038091EF03843019F086EE95E02A
:101A1000089580E99FE00895CF93DF93382FDC018C
:101A200080E090E041E850E12A2F231B2617C8F4FC
:101A30002D912927E22FEF70F0E0EE0FFF1FE35703
:101A4000FE4FC591D49122952F70249FF001259FC0
:101A5000F00D1124982F88278E279F278C279D27EC
:101A6000E3CFDF91CF910895CF93C82F6091EB031F
:101A70008CE00E942D1668E088E10E942D16C111AD
:101A800003C060916E0201C063E089E00E942D16E0
:101A900065E087E0CF910C942D168F929F92AF92C4
:101AA000BF92CF92DF92EF92FF920F931F93CF934B
:101AB000DF93C091E901D091EA01CA3E23E0D20749
:101AC00009F4D8C058F4C83E93E0D90709F48EC091
:101AD000C93EE3E0DE0709F49BC00AC0CB3EF3E059
:101AE000DF0709F4D8C0CC3E23E0D20709F4DEC0FA
:101AF0008FE246DF0E9437168AE30E942316809108
:101B0000EF03282F227081FD02C08DE101C080E229
:101B10008093FA0283E08093FB0281E08093FC02D1
:101B200080916E028093FD0280916D028093FE028F
:101B3000CE016AE070E00E94F91E35E0389FF001A6
:101B4000399FF00D1124E093FF02EE55FD4F808187
:101B5000809300038181809301038281809302033B
:101B600083818093030384818093040382E08093C4
:101B700005038091E70180930603211102C01CE157
:101B800001C01FE1E12EF12CA7014D50510960E089
:101B900070E087E093E00E94201F6DEF610F8DEFF2
:101BA00092E03ADFF701E650FD4F90831F5FE12F8F
:101BB000F0E0E650FD4F808386E30E94231680917B
:101BC000FA028F5F3DD58091220287FF07C088EE21
:101BD00093E09093EA018093E90105C02196D093A8
:101BE000EA01C093E90188E293E29DC180E03CDF15
:101BF0001092ED038091220280688093220289EE88
:101C000093E09093EA018093E90181E090E08BC139
:101C10006091EB038091EC03861739F08CE00E9411
:101C20002D168091EB038093EC0392D78091ED0306
:101C3000A7DE0E9437168AE30E9423162091ED0347
:101C40008091E80190E0820F911D6FE270E00E94A8
:101C50000D1F8093ED0386E3F6D78091FA028F5F24
:101C6000EFD48AEE93E09093EA018093E90180E556
:101C700094E159C16FE282E0F0D76FE680E0EDD7E2
:101C800086E3E1D78BEE93E09093EA018093E9013C
:101C900088EC90E048C184E3D6D78CEE93E0909333
:101CA000EA018093E9018CE19CE03DC18BEFCFD745
:101CB000C82FCF77C093F2018FEF8C0F813138F4AA
:101CC0001092EA038C2FECD58C2F2ED611C0809168
:101CD000EA038F5F8093EA03853640F088E08093C3
:101CE00026021092EA0381E0809349028AE3ABD78F
:101CF0008091F101C090EF03D090EE01811113C0EB
:101D00002091EF013091F0012930344060F0D11082
:101D10000AC09091230290FF06C080E18093F101F8
:101D20001092ED011FC084FF1DC09091ED01492F5D
:101D300050E0C0FC03C02FE030E002C027E030E0FC
:101D4000421753074CF48E5F8F7080618093F101CE
:101D50009F5F9093ED0106C01092F1011092F00187
:101D60001092EF018091EF019091F0010196909314
:101D7000F0018093EF01EC2DE2709E2EC1FC02C0B9
:101D80008DE101C080E28093FA0280916E0280931F
:101D9000FB0280916D028093FC0282E08093FD0241
:101DA0008091E80190E09C0176E0220F331F7A9544
:101DB000E1F73091ED03232B2093FE029595879553
:101DC000959587958093FF028091E70180930003AA
:101DD0000091F1010093010310920203B090ED0114
:101DE000FAEFEF2EF2E0FF2EA8E08A2E8D0C1D2DCB
:101DF0000071BFE0AB2E002341F08B2D812787704F
:101E000021F48B2D51DCEC0117C0E12FF0E0EE0F37
:101E1000FF1FEA50FE4F80819181A89EE001A99E9C
:101E2000D00D112464E0D695C7956A95E1F7C05CA2
:101E3000DF4F183008F0D86021E0210F002339F07F
:101E40008B2D8227877019F48B2D2EDC17C0E22F83
:101E5000F0E0EE0FFF1FEA50FE4F40815181A49E3B
:101E6000C001A59E900D112444E0969587954A9552
:101E7000E1F7805C9F4F283008F098601E5FF70103
:101E8000C1873D2F3F70282F2295207F232B22874B
:101E900024E0969587952A95E1F7838783E0E80EFD
:101EA000F11C1811A8CF80914802E0E18E9FC0017B
:101EB000112490912602892B80930F03C0FE03C04A
:101EC0001092EE0104C088E0D826D092EE01911065
:101ED00002C0CCE101C0CFE1E0E1F3E086E1119284
:101EE0008F5FC813FCCF6DEF6C0F8DEF92E094DD28
:101EF000EC2FF0E0E650FD4F9083CF5FEC2FF0E049
:101F0000E650FD4F808380912602883021F08F5F5C
:101F100083708093260289EE93E09093EA01809388
:101F2000E90184EF91E0DF91CF911F910F91FF9034
:101F3000EF90DF90CF90BF90AF909F908F900895DB
:101F40000F931F93CF93DF938C01C0E0D0E0FE018D
:101F5000E35AFE4F8491F801EC0FFD1F64918C3021
:101F600011F46091EB0379D62196C331D10579F74D
:101F70008091EB038093EC03CBE3D1E00DE511E01E
:101F8000FE0184913196649168D622960C171D0744
:101F9000B9F7DED56CD686E3DF91CF911F910F9113
:101FA00052C6CF93C82F8AE791E0CADFC11103C0A0
:101FB00060916E0201C063E089E04FD665E087E082
:101FC0004CD686E340D660E08AE047D669E883E2F3
:101FD00044D68AE3CF9137C61F93CF93DF93C09146
:101FE000E901D091EA01C83E23E0D20708F05EC0C3
:101FF00081E18093FA0283E08093FB0221E0209349
:10200000FC0280916E028093FD0280916D028093AC
:10201000FE02CE016AE070E00E94F91E35E0389FB2
:10202000F001399FF00D1124E093FF02EE55FD4FB2
:10203000808180930003818180930103828180935A
:1020400002038381809303038481809304031092AD
:1020500005031092060310920703109208031092D2
:10206000090310920A0320930B0386E3ECD560E08A
:102070008AE0F3D569E883E2F0D58AE3E4D580917C
:10208000FA028F5FDDD28091220287FF07C088EEBF
:1020900093E09093EA018093E90105C02196D093E3
:1020A000EA01C093E90188E293E211C1C83E83E0EE
:1020B000D80791F48AEE93E09093EA018093E901C6
:1020C00080E06FDF1092EC011092EB018091220210
:1020D0008068809322020EC0CD3ED34059F484E341
:1020E000B2D589EE93E09093EA018093E90180EF05
:1020F00093E2EDC08091EB019091EC0101966CEBC5
:1021000070E00E94F91ED82F192F8093EB01909355
:10211000EC018091E9019091EA018C3E23E0920765
:1021200001F56FE282E099D56FE680E096D586E30F
:102130008AD58D2F912F6FE270E00E94F91EFC016D
:10214000EE55FD4F60818AE088D569E883E285D548
:102150008DEE93E09093EA018093E90184E195E0AC
:10216000B6C0893E934041F58BEF71D5C82FCF772C
:10217000C093F2018FEF8C0F843170F48C2F90D3C9
:10218000EC2FF0E0ED52FD4F808187FF13C01092DD
:10219000EA038C2FC9D30EC08091EA038F5F853686
:1021A00018F48093EA0306C01092EA0310926A02C0
:1021B0001092DA02CDD45BD586E345D58D2F912FD1
:1021C0006FE270E00E94F91EFC01EE55FD4F608148
:1021D0008AE043D56091EB038091EC03861731F0E0
:1021E0008CE03BD58091EB038093EC0369E883E2BC
:1021F00034D58AE328D581E18093FA0280916E027A
:102200008093FB0280916D028093FC02D093FD02CB
:1022100080914A028093FE0281E08093FF02109237
:1022200004031092050310920A0310920B03A6EF09
:10223000B1E0EAEFF2E040E050E01FE08D919D91C7
:10224000189FB001199F700D1124C4E07695679511
:10225000CA95E1F7665F7A4F242F2170872F99275F
:10226000443038F46683EA01D595C795CC5FDC4FDE
:1022700007C06087EA012497D595C795C65FDC4FF4
:102280008F70992730E0220F331F220F331F01C0B8
:10229000880F2A95EAF79881892B88834F5F5F4FD3
:1022A00031964830510551F68091FA028F5FC8D1BE
:1022B0008091E9019091EA0101969093EA0180935F
:1022C000E9018C3E934009F0EECE8CE49DE1DF9174
:1022D000CF911F9108950F931F93CF93DF93409158
:1022E0006B02477020916C02223010F42E5F03C005
:1022F0002A3E08F0275E822F6FE20E94ED1E9111A8
:1023000001C02F5F4093A202C3EAD2E0E1E030E0D7
:102310000BEE10E0C901840F911DB8010E940D1F42
:10232000482F882321F08A3511F08C3D09F48F5F06
:10233000EF3208F080E08993EF5FE23359F7DF91E5
:10234000CF911F910F910895E82FF0E0EE0FFF1F3E
:10235000EA50FE4F808191819C01220F331F220F92
:10236000331F820F931F55E0969587955A95E1F795
:102370008132910530F0803221E0920720F48052C2
:10238000089580E008958FEF08950F931F93CF93E2
:10239000DF93D82F0091EF03013011F484E101C0E5
:1023A00083E18093FA0230916B023093FB0220911B
:1023B0006C022093FC0290916D029093FD0280913B
:1023C0006E028093FE02230F920F890F8093020307
:1023D0008AE0E3E0F3E0DF011D928A95E9F7DD236F
:1023E00041F01092FF021092000381E080930103FC
:1023F000A3C01091ED031093FF0283E080930103CB
:102400004CEB50E064E470E085DAC82F8093F30170
:102410000130D1F088E08093000382E095DF809363
:10242000030380E28093090380930A03C13820F4F8
:1024300080E88C1B8093F3018091F3018F778130CA
:1024400029F51092F30122C09091EA03111102C004
:1024500088E001C080E1891B809300034BEB50E0D2
:1024600063E470E082E056DA8093030380E48093B3
:10247000090380930A0381E88C0F833020F0C15058
:10248000C093F30103C08FE78093F3018091F301C0
:10249000809304034BEB50E063E470E081E03ADAB0
:1024A000809305034BEB50E063E470E080E032DAA8
:1024B0008093060380E280930703809308032091B2
:1024C000EE03922F917021FD02C030E001C038E090
:1024D000822F8071892B8460922F9072892B382BE8
:1024E00030930B0322FD02C080E001C080E423FD95
:1024F00002C090E001C090E8982B26FD02C080E069
:1025000001C080E2982B822F881F8827881F829520
:10251000807F892B80930C0320910E0230910F0253
:102520002031B3E03B0710F4886004C0213534400B
:1025300018F0846080930C0380910303E4E0F3E0DF
:102540002DE033E09191890F2E173F07D9F7809343
:102550000D0381E08093F10262E080E080D78091FA
:10256000EF038130A9F0DD2319F06091A2020AC0C7
:10257000E091ED0381E08E0F8093ED03F0E0EE55E6
:10258000FD4F608185E06BD78091ED03837022C0A1
:10259000D1110CC0E091EA03F0E083E0F595E795F6
:1025A0008A95E1F7EE55FD4F608101C069E485E051
:1025B00056D7D11111C08091EA038F5F8093EA034F
:1025C000803128F01092EA031092ED0305C08830A4
:1025D00018F081E08093ED0360E787E040D781EE5B
:1025E0001CD784E18AD0DF91CF911F910F9142C710
:1025F000CF93C62F2998806801D78C2FFFD6299AB0
:10260000CF910895FF920F931F93CF93DF93F82EEE
:10261000092F162F5F988FE7F1D6CF2DD02FCE013F
:10262000810F911D8C01C017D10719F08991E6D651
:10263000FACF5F9ADF91CF911F910F91FF9008958C
:10264000CF93C82F8BE3FFD26C2F8AEF92E0DADFB3
:1026500085E3CF91F8C26091F802677D6093F8023C
:10266000862F90E09595879583708093030186E08F
:10267000F6C60F931F93CF93DF938C01289880E3C6
:10268000BDD6E8010B5F1F4F8991B8D6C017D1079F
:10269000D9F7289ADF91CF911F910F9108950F9349
:1026A0001F93CF93DF9300D000D01F92CDB7DEB73A
:1026B0008C0185E0ECE1F1E0DE01119601900D92D4
:1026C0008A95E1F785E08093F70263E083E0C7D65F
:1026D000CE010196CEDF85E0F801A2EFB2E00190D5
:1026E0000D928A95E1F70F900F900F900F900F9039
:1026F000DF91CF911F910F910895AF92BF92DF921A
:10270000EF92FF920F931F93CF93DF93CDB7DEB776
:10271000A0970FB6F894DEBF0FBECDBF3091F70281
:10272000343020F495E5998351E001C050E0709178
:102730000201E32FF0E08F010F501D4FA1E2AA2EFE
:10274000A1E0BA2E20E0922F950F3217C9F0D801E0
:102750004C91EE24E394F12CEC0EFD1EE90EF11CDD
:10276000D7014C93772329F0D5019C914927D701B4
:102770004C932F5F01501109BFEFAB1ABB0AE3CF97
:10278000AF014F5D5E4F0AEF12E0682F690F961799
:1027900021F1A92EB12CD801ED908D01B8E0FB2ECE
:1027A00020E0220FBE2DB1702B2BE694FA94F1108D
:1027B000F8CFEE24E394F12CEC0EFD1EAE0CBF1C02
:1027C000D5012C93772329F0DA01FC902F25D50130
:1027D0002C939F5F4F5F5F4FDACF9091F102992367
:1027E00009F444C091E0343008F090E022ED35EB7C
:1027F0009617D0F4A1E0B0E0AC0FBD1FA90FB11D3A
:102800004C91342749E0415069F0D901AA0FBB1F10
:1028100037FF06C09D0151E2252750E13527F3CF50
:102820009D01F1CF9F5FE4CF90E03397E80FF91F50
:10283000EE0FFF1F772319F0ED50FE4F02C0E35556
:10284000FE4F8591949128273927E1E0F0E0EC0FC5
:10285000FD1FE60FF11D308381E0860FE1E0F0E01F
:10286000EC0FFD1FE80FF11D6E5F2083CE01019676
:10287000D8D5A0960FB6F894DEBF0FBECDBFDF91BE
:10288000CF911F910F91FF90EF90DF90BF90AF908D
:102890000895289880E5B2D583E7B0D5289A0895A1
:1028A0000F931F93CF93DF93D82F5F988FEFA6D509
:1028B00004ED12E0C0E0DC1731F095D5F80181930A
:1028C0008F01CF5FF8CF5F9ADF91CF911F910F916A
:1028D0000895EF92FF920F931F93CF93DF93C2EA75
:1028E000D2E000E712E08AE0E82E8EE0F82E86E3E0
:1028F000AAD16991862F880F680F8AE0AED183E351
:10290000A2D1C7010197F1F785E2A1D1F801819326
:102910008F01F2E0C63ADF0751F7DF91CF911F91A7
:102920000F91FF90EF900895CF93DF932091D50200
:1029300090916E022913FEC02091D60290916D02F3
:102940002913F8C06091D402C3E0C60FC813F2C0C7
:1029500080916A02816080936A02D0E0FE01EE52AB
:10296000FD4F8081805880936902FE01ED52FD4F3A
:1029700080818F778093680223E0AE014250510935
:10298000822F90E08417950754F4FC01E55BFD4F1E
:10299000DC01AC52BD4F8C9180832F5FF1CF8091D1
:1029A000510281503091F9028A3018F5333019F50F
:1029B0009091520280914A02292F28272F7199F471
:1029C00087FF08C020918303982F9F71921711F001
:1029D00020E801C020E090E001968F719927822BBA
:1029E00080934A0208C09F7190938303806880930C
:1029F0004A0210925102109249023F3009F09AC0E7
:102A0000645087ED92E008D8492F5527FE01E05326
:102A1000FD4F208130E04217530709F08BC0992702
:102A2000CF52DD4F288130E08217930709F082C032
:102A30009091D902892F8F70883069F48093480271
:102A4000109247021092270210922F021092370222
:102A500010923F0267C080914802292F28272370D7
:102A600081F54091DA02282F237098E0299F900188
:102A70001124F901E95DFD4F473068F44183ABED66
:102A8000B2E0F901E75DFD4F90E0491729F05D9153
:102A900051939F5FFACF1182F901E95DFD4F91E0FB
:102AA00090838F5F8370809348028091820387FFB9
:102AB00039C0980F9370909348028F778093820368
:102AC00031C010925102282F30E02F5F3F4F29274D
:102AD00023703327232B11F593705091DA0248E0CD
:102AE000949F90011124F901E95DFD4F573068F47E
:102AF0005183ABEDB2E0F901E75DFD4F40E05417C3
:102B000029F06D9161934F5FFACF1182F901E95D70
:102B1000FD4F41E04083906890938203837084600E
:102B2000809348028091500282958F70883011F412
:102B300010922602DF91CF91089560E787E08FD44D
:102B40006EE080E08CD482E092E00197F1F7089586
:102B50006FE280E082D06FE682E07FC063E38BE0CB
:102B600063D161E38CE060C11F93CF93DF93182F93
:102B70005A9880EE43D485E041D4CAEFD2E08991DF
:102B80003DD483E0CF30D807D1F75A9A8091F9022B
:102B9000813019F080EA33D1E1DF612F8FE044D139
:102BA00080EDDF91CF911F912AC11F920F920FB636
:102BB0000F9211242F933F934F935F936F937F93C3
:102BC0008F939F93AF93BF93EF93FF939091F501F2
:102BD0008091F401981789F08091F4018F5F8093C0
:102BE000F401803610F01092F401E091F401F0E06D
:102BF000EE5DFC4F80818093C6009091F40180913E
:102C0000F501981301C0FFD2FF91EF91BF91AF91F1
:102C10009F918F917F916F915F914F913F912F91F4
:102C20000F900FBE0F901F9018959091F5019F5F28
:102C3000903608F090E0E92FF0E0EE5DFC4F8083E5
:102C40009093F501AAC25F98D9D35F9A08955F98CF
:102C50008068D4D3C8D35F9A0895CF93C62F5F9866
:102C6000CDD300008C2FCAD35F9ACF910895CF9314
:102C70008091220287FF02C0CFEF01C0C0E583FD33
:102C8000C0E580910301C81729F06C2F8EE3E5DFC2
:102C9000C0930301CF910895EFB7F8942091840079
:102CA00030918500EFBF8091E50390E04091E6030D
:102CB0005091E703841B950B820F931F482F41709F
:102CC0004093E503969587954091E1035091E20387
:102CD0006091E3037091E403F894480F591F611D5C
:102CE000711D4093E1035093E2036093E3037093FB
:102CF000E4033093E7032093E603EFBF2091DF0363
:102D00003091E003820F931F80382EE3920720F06A
:102D100080589E4320E101C020E080343FE19307CA
:102D200018F0285F80549F41803A3FE0930718F0E5
:102D30002C5F805A9F40803D37E0930718F02E5F4C
:102D4000805D9740883E33E0930718F02F5F885EE0
:102D500093404091B8035091B9036091BA037091C8
:102D6000BB03420F511D611D711D4093B803509369
:102D7000B9036093BA037093BB039093E00380930D
:102D8000DF036091E1037091E2038091E30390918E
:102D9000E4030895CF92DF92EF92FF92CF93DF93F7
:102DA0006B017C0179DFEB01C114D10461F074DFA8
:102DB0006C1B7D0B683E7340B8F381E0C81AD108E4
:102DC000C851DC4FF1CFDF91CF91FF90EF90DF90B2
:102DD000CF90089580E337DF61E070E080E090E01D
:102DE000D9DF6FE282E039DF6FE280E036DF8EE02C
:102DF0002EDF91E0843C09F090E0892F08955A98E5
:102E0000FDD25A9A08955A988064F8D2559898E05D
:102E100080E0880F4D9981605C9A00005C98915029
:102E2000C1F7559A5A9A0895CF93C62F5A98E6D269
:102E300000008C2FE3D25A9ACF910895CF938091BE
:102E4000220287FF02C0CFE101C0C0E083FDC0E0E5
:102E500080910301C81729F06C2F88E2E5DFC09349
:102E60000301CF9108951F920F920FB60F92112474
:102E70002F934F935F936F937F938F939F93AF9312
:102E8000BF93EF93FF938091DE0390918400E82F2E
:102E9000F0E0E254FC4F90838F5F8093DE0380323A
:102EA00008F4CDC0EEEBF3E02191809116029091F1
:102EB0001702A0911802B0911902820F911DA11D55
:102EC000B11D8093160290931702A0931802B0933D
:102ED00019028091160290911702A0911802B091E8
:102EE00019024091160250911702609118027091D8
:102EF00019022AE0880F991FAA1FBB1F2A95D1F734
:102F0000840F951FA61FB71F809316029093170278
:102F1000A0931802B09319028091160290911702A3
:102F2000A0911802B0911902409116025091170217
:102F3000609118027091190226E0B695A7959795B1
:102F400087952A95D1F784279527A627B7278093B9
:102F5000160290931702A0931802B093190283E00F
:102F6000EE3DF80709F0A0CF80911602909117026C
:102F7000A0911802B09119024091160250911702C7
:102F8000609118027091190223E0880F991FAA1FFF
:102F9000BB1F2A95D1F7840F951FA61FB71F8093DB
:102FA000160290931702A0931802B0931902809111
:102FB000160290911702A0911802B0911902409147
:102FC0001602509117026091180270911902EBE0FD
:102FD000B695A79597958795EA95D1F78427952774
:102FE000A627B7278093160290931702A093180282
:102FF000B09319028091160290911702A0911802C5
:10300000B091190240911602509117026091180276
:1030100070911902FFE0880F991FAA1FBB1FFA9534
:10302000D1F7840F951FA61FB71F809316029093A8
:103030001702A0931802B093190210926000FF913A
:10304000EF91BF91AF919F918F917F916F915F9120
:103050004F912F910F900FBE0F901F9018950F93C7
:103060001F93EBE6F2E090838183072F182F292F1F
:10307000332702836383007F6F70602B64831F910B
:103080000F9108951092C50099E09093C40010929A
:10309000C0009EE29093C2009091C00097FF03C0D1
:1030A0009091C600F9CF90E99093C1009091C10032
:1030B00098609093C1008823A1F01092C50081E22E
:1030C0008093C4008091C2008F7D8093C200809164
:1030D000C1008F778093C1008091C000826080938F
:1030E000C000089577DE60E080E09EDE61E070E081
:1030F00080E090E04FDE63E38BE096DE63E38CE0FC
:1031000093DE80E180DE80EA7ADE459A8AE891E00B
:10311000FC013197F1F745980197F1F761E08DE1F6
:1031200067DA8AE193E00197F1F760EC8CE060DA0E
:1031300064E08DE05DDA8091F902883219F064E292
:103140008FE056DA60E08EE053DA299880E156D1BC
:103150004AD1299A9EDB60E08CE181D160E08DE16B
:103160007ED197DB81EE59D182EE57D18FEF55D1C9
:10317000289887E043D137D1289A68E080E06FD162
:103180008AE891E00197F1F764E670E080E090E072
:1031900001DE8DEF809303010895809123028871F1
:1031A00029F48091C10080628093C10008957894D1
:1031B0001F920F920FB60F9211242F933F934F93AC
:1031C0005F936F937F938F939F93AF93BF93EF938F
:1031D000FF9381E08093BD03EFE6F0E080818B7F79
:1031E0008083DBDFFF91EF91BF91AF919F918F9132
:1031F0007F916F915F914F913F912F910F900FBEF3
:103200000F901F901895E1ECF0E080818F7D808316
:1032100008951F920F920FB60F9211242F933F9390
:103220004F935F936F937F938F939F93AF93BF93CE
:10323000EF93FF938091C1008F778093C1007894C2
:103240008091C0008C7151F4E091BC03EE2399F1A0
:103250008091BD03813009F05BC02DC08091C60014
:103260008093BC0381E08093BD038091BD038130D6
:1032700059F480916F008B7F80936F0080912302BF
:103280008F7E8093230289DFF8948091C10080684B
:103290008093C100FF91EF91BF91AF919F918F916A
:1032A0007F916F915F914F913F912F910F900FBE42
:1032B0000F901F9018951092BC031092BD0380913F
:1032C00023028B7F809323029091C60090939E03EC
:1032D00090919E039C7F943541F6806180932302F8
:1032E00092DF80918400909185008C59964E909346
:1032F0008B0080938A0084E086BB80916F0084609D
:1033000080936F008091BC038F5F8093BC03ADCF2F
:1033100081E08E0F8093BC03F0E09091C600E256EE
:10332000FC4F90838A3108F4A0CF8091230281FD65
:103330000FC08AE1EEE9F3E0A4E8B3E001900D925A
:103340008A95E1F7809122028160809322028ACFE0
:1033500084608093230286CFCF93DF9380912202F3
:1033600087FF03C080E011D813C0C091F003D09153
:10337000F103209731F48068809322021092EA03CF
:1033800007C081E002D82197D093F103C093F003E6
:103390008091E8039091E903DF91CF910895FF9226
:1033A0000F931F93CF93DF938EE73FDCC2EFD3E001
:1033B00080E2F82E8E0188818D57823028F48DE7C7
:1033C00034DC88818F2588832196F80180812DDC6B
:1033D000F3E0CB3FDF0771F78EE7DF91CF911F91CD
:1033E0000F91FF9022CC98E080E0880F4E99816089
:1033F0005C9A00005C989150C1F708955C985D98C4
:1034000098E087FF02C05D9A01C05D985C9A880FC2
:103410005C989150B1F75D9A08952898EFDF289A4B
:103420000895FF920F931F93CF93DF93F82E092FE8
:10343000162F289880EAE2DFCF2DD02FCE01810F02
:10344000911D8C01C017D10719F08991D7DFFACFF0
:10345000289ADF91CF911F910F91FF900895CF93FC
:10346000C62F28988F718062C9DF8C2FC7DF289AFA
:10347000CF910895CF938091220287FF02C0C3E0CD
:1034800001C0C0E083FDC0E080910301C81761F076
:103490006091F802697F8C2F880F682B6093F80287
:1034A00086E0DDDFC0930301CF910895AF92BF9214
:1034B000CF92DF92EF92FF920F931F93CF93DF9300
:1034C000CDB7DEB7A0970FB6F894DEBF0FBECDBF65
:1034D000E82E82E00E94A411F82E8093FA0283E085
:1034E0000E94A41187FD03C09FE7981B892F80933A
:1034F000FB0280E48093FE0281E00E94A41187FD1C
:1035000003C09FE7981B892F90E8980F9093FC02C7
:103510001091EE03512F5071D52E14FD14C020913F
:103520001002309111022135344068F4292F30E027
:1035300097FF02C0C90104C08FE790E0821B930B84
:103540009595879501C080E48093FF0280E00E94FA
:10355000A41187FD03C09FE7981B01C0982F90938B
:10356000FD02D11014C020911002309111022135BA
:10357000344068F4292F30E097FF02C0C90104C02D
:103580008FE790E0821B930B9595879501C080E4AF
:103590008093000380916B028093010380916C0201
:1035A0008093020380916D028093030310920403C1
:1035B00010920503109206031092070380EC80938B
:1035C00008030091EF03033071F030F4002391F110
:1035D000013009F46EC08AC0053029F058F1063078
:1035E00009F084C027C08091EA038F5F8093EA03CB
:1035F00084FF1DC0812F881F8827881F880F880F90
:1036000020910C0230910D022031334008F488E003
:1036100020910E0230910F02213554E0350710F051
:10362000805F06C02031334018F4805E01C080E026
:10363000809304038091040315FF02C092E001C04F
:1036400090E021E0D11001C020E0292B280F209329
:103650000403E1106BC0812F8170846012FF02C0EF
:1036600098E001C090E0892B13FF02C090E101C0F7
:1036700090E0982B312F327011FD02C080E201C022
:1036800080E0892B80930803063051F4332311F036
:1036900090EA01C090E2292B209304038B7D44C063
:1036A000053009F043C02064209304038B7D832BF5
:1036B0003BC011FD02C082E001C080E080930403A2
:1036C00015FB882780F980930503E1102FC010FFB8
:1036D00002C096E001C092E016FF02C080E101C086
:1036E00080E0892BDD20F1F090E21DC011FD02C0C9
:1036F00082E101C080E116FB992790F9892B809324
:103700000403E11013C010FF02C096E001C092E074
:1037100012FF02C088E001C080E0892B13FF02C0C5
:1037200090E101C090E0892B80930803EBEFF2E079
:103730008191F80E53E0E930F507D1F7F0920903D3
:10374000E091ED03EF5FE093ED03E695802F8D7F31
:10375000843009F0ADC00E2F10E0F801EE55FD4F9A
:103760006081862F880F680F8AE077DAF801E059C8
:10377000FD4F608185E271DA6091EB038091EC038B
:10378000861721F06093EC038CE067DA70DAF09032
:10379000F702AF2CB12C30910201B5016E507D4F74
:1037A0008E010F5F1F4F41E251E0F2EFCF2EF2E0AA
:1037B000DF2ED801C616D70671F0FB018291BF013A
:1037C0008C93332321F0FA01908189278C931196F1
:1037D0004F5F5F4FEFCF6AEF72E0A5014F5D5E4F25
:1037E00020E12F0D9F2DA92FB0E0FB01D190BF014B
:1037F000E8E0EE2E80E0880FFD2DF1708F2BD6943F
:10380000EA94E110F8CFA00FB11F8C93332321F07D
:10381000FA01E0808E258C939F5F4F5F5F4F92137C
:10382000E2CFD80182ED95EB4A2F401B421790F46E
:103830004D91942749E04150B9F3BC01660F771FC1
:1038400097FF06C0CB01F1E28F27F0E19F27F3CF6E
:10385000CB01F1CFF5013D96EE0FFF1F332319F099
:10386000ED50FE4F02C0E355FE4F45915491842721
:103870009527F801E20FF11D908391E19F0DF8016A
:10388000E90FF11D808386E3DED98BE3DCD965E1A6
:103890006F0D8FE3E2D963E08FE691E00E9402139F
:1038A00062E16F0DC8010E94021385E3CCD91FC0ED
:1038B000F0E0EE55FD4F608185E0D1DD60E787E007
:1038C000CEDD81EEAADD033011F0053031F435D9BB
:1038D00060E18AEF92E0A5DD09C081E08093F1020A
:1038E00062E080E0BCDD80E10E947D13C3DD809159
:1038F000ED0387708093ED03A0960FB6F894DEBFBA
:103900000FBECDBFDF91CF911F910F91FF90EF9030
:10391000DF90CF90BF90AF9008958091220287FFF3
:1039200002C080E062C02091F0033091F1032115C4
:10393000310509F053C08091EF03843071F048F4F1
:10394000882309F445C0833069F584E0E3E7F1E0BA
:1039500022C08530E9F0863029F580916E028F70A3
:1039600090E0880F991FFC01EB5BFD4FE491E09321
:10397000A202E05FE093A402FC01EA5BFD4FE49148
:10398000E093A302E05FE093A5020E94691420C0C7
:1039900084E0E8E7F1E0A2EAB2E001900D928A95B6
:1039A000E1F716C080916E0263E017D2A2EAB2E09E
:1039B00044E0949FC0011124F901E80FF91FE75C6E
:1039C000FD4FE491ED932F5F3F4F24303105A1F778
:1039D0008091220280688093220208C02150310920
:1039E0003093F1032093F00381E060DD80EA9FE0F3
:1039F0000895789414B817B81AB8559A549A529AE8
:103A0000579A3D9A219A209A399A3A9A519A2A9A23
:103A10002B9A2C9A409A2D9A1092800082E08093E3
:103A20008100F89414BE80916000806180936000F2
:103A300080E48093600078945A9A5F9A299A289A31
:103A40005D9A5C9864E670E080E090E0A3D9809194
:103A500022021D9903C08F77806201C08068809325
:103A6000220210922102E6EFF1E080E094E08193DF
:103A7000919322E0E631F207D1F78CEC90E090933D
:103A8000FB018093FA012D98259A2CDB8091160278
:103A900090911702A0911802B0911902892B8A2BDC
:103AA0008B2BA1F36091160270911702809118027E
:103AB00090911902611571058105910509F027D1D1
:103AC00089E396E8A2E4B5E680931D0290931E0276
:103AD000A0931F02B093200210921A0210921B02B0
:103AE00010921C021092F90281E0CCDA8FEF9FEF66
:103AF00012E02091240230912502232BC1F0209165
:103B0000230227FD14C08139914088F4B19B18C06D
:103B1000F89480918400909185009093890080931F
:103B2000880078940FC08091230287FFEFCF0E9416
:103B300051018091240290912502892BA1F7F7CFA2
:103B4000B19BFECFC09123028C2F8860809323020B
:103B50005ADBC5FF09C0E0912402F091250230979D
:103B600019F00995EC0102C0C0EDD7E08091230265
:103B7000877F8093230211DBC13A8FE0D807C0F022
:103B8000C05DD740F894809188009091890080565C
:103B9000904F909389008093880016BB78940E9480
:103BA0005101811103C0B19BFECFE6CFC0E0D0E050
:103BB000F8948091880090918900CC0FDD1FC80F88
:103BC000D91FD0938900C093880016BB80918800CC
:103BD000909189002091840030918500821B930B85
:103BE000789497FDAFCF85CF8F929F92AF92BF927F
:103BF000CF92DF92EF92FF92CF93DF93EC01688137
:103C000079818A819B81611571058105910521F476
:103C100064E279ED8BE597E02DE133EF41E050E090
:103C20007FD049015A019B01AC01A7EAB1E494D0CD
:103C30006B017C01ACEEB4EFA501940199D0DC01DD
:103C4000CB018C0D9D1DAE1DBF1DB7FF03C001979D
:103C5000A109B04888839983AA83BB83BC01CD01A5
:103C60009F77DF91CF91FF90EF90DF90CF90BF9043
:103C7000AF909F908F9008958F929F92AF92BF9236
:103C8000CF92DF92EF92FF92609104017091050153
:103C900080910601909107016115710581059105DB
:103CA00021F464E279ED8BE597E02DE133EF41E01B
:103CB00050E036D049015A019B01AC01A7EAB1E4BA
:103CC0004BD06B017C01ACEEB4EFA501940150D058
:103CD000DC01CB018C0D9D1DAE1DBF1DB7FF03C0C8
:103CE0000197A109B0488093040190930501A09326
:103CF0000601B0930701BC01CD019F77FF90EF90C3
:103D0000DF90CF90BF90AF909F908F900895609379
:103D100004017093050180930601909307010895B3
:103D2000052E97FB16F400940FD057FD05D024D034
:103D300007FC02D046F408C0509540953095219577
:103D40003F4F4F4F5F4F08959095809570956195C7
:103D50007F4F8F4F9F4F089531D0A59F900DB49FF7
:103D6000900DA49F800D911D11240895B7FFF4CFED
:103D7000F3DF821B930B0895A1E21A2EAA1BBB1B33
:103D8000FD010DC0AA1FBB1FEE1FFF1FA217B30727
:103D9000E407F50720F0A21BB30BE40BF50B661F3D
:103DA000771F881F991F1A9469F760957095809501
:103DB00090959B01AC01BD01CF010895A29FB00178
:103DC000B39FC001A39F700D811D1124911DB29F4F
:103DD000700D811D1124911D0895991B79E004C077
:103DE000991F961708F0961B881F7A95C9F780953A
:103DF0000895AA1BBB1B51E107C0AA1FBB1FA61732
:103E0000B70710F0A61BB70B881F991F5A95A9F783
:103E100080959095BC01CD01089597FB072E16F46F
:103E2000009406D077FD08D0E4DF07FC05D03EF40F
:103E3000909581959F4F0895709561957F4F089556
:103E4000DC0101C06D9341505040E0F70895F894B3
:023E5000FFCFA2
:103E5200000801FD01000000A403000000010203AC
:103E62000405060708090A0B0C0D0E0F550F710CFD
:103E720000E3B14BEA85BCE5660DAE8C881269EEB3
:103E82001FC76297D50B79CACC1B5D191024D3DCEE
:103E92003F8EC52FAA16F3956D6A777777001222A7
:103EA2003242002E363E46000A35423D006D6A73AC
:103EB200737300EEDDCCBB1100C45709652100719C
:0E3EC2000F5500323E424E003732474200009C
:00000001FF
