:1000000032C100004DC100004BC1000049C10000D9
:1000100047C1000045C100000C94431B41C10000D2
:100020003FC100003DC100003BC1000039C10000DC
:100030000C943F1C35C1000033C1000031C10000E9
:100040002FC100002DC100000C946C1C0C94021BED
:1000500027C1000025C1000023C1000021C100000C
:100060001FC100001DC10000FF42001400FFFF007F
:1000700000000001210500509E4B0002162B1200CB
:10008000628080000A32C30F13C300FF00003B00F0
:100090001747800301451800010F123456781827BE
:1000A00036454182365784136572876415327684EB
:1000B0001352716284357186435206060C181E0471
:1000C00001FF0A005C76277B6113237A5106060E36
:1000D00018230401FF08005C80007BF803237A5397
:1000E000F84F1CC86E02486A404F1C901C24367A98
:1000F0004061315D37FD4F863C4122EEB39AB2C07C
:10010000442AFED76E3CCDF52BB4BB09003E4547D3
:100110004A949D0B003E43494AD1D000003F4246DD
:100120004ACBCD04004143464A833C6000473E5CD5
:100130002B60004A3C57070000414819161A6C1BF7
:10014000431C401D912156221023A9240A25002674
:100150001129592C882D312E0B0307090002001795
:10016000180607083E0B0C0D0E0F10111213141574
:100170001431404949494949494906060C181904AE
:1001800005FF08005C7627AA3911237A420000890E
:100190001112239B322446AD573665BF74488CC17B
:1001A0009D5AAFD3BE6CCAE5DB7EE9F7F80A463A42
:1001B000420A3C363F0A43363F3A352E36323E2E0F
:1001C0003C2F3B333B333B343E342F393E2E382ECD
:1001D000362E383A41323E333F00005F3DF1A623D0
:1001E0003A16AAAF1CB262EBE0210807BE1A5F15EF
:1001F000AF0A4F24AD485E34ED8C06C9F252183672
:10020000DF9D127CB1F5D5D77098B73351DB674EBF
:10021000D95B0A45E4A5E6E726ABBD79C3208E008D
:10022000004834A79BBB8BE1858C3E1E45E6182415
:100230006BABE728384B8161D494F403251D698B9F
:10024000FEA79B178B20295F8BB16191D301743876
:10025000219F12A0B38829CA23CBC06C0C29B3A15B
:10026000A0160AD0A90011241FBECFEFD8E0DEBF30
:10027000CDBF11E0A0E0B1E0E2E9FEE302C00590ED
:100280000D92AE37B107D9F724E0AEE7B1E001C077
:100290001D92A630B207E1F70E94111D0C94471F72
:1002A000AFCE98E080E0880F4E9981605C9A0000A4
:1002B0005C989150C1F708955C985D9898E087FF2D
:1002C00008C05D9A5C9A880F5C989150C1F75D9A5E
:1002D00008955D98F7CFFF920F931F93CF93DF930D
:1002E000F82E192F062F5F988FE7E6DFCF2DD12F3D
:1002F0000C0F1D2F111DC017D10719F08991DCDFDC
:10030000FACF5F9ADF91CF911F910F91FF900895DF
:100310000F931F93CF93DF938C01289880E3CCDF5A
:10032000E8010B5F1F4F8991C7DFC017D107D9F7CD
:10033000289ADF91CF911F910F910895289880E519
:10034000BBDF83E7B9DF289A08950F931F93CF93FC
:10035000DF93D82F5F988FEFAFDF07EB13E0C0E09C
:10036000DC1731F09EDFF80181938F01CF5FF8CF6A
:100370005F9ADF91CF911F910F91089528989CDF8C
:10038000289A0895FF920F931F93CF93DF93F82E2F
:10039000192F062F289880EA8FDFCF2DD12F0C0F31
:1003A0001D2F111DC017D10719F0899185DFFACFD4
:1003B000289ADF91CF911F910F91FF9008958F920E
:1003C0009F92AF92BF92CF92DF92EF92FF920F93E4
:1003D0001F93CF93DF93CDB7DEB7A0970FB6F894F6
:1003E000DEBF0FBECDBF5091DB0390E0543018F458
:1003F00095E5998391E070910201E52FF0E09F016E
:100400002A523C4F01E211E0492FA42EB12C63E0A7
:10041000263D3607B9F0D901FE909D01CC24C39446
:10042000D12CCC0EDD1EAC0CBD1CD501FC9277236B
:1004300029F0D8016C916F25D5016C934F5F0F5F48
:100440001F4FE3CF950F4EEDE42E43E0F42E8F01C6
:100450000F5D1E4FD82ED90E692FD7014D917D010A
:10046000A62FB0E038E020E0B22EBB0C242F217084
:10047000C22E2B2D2C2946953150B1F78824839418
:10048000912C8C0E9D1E8A0E9B1ED4012C937723DB
:1004900029F0D8013C912327D4012C936F5F0F5F83
:1004A0001F4FD612DACF4FEF480F490F9091D50367
:1004B000992309F43FC091E0543008F090E0A1E0A6
:1004C000B0E0AC0FBD1FA90FB11D22ED35EB9617A3
:1004D00088F45D91352759E0515051F08901220F80
:1004E000331F17FFF9CF11E2212710E13127F4CF95
:1004F0009F5FEDCF3397E80FF11DEE0FFF1F7723BE
:1005000079F1E15EFD4F859194912827392781E0AB
:1005100090E08C0F9D1F860F911DDC013C9363E0E2
:10052000640F92E0940FE1E0F0E0EC0FFD1FE90FA3
:10053000F11D2083CE01019625DFA0960FB6F89419
:10054000DEBF0FBECDBFDF91CF911F910F91FF9006
:10055000EF90DF90CF90BF90AF909F908F900895D5
:10056000E752FE4FD0CFCF93C62F28988062A4DEEB
:100570008C2FA2DE289ACF9108956091DC03677DCD
:100580006093DC03862F90E0959587958370809328
:10059000030186E0E8CF60E787E0E5DF6EE080E01A
:1005A000E2DF82E092E00197F1F70895CF93809126
:1005B0000203C3E087FFC0E083FDC0E08091030138
:1005C0008C1761F08091DC03897F6C2F660F682B9C
:1005D0006093DC0386E0C7DFC0930301CF910895E9
:1005E000E82FF0E0EE0FFF1FE35DFD4F208131812A
:1005F0002115310591F02F3F97E0390771F09FE009
:10060000929FA001939F500D11249A0194E036957A
:1006100027959A95E1F7205C3F4F883008F03860C5
:10062000C9010895CF93DF93382FDC0190E080E07B
:1006300041E850E12A2F231B2617C8F42D912927C2
:10064000E22FEF70F0E0EE0FFF1FE357FE4FC59172
:10065000D49122952F70249FF001259FF00D112435
:10066000982F88278E279F278C279D27E3CFDF9100
:10067000CF9108950F931F93CF93DF932091B803E9
:100680009091510329138BC02091B903909150038D
:10069000291385C06091B70303E0060F08137FC0DC
:1006A00080914D03816080934D0310E0F801EB547D
:1006B000FC4F8081805880934C03F801EA54FC4F32
:1006C00080818F7780934B0323E0A801425051092A
:1006D000822F90E08417950754F4FC01E35DFC4FF2
:1006E00089549C4FDC018C9180832F5FF1CF309136
:1006F000DD038091330381508A3008F05DC03330D0
:10070000D1F49091340380912C03292F28272F7145
:1007100009F04CC087FF48C020912B03982F9F7190
:10072000921709F441C020E890E001968F71992753
:10073000822B80932C0310922A033F3081F5645062
:100740008AEB93E06FDFC92FB0E0DB2FF801ED54A7
:10075000FC4F90819C171D0611F5F801EC54FC4FDD
:10076000208130E082171306D1F49091BC03892FC9
:100770008F70883021F580932903109228031092FE
:100780000803109210031092180310922003809116
:10079000320382958F70883011F410920603DF9136
:1007A000CF911F910F91089520E0BECF9F7190933C
:1007B0002B03806880932C0310923303BCCF80916D
:1007C0002903292F28272370B1F59091BD03282FE5
:1007D0002370E8E02E9F90011124F901E85FFC4F9F
:1007E000973098F49183AEEBB3E041E050E04F5F77
:1007F0005F4F6EEF640F691748F46D91F901E40FD4
:10080000F51FE85FFC4F6083F2CF1182285F3C4FF9
:1008100091E0D9019C938F5F83708093290380912D
:10082000070387FFB4CF980F9370909329038F77B6
:1008300080930703ACCF10923303282F30E02F5F53
:100840003F4F292723703327232B41F59370609165
:10085000BD03B8E09B9F90011124F901E85FFC4FB4
:10086000673098F46183AEEBB3E041E050E04F5F56
:100870005F4F7EEF740F761748F47D91FA01E20F17
:10088000F31FE85FFC4F7083F2CF1182285F3C4F6B
:1008900041E0F9014083906890930703837084607E
:1008A0008093290374CFCF93DF9381114FC085E5E7
:1008B0008093DE03809151038093DF038091500386
:1008C0008093E00380914F038093E10380914E0376
:1008D0008093E20320915F02C1E1D1E0AEEDB3E08D
:1008E00049E151E068EB7BE03991E32FF0E0EE0F56
:1008F000FF1FEA52FD4F0190F081E02DCF01880FDC
:10090000991F880F991F8E0F9F1FE3E0969587957B
:10091000EA95E1F7845A9C4F243031F4313021F4C8
:10092000FB01E81BF90BCF0115968C9315971696D2
:100930009C93169712964C175D07B1F62230B1F1D1
:1009400038F42130A1F0DF91CF9108958AEAB0CF39
:10095000233009F47CC02430B1F71092F103809168
:100960005D02F0E18F9FC00111248A606DC080910B
:100970005E0280FF05C09091EA0390619093EA03C4
:1009800081FF05C09091EA0390629093EA0382FF91
:1009900005C09091E80390689093E80383FFD3CF5C
:1009A0008091E80380648093E803CDCF83E0809357
:1009B000EB031092EC0380915E0280FF03C090E88D
:1009C0009093EC0381FF05C09091EC0390649093A9
:1009D000EC0382FF05C09091EC0390619093EC03CF
:1009E00083FF05C09091EC0391609093EC0384FF2A
:1009F00008C093E89093EB039091EC03906290937E
:100A0000EC0385FF05C09091EC0398609093EC0394
:100A100086FF05C09091EC0394609093EC0387FFF0
:100A200005C08091EC0382608093EC0380E18093A9
:100A3000ED038093EE038AEA8093EF038093F00343
:100A400080E68093F10382E08093F2037CCF809173
:100A50005A028F5F8A3090F580935A028091EA03A0
:100A600080628093EA031092EB031092EC03809172
:100A70005E0280FF03C090E89093EC0381FF05C005
:100A80008091EC0380648093EC0387E28093ED0314
:100A900083E08093EE0380915A02E82FF0E0E05962
:100AA000FE4FE491E093EF0381110BC082E080934D
:100AB000F0031092F1031092F20345CF10925A0204
:100AC000CDCF1092F003F5CF0F931F93CF93DF9309
:100AD00040914E03477020914F03223050F52E5F16
:100AE000822F6FE20E940D1F911101C02F5F409372
:100AF0008503C6E8D3E0E1E030E00BEE10E0C90189
:100B0000840F911DB8010E942D1F482F882321F0CA
:100B10008A3511F08C3D09F48F5FEF3208F080E0E8
:100B20008993EF5FE23359F7DF91CF911F910F91D6
:100B300008952A3EA8F2275ED3CFCF93DF93EB012F
:100B4000DA01E82FF0E0EE0FFF1FEA52FD4F20819F
:100B500031812C3C310510F42CEC30E0253387E05A
:100B6000380710F024E337E050E040E02C5C310916
:100B700041095109AC1BBD0B0E94D61E28E636E088
:100B800040E050E00E94B01ECE01DD0FAA0BBB0B6F
:100B9000820F931FA41FB51FDF91CF910895E82FF7
:100BA000F0E0EE0FFF1FEA52FD4F20813181C901B5
:100BB000880F991F880F991F820F931F55E09695F4
:100BC00087955A95E1F78132910530F0803221E026
:100BD000920720F48052089580E008958FEF0895E1
:100BE000CF93C62F2998806867DB8C2F65DB299A05
:100BF000CF9108955F9860DB5F9A0895CF93C82FD7
:100C00008BE3F8DF6C2F8EED93E065DB85E3CF910E
:100C1000F1CF5F98806850DB44DB5F9A0895CF93F3
:100C2000C62F5F9849DB00008C2F46DB5F9ACF917F
:100C30000895EF92FF920F931F93CF93DF93C5E830
:100C4000D3E003E513E08AE0E82E8EE0F82E86E399
:100C5000D1DF8991682F660F680F8AE0E0DF83E3B8
:100C6000C9DFC7010197F1F785E2D3DFF80181936E
:100C70008F01F3E0C938DF0751F7DF91CF911F9162
:100C80000F91FF90EF9008956FE280E0C8DF6FE66C
:100C900082E0C5CFCF93C82F60915B028CE0BFDFAD
:100CA00068E088E1BCDF60915103C11163E089E035
:100CB000B6DF65E087E0CF91B2CFCF93DF93C82F47
:100CC00086E398DFD0E0FE01ED5AFC4F608185E2BB
:100CD000A6DFCB57DC4F68818AE0DF91CF919FCFB1
:100CE000CF9380910203CFEF87FFC0E583FDC0E57E
:100CF000809103018C1729F06C2F8EE390DFC09355
:100D00000301CF9108958F929F92AF92BF92CF929D
:100D1000DF92EF92FF920F931F93CF93DF93CDB7A4
:100D2000DEB7A0970FB6F894DEBF0FBECDBFC82EBA
:100D300082E035DFE82E8093DE0383E030DF87FD3D
:100D400003C09FE7981B892F8093DF0380E4809383
:100D5000E20381E024DF87FD03C09FE7981B892F12
:100D600080588093E003D0905E020D2D10E02D2D71
:100D70002071F22ED4FC70C02091F0023091F1026B
:100D80002135344008F068C0282F30E087FF5FC06D
:100D9000C901959587958093E30380E000DF87FD87
:100DA00003C09FE7981B892F8093E103F1105BC07C
:100DB0002091F0023091F1022135344008F053C007
:100DC000282F30E087FF4AC0C90195958795809309
:100DD000E40380914E038093E50380914F03809359
:100DE000E603809150038093E7031092E80310928A
:100DF000E9031092EA031092EB0380EC8093EC037A
:100E0000F0905F02E3E0FE1609F4C5C0EF1568F14B
:100E1000FF20A1F1F1E0FF1609F4EBC092E1D1FC53
:100E200090E106FB882780F9892B8093E803C110A5
:100E300056C0C801880F991F000F111F000F111F06
:100E40000470982F9870092B02608071EFC08FE7B3
:100E500090E0821B930B9DCF80E49DCF8FE790E0C5
:100E6000821B930BB2CF80E4B2CF25E0F21609F4D7
:100E700092C0F21618F056E0F512D0CFC80154E037
:100E8000959587955A95E1F783709091E803980FAF
:100E90009093E803C11023C08D2D81708460980168
:100EA000220F331F322F3870832B2071822B3D2D60
:100EB000327020E2D1FC20E0822B8093EC0326E00C
:100EC000F2128EC026E0000F111F2A95E1F700787C
:100ED0000062902B9093E8038B7D8093EC03EFED01
:100EE000F3E06EEDC62E63E0D62E8DEE93E02191F9
:100EF000E20E8E179F07D9F7E092ED0300915D0295
:100F00000F5F00935D02069510E0F801EB57FC4F70
:100F100060818F2D8D7F843009F00CC1862F880F62
:100F2000680F8AE07CDEF801ED5AFC4F608185E2B3
:100F300076DE60915B0280915C02861721F06093FF
:100F40005C028CE06CDECCDEF090DB038F2C912C0D
:100F500040910201C4018A529C4F8E010F5F1F4FC6
:100F6000A1E2B1E066ED73E098016817790709F432
:100F700061C0FC01E290CF01F901E1929F0144239D
:100F800041F05F01F1E0AF1AB1085C915E25F50117
:100F900050831196EACF80915A028F5F80935A0254
:100FA00084FF1CC080E0D7FC84E02091EC023091EB
:100FB000ED022031334008F488E02091EE023091B8
:100FC000EF022135E4E03E0720F0805F8093E803E4
:100FD00055CF20313340D0F7805EF8CF80E0F6CF98
:100FE00055E0F5127CCF90649093E8038B7D832BC2
:100FF00074CF82E0D1FC80E08093E80305FB882772
:1010000080F98093E903C1106ACFC801880F991F46
:10101000880F991F847098013595279535952795E8
:101020002071822B8260000F111F0072082B009329
:10103000EC0355CF30E020E0F60151916F01AF2D68
:10104000A20FB0E098E080E0880F652F6170862BDA
:1010500056959150C9F7A00FB11F8C93442349F0C6
:10106000B401620F731F6F5D7E4FFB019081892772
:101070008C932F5F3F4F20313105F1F620E12F0D8A
:10108000D80182ED95EB3A2F301B321778F43D9161
:10109000932739E03150B9F3BC01880F991F77FFCE
:1010A000F9CFF1E28F27F0E19F27F4CFF4013D96CD
:1010B000EE0FFF1F442309F43AC0E15EFD4F459156
:1010C000549184279527F801E20FF11D9083E1E107
:1010D000EF0DE00FF12FF11D808386E38BDD8BE3B5
:1010E00089DD65E16F0D8FE39ADD63E088E491E0CF
:1010F000F2D862E16F0DC801EED885E37BDD809107
:101100005D02877080935D02A0960FB6F894DEBFF3
:101110000FBECDBFDF91CF911F910F91FF90EF9048
:10112000DF90CF90BF90AF909F908F900895E7523F
:10113000FE4FC5CF85E017DA60E787E014DA81EE6D
:101140001DD923E0F21619F055E0F51207C023DA95
:1011500060E18EED93E016D929DAD1CF81E080935A
:10116000D50362E080E0FFD980E129D9F5CFEF9285
:10117000FF920F931F93CF93DF937C01D0E0C0E0E9
:10118000FE01E35AFE4F8491F701EC0FFD1F6491BD
:1011900010915B028C3009F4612F41DD2196C3313F
:1011A000D10571F710935C02CBE3D1E00DE511E0BE
:1011B000FE0184913196649132DD22960C171D0751
:1011C000B9F762DD8DDD86E3DF91CF911F910F913D
:1011D000FF90EF900FCDCF93C82F8AE791E0C7DF44
:1011E00060915103C11163E089E019DD65E087E09A
:1011F00016DD86E3FFDC60E08AE011DD69E883E26A
:101200000EDD8AE3CF91F6CCEFB7F89420918400FD
:1012100030918500EFBF8091280290E04091290233
:1012200050912A02841B950B820F931F482F417007
:10123000409328029695879540912402509125026B
:101240006091260270912702F894480F591F611D82
:10125000711D4093240250932502609326027093DF
:10126000270230932A0220932902EFBF2091220205
:1012700030912302820F931F80382EE3920708F4E7
:1012800040C080589E4320E180343FE1930718F02E
:10129000285F80549F41803A3FE0930718F02C5F0D
:1012A000805A9F40803D37E0930718F02E5F805DA5
:1012B0009740883E33E0930718F02F5F885E934095
:1012C00040911E0250911F026091200270912102F4
:1012D000420F511D611D711D40931E0250931F024C
:1012E0006093200270932102909323028093220244
:1012F000609124027091250280912602909127022C
:10130000089520E0C1CFCF92DF92EF92FF92CF936A
:10131000DF936B0179DFEB0177DF6C1B7D0B683EA0
:101320007340D0F381E0C81AD108C851DC4FC11412
:10133000D10491F7DF91CF91FF90EF90DF90CF90A4
:1013400008955A980E945C015A9A08955A988064A8
:101350000E945C01559898E080E0880F4D9981606B
:101360005C9A00005C989150C1F7559A5A9A08957A
:10137000CF93C62F5A980E945C0100008C2F0E94C8
:101380005C015A9ACF91089563E38BE0F1DF61E34A
:101390008CE0EECF1F93CF93DF93182F5A9880EEF7
:1013A0000E945C0185E00E945C01CEEDD3E0899152
:1013B0000E945C0183E0C33FD807C9F75A9A809125
:1013C000DD03813019F080EABCDFDEDF612F8FE0C2
:1013D000CFDF80EDDF91CF911F91B3CFCF9380917D
:1013E0000203CFE187FFC0E083FDC0E080910301ED
:1013F0008C1729F06C2F88E2BBDFC0930301CF91DB
:101400000895CF93DF93D0910203C0915D02D7FD81
:101410001EC081E048DA81E0BDDF809160029091DA
:10142000610201979093610280936002892B19F405
:10143000D068D0930203CF5FC0935D0280915F02BA
:10144000843081F480E99FE0DF91CF91089580E0BE
:101450002ADAEC2FEF70F0E0EB57FC4F80819ADF37
:10146000BDDFE9CF86EE95E0EFCF0F931F93EEE45B
:10147000F3E090838183072F182F292F33270283CE
:101480006383007F6F70602B64831F910F910895B9
:101490001092C50099E09093C4001092C0009EE2A3
:1014A0009093C2009091C00097FF03C09091C60036
:1014B000F9CF90E99093C1009091C100986090930A
:1014C000C1008823A1F01092C50081E28093C4007E
:1014D0008091C2008F7D8093C2008091C1008F7780
:1014E0008093C1008091C00082608093C000089505
:1014F00080910303887129F48091C10080628093F8
:10150000C10008959091D5029F5F903608F090E059
:10151000E92FF0E0EC58FD4F80839093D502E8CF9F
:101520001F93CF93DF938EE7EDDFC2E6D2E010E2A8
:1015300088818D57823028F48DE7E4DF8881812708
:1015400088838991DFDF82E0CB36D80789F78EE781
:10155000DF91CF911F91D6CFE1ECF0E080818F7DBC
:10156000808308950F931F93CF93DF9300D000D013
:101570001F92CDB7DEB78C0185E0E8E0F1E0DE0137
:10158000119601900D928A95E1F785E08093DB0337
:1015900063E083E00E94B302CE0101960E948801BD
:1015A00085E0F801A6EDB3E001900D928A95E1F790
:1015B0000F900F900F900F900F90DF91CF911F9190
:1015C0000F910895CF93C091020380E0C7FD64C0DE
:1015D0008091600290916102009709F057C080915C
:1015E0005F02843029F100F5882309F43AC0833082
:1015F00009F43EC08091510363E00E940D1F24E076
:10160000929FC0011124A5E8B3E030E020E08355AB
:101610009E4FFC01E20FF31FE491ED932F5F3F4FCC
:1016200024303105B1F71DC0853061F1863011F7E6
:10163000809151038F7090E0880F991FFC01E7544F
:10164000FE4FE491E0938503E05FE0938703FC01A4
:10165000E654FE4FE491E0938603E05FE093880355
:10166000E8DAC068C093020380EA9FE0CF91089552
:1016700084E0ECE4F1E0A5E8B3E001900D928A95F6
:10168000E1F7EFCF84E0E1E5F1E0F5CF019790934A
:1016900061028093600281E036DBE6CF0F931F93F7
:1016A000CF93DF93C82F00915F0284E1013009F0EE
:1016B00083E18093DE0380914E038093DF033091BA
:1016C0004F033093E003209150032093E103909166
:1016D00051039093E203830F820F890F8093E603F7
:1016E000E7EEF3E08AE0DF011D928A95E9F7CC236B
:1016F000B9F11092E3031092E40381E08093E503D3
:101700008091E703E8EEF3E021EF33E09191890F58
:101710002E173F07D9F78093F10381E08093D5031B
:1017200062E080E00E94B30280915F02813009F4A0
:10173000B0C060918503C1110AC0E0915D0281E0F3
:101740008E0F80935D02F0E0EB57FC4F608185E0E7
:101750000E94B30280915D02837080935D02B7C0E6
:1017600010915D021093E30383E08093E5034CEB5B
:1017700050E064E470E0E1D9D82F80935702013043
:1017800009F460C088E08093E40382E008DA809383
:10179000E70380E28093ED038093EE03D13820F4D9
:1017A00080E88D1B80935702809157028F7781309C
:1017B00011F410925702809157028093E8034BEB8B
:1017C00050E063E470E081E0B8D98093E9034BEB2B
:1017D00050E063E470E080E0B0D98093EA0380E2F7
:1017E0008093EB038093EC0320915E02422F50E044
:1017F000CA01880F991F880F991F8870922F9173C3
:101800009460892B8093EF03CA0164E0880F991FCD
:101810006A95E1F7807C559547954072842B259514
:10182000259525952071822B8093F0032091EE025F
:101830003091EF022031B3E03B0728F588608093B8
:10184000F0035ECF90915A0288E0111180E1891B6C
:101850008093E4034BEB50E063E470E082E06DD9E9
:101860008093E70380E48093ED038093EE0381E8A7
:101870008D0F833020F0D150D09357029CCF8FE74B
:101880008093570298CF2135344008F439CF8460D3
:10189000D6CF69E4C1110BC0E0915A02F0E083E0B9
:1018A000F595E7958A95E1F7EB57FC4F608185E068
:1018B0000E94B302C1110BC080915A028F5F8093C6
:1018C0005A028031A0F010925A0210925D0260E735
:1018D00087E00E94B30281EE0E94BE0184E10E9473
:1018E000DF01DF91CF911F910F910C94D6028830C8
:1018F00070F381E032CFCF93DF938091020387FFB3
:1019000009C080E0CBDE8091580290915902DF91AE
:10191000CF910895C0916002D0916102209731F477
:1019200080688093020310925A02EDCF81E0B6DE08
:101930002197D0936102C0936002E5CFEF92FF92AE
:101940000F931F93CF93DF9300915502109156028E
:10195000083E23E0120708F05FC081E18093DE03B8
:1019600083E08093DF0321E02093E0038091510323
:101970008093E103809150038093E203C8016AE001
:1019800070E00E94191F35E0389FF001399FF00D7B
:101990001124E093E303EB57FC4F80818093E40331
:1019A00081818093E50382818093E6038381809324
:1019B000E70384818093E8031092E9031092EA031D
:1019C0001092EB031092EC031092ED031092EE03D1
:1019D0002093EF0386E30ED960E08AE020D969E81E
:1019E00083E21DD98AE306D98091DE038F5F06D991
:1019F0008091020387FF09C088EE93E0909356021E
:101A00008093550288E293E260C00F5F1F4F1093EE
:101A1000560200935502F6CF083E43E0140709F042
:101A200047C08AEE93E0909356028093550280E07F
:101A3000D2DB10922C0210922B028091020380685C
:101A40008093020380912B0290912C0201966CEB03
:101A500070E00E94191F082F80932B0290932C0294
:101A600020915502309156026FE270E00E94191FDA
:101A7000FC01EB57FC4F7F012C3EF3E03F0761F583
:101A80006FE282E0CCD86FE680E0C9D886E3B2D8B6
:101A9000F70160818AE0C3D869E883E2C0D88DEE9F
:101AA00093E0909356028093550284E195E00DC037
:101AB0000D3E134039F684E39DD889EE93E0909370
:101AC00056028093550280EF93E2DF91CF911F91F0
:101AD0000F91FF90EF900895293E3340E1F48BEF92
:101AE00098D8182F1F77109353028FEF810F8431EE
:101AF00008F092C0812F0E94A501E12FF0E0EA5486
:101B0000FC4F808187FF05C010925A02812F0E94EE
:101B10003A03BAD8E5D886E36DD8F70160818AE048
:101B20007ED810915B0280915C02811729F0612FB1
:101B30008CE075D810935C0269E883E270D88AE380
:101B400059D881E18093DE03809151038093DF03B4
:101B5000809150038093E0030093E10380912C0374
:101B60008093E20381E08093E3031092E8031092F4
:101B7000E9031092EE031092EF0346ED52E0AEED52
:101B8000B3E090E080E01FE0FA0161917191AF0154
:101B9000169F9001179F300D112464E0369527950C
:101BA0006A95E1F7265F3A4F632F77276F707727A3
:101BB000F82FF170CF2FE0E0DE2FFE01EE0FFF1FB8
:101BC000EE0FFF1F01C0660FEA95EAF7843098F523
:101BD00016962C931697FC01F595E795E851FC4F66
:101BE0002081622B6083019611968830910561F601
:101BF0008091DE038F5F02D880915502909156024A
:101C0000019690935602809355028C3E934009F0C2
:101C1000F9CE8CE49DE159CF80915A028F5F8536D1
:101C200018F480935A0275CF10925A0210924D0305
:101C30001092BD036ECF18962C931897FC01349721
:101C4000F595E795E251FC4FCBCF8F929F92AF92E3
:101C5000BF92CF92DF92EF92FF920F931F93CF9399
:101C6000DF93C0915502D0915602CA3E23E0D207BD
:101C700009F4C7C108F08CC0C83E93E0D90709F445
:101C800079C1C93EE3E0DE0709F487C18FE215D8C8
:101C900027D88AE30E94FA0580915F02282F2270DC
:101CA00081FF60C180E28093DE0383E08093DF03E5
:101CB00081E08093E003809151038093E103809160
:101CC00050038093E203CE016AE070E00E94191F86
:101CD00035E0389FF001399FF00D1124E093E303C4
:101CE000EB57FC4F80818093E40381818093E5036F
:101CF00082818093E60383818093E70384818093CC
:101D0000E80382E08093E90380914D028093EA0327
:101D10001FE1211101C01CE1E12EF12CA7014D5062
:101D2000510970E060E08BEE93E00E94401F6DEF80
:101D3000610F81EE93E00E941203F701E252FC4F23
:101D400090831F5FE12FF0E0E252FC4F808386E337
:101D50000E94FA058091DE038F5F0E94FE0580914C
:101D6000020387FF01C188EE93E0909356028093AF
:101D7000550288E293E2DF91CF911F910F91FF907E
:101D8000EF90DF90CF90BF90AF909F908F9008958D
:101D9000CB3EF3E0DF0709F448C1CC3E23E0D20795
:101DA00009F074CF8BEF0E940906C82FCF77C0933C
:101DB00053028FEF8C0F813108F043C110925A0209
:101DC0008C2F0E94A5018C2F0E943A038091520211
:101DD00000914F02C0905F02811146C120915002D4
:101DE000309151022930344008F43EC101113CC108
:101DF0009091030390FF38C180E1809352021092CA
:101E00004E0280915002909151020196909351029E
:101E100080935002EC2DE2709E2E80E2C1FE8DE197
:101E20008093DE03809151038093DF038091500300
:101E30008093E00382E08093E1038091540290E07C
:101E4000AC0176E0440F551F7A95E1F720915D02D1
:101E5000242B2093E20395958795959587958093FC
:101E6000E30380914D028093E403809152028093BA
:101E7000E5031092E603B0904E02FEEDEF2EF3E084
:101E8000FF2EA8E08A2E800E102F8071D82EBFE082
:101E9000AB2EDD2009F407C18B2D8127877009F057
:101EA00002C18B2D0E94F002EC0121E0210FDD2008
:101EB00009F412C18B2D8227877009F00DC18B2D7B
:101EC0000E94F0021E5FF701C1872D2F2F70382F5F
:101ED0003295307F232B228724E0969587952A958B
:101EE000E1F7838783E0E80EF11C1811D2CFD0917F
:101EF000060380912903E0E18E9FC00111248D2B00
:101F00008093F303C0FE01C110924F021FE19110B4
:101F100001C01CE1E4EFF3E0C6E1119281E08C0F17
:101F20001813F8C06EEF6C0F81EE93E00E9412035D
:101F3000E12FF0E0E252FC4F9083CE5FEC2FF0E017
:101F4000E252FC4F8083D83021F0DF5FD370D09312
:101F5000060389EE93E0909356028093550284EF36
:101F600091E009CF8DE19FCE2196D0935602C09388
:101F70005502FFCE80E00E944A0610925D028091D9
:101F8000020380688093020389EE93E090935602E7
:101F90008093550281E090E0EECEC0915B0280918B
:101FA0005C028C1731F06C2F8CE00E940F06C093FE
:101FB0005C020E944406C0915D028C2F0E945D0667
:101FC0000E9470068AE30E94FA05809154028C0FE9
:101FD0009927991F6FE270E00E942D1F80935D0288
:101FE00086E30E94FA058091DE038F5F0E94FE0562
:101FF0008AEE93E0909356028093550280E594E137
:10200000BACE6FE282E00E940F066FE680E00E9487
:102010000F0686E30E94FA058BEE93E0909356023A
:102020008093550288EC90E0A6CE84E30E94FA05E6
:102030008CEE93E090935602809355028CE19CE0E5
:102040009ACE80915A028F5F80935A02853640F073
:1020500088E08093060310925A0281E080932A035D
:102060008AE30E94FA05B2CE84FFCBCE90914E0255
:10207000492F50E027E030E0C0FC02C02FE030E004
:10208000421753074CF48E5F8F7080618093520229
:102090009F5F90934E02B5CE109252021092510261
:1020A00010925002AECEE12FF0E0EE0FFF1FEA5289
:1020B000FD4F80819181A89EE001A99ED00D112441
:1020C00064E0D695C7956A95E1F7C05CDF4F18309C
:1020D00008F4EBCED860E9CEE22FF0E0EE0FFF1F60
:1020E000EA52FD4F40815181A49EC001A59E900DF2
:1020F000112444E0969587954A95E1F7805C9F4FBF
:10210000283008F4DFCE9860DDCE88E00827009301
:102110004F02FCCEC82F01CF80E30E94FA0561E098
:1021200070E080E090E0EFD86FE282E00E940F065E
:102130006FE280E00E940F068EE00E94090691E0A7
:10214000843C09F090E0892F0895E6DF60E080E0AC
:102150000FD961E070E080E090E0D5D863E38BE0D8
:1021600007D963E38CE004D980E1F0D880EAE9D8AC
:10217000459A8AE891E0FC013197F1F7459801977B
:10218000F1F761E08DE10E94F0058AE193E00197AB
:10219000F1F760EC8CE00E94F00564E08DE00E94B5
:1021A000F0058091DD03883221F064E28FE00E9427
:1021B000F00560E08EE00E94F005299880E10E9421
:1021C0005C010E945101299A0E949E0160E08CE10D
:1021D0000E94B30260E08DE10E94B3020E949E0162
:1021E00081EE0E94BE0182EE0E94BE018FEF0E942E
:1021F000BE01289887E00E945C010E945101289A44
:1022000068E080E00E94B3028AE891E00197F1F76C
:1022100064E670E080E090E076D88DEF8093030173
:1022200008958F929F92AF92BF92CF92DF92EF92DA
:10223000FF920F931F93CF93DF9300D000D01F9294
:10224000CDB7DEB720910103211122C08091C601D4
:102250008111E8C0109180010E94040980911E0242
:102260009091C00097FFC0C02091C60090917F015F
:102270009F5F90937F01123008F0AEC0111102C031
:1022800080937E0111E0203309F412E01093800165
:102290001091030315FF1EC00E94040980911E02C5
:1022A00090911F02A0912002B09121024091C201A1
:1022B0005091C3016091C4017091C501841B950BBD
:1022C000A60BB70B87349105A105B10518F01F7D4A
:1022D000109303030E9404098091BB019091BC01FB
:1022E000A091BD01B091BE0140911E0250911F020C
:1022F000609120027091210284179507A607B70705
:10230000C0F42091030325FDDDC1209101032111BB
:10231000E1C18C509E4FAF4FBF4F8093BB01909354
:10232000BC01A093BD01B093BE0185B190E28927A5
:1023300085B99091D5028091D402981708F0805AFF
:10234000891B803208F40AC20E940409C0901E0250
:10235000D0901F02E0902002F09021028091B30102
:102360009091B401A091B501B091B601A701960179
:10237000281B390B4A0B5B0BDA01C901853F9140E1
:10238000A105B10508F4B9C28DE4BCD885E0BAD87E
:102390009091030395FB882780F920910103211177
:1023A00001C082602091040330910503232B09F4BE
:1023B000BFC12091020397FFACC184619091DD03FE
:1023C0009F3041F008F0ABC1943009F490C29730CF
:1023D00009F0AEC18062ACC1123009F057CF203293
:1023E00009F053CF13E052CF112309F44FCF90914E
:1023F0007E01891B863008F449CF80917F018330AC
:1024000030F08FEF8093C60180E042D83FCF133089
:1024100029F4F894E0E0FFE3099538CF10927F01AA
:1024200010E034CF8091020380FF32CF90910303FC
:10243000392F326030930303382F3E7F30930203ED
:102440004091C80145FF58C0386030930203309175
:10245000C8018091020336FF53C08061809302035C
:102460003091C9018091020337FF4CC08B7F80936C
:1024700002038091DD03833009F046C03DEC3093C8
:102480005B023091C701E0E031FF09C03091C70124
:102490003D7F3093C701936090930303E1E0309157
:1024A000C7019091FA02391335C09091C80130915B
:1024B000FB0293279F7571F59091C9014091FC0231
:1024C00094279F7739F59091C80197FF02C037FF95
:1024D000E1C09091C80197FD4DC037FF4BC08330DC
:1024E00039F08F3029F0893119F08C3109F0D9C0D9
:1024F000809102038068D2C0867F80930203A7CFB9
:102500008F7EACCF8460B3CF8F3009F4B7CF3091DA
:10251000CA01B5CF80910203982F92609093020375
:10252000909103039F77909303039091C80197FDC7
:10253000AEC084FDACC08268809302038091C70165
:1025400090E0853509F090E28091C8018F71890F84
:102550008093DD038091C90190E0F4E09595879523
:10256000FA95E1F7877080935F028091C9018F70BF
:1025700080934D028091C7018093FA028091C80137
:102580008093FB028091C9018093FC0250E040E0FF
:102590006AEC71E03DEF83E0830FDB01119635506B
:1025A000883010F4382FDB01BD016F5F7F4F11962B
:1025B0008D919D910D90BC91A02D032E04C0B695D8
:1025C000A795979587950A94D2F79770DA01EE232D
:1025D00009F475C0A35DBD4F8D939C934E5F5F4F13
:1025E00040325105C1F6809103038D7F8093030330
:1025F0008091C1008F778093C1008091030382FF97
:1026000011C09AE1E1EEF1E0A7ECB1E001900D928A
:102610009A95E1F7909102039160909302038B7F6A
:10262000809303038091C10080688093C100EEED28
:10263000F2E090E080E041E050E06191719161351D
:10264000744038F0BA01082E01C0660F0A94EAF708
:10265000262B01968830910581F720935E028091A8
:1026600003038062809303030E94040980911E0289
:1026700090911F02A0912002B09121028093C2018B
:102680009093C301A093C401B093C50101CE8F778D
:10269000826052CF809102038F7782608093020321
:1026A00069CF8091600290916102039708F462CF34
:1026B00082E090E090936102809360025BCFAA5227
:1026C000BD4F8ACF4091040350910503452B59F427
:1026D0002D9B05C088519C4FAF4FBF4F1ECEC29659
:1026E000A11DB11D1ACE27FF07C02D9BF3CF8C591A
:1026F0009F4FAF4FBF4F11CE8091020387FD2D98A2
:102700008091BB019091BC01A091BD01B091BE012F
:10271000EECF27FF02C0846051CE8C604FCE9C313B
:1027200009F458CE9E3109F455CE953109F452CEB4
:102730000E94820A81E00E94820A82E00E94820A4C
:1027400081E00E94820A8DE40E94820AC092B30155
:10275000D092B401E092B501F092B60180910203EB
:1027600084FF19C09091030396FD15C02091F402D7
:102770003091F5022139354070F02091DA02309124
:10278000DB022E3F310538F48F778260809302039D
:102790009064909303038091020384FF1CC0909186
:1027A000030396FF18C02091F4023091F502203106
:1027B000334088F49F7B909303039091DD03933023
:1027C00039F09F3029F0993119F09C3109F098C205
:1027D0008068809302038091020381FF11C780917A
:1027E000030387FD5EC0109205031092040310924C
:1027F000C1011092C0012D98A8DC0E94AC0A109271
:10280000BF0110924D0381E080932A031092D402FD
:102810001092D50210910303177E20914D02609112
:10282000FD027091FE028091FF0290910003620F01
:10283000711D811D911D0E94350AEDE2F2E080E0DC
:1028400094E08193919322E0ED34F207D1F78CEC80
:1028500090E0909332028093310211601093030351
:102860000E94040980911E0290911F02A0912002F3
:10287000B09121028093BB019093BC01A093BD0154
:10288000B093BE01419A42989091DD039F3009F4C4
:1028900042C408F043C2913009F4ABC2933009F44A
:1028A00009C4909102038091030394FF6AC686FDD8
:1028B00068C62091FB0227FD64C620910103211107
:1028C00060C680688093030381E00F900F900F90A3
:1028D0000F900F90DF91CF911F910F91FF90EF908C
:1028E000DF90CF90BF90AF909F908F900895909180
:1028F0005F02913009F01CCF6DCD8091DD038F30E8
:1029000009F0BAC0309128038091AD019091BF01C8
:102910001091A201A0E2B8E03B9FA0011124FA01AE
:10292000E85FFC4F2081222309F457C0B18170E099
:1029300060E06B1708F04AC0FA01E60FF71FE85F86
:10294000FC4F2281913031F100F1923081F18830D9
:10295000C8F01430B0F4912F990F990F990FE3EA52
:10296000EE2EE1E0FE2E28E0290FF70101917F0114
:10297000E92FF0E0EE57FE4F00839F5F9213F5CFF3
:102980001F5F90E06F5F7F4FD4CF2E3701F7892F05
:1029900091E0F8CF2E37C1F02D37A1F08A30C8F67C
:1029A000E82FF0E0ED55FE4F20838F5FD0CF8A30C7
:1029B00038F4E82FF0E0ED55FE4F2A2720838F5F93
:1029C00091E0C5CF92E0C3CF80E0DCCF485F5C4FA1
:1029D000FA0110823F5F33709ECF9093BF018093C6
:1029E000AD011093A2013093280380914D038823F9
:1029F00049F08091310387FF71C08F778093B801D0
:102A000010924D030E940409C090AE01D090AF0116
:102A1000E090B001F090B1016C197D098E099F0919
:102A2000613E7E428105910538F18091810190E0FF
:102A3000019664E270E00E942D1F282F809381018F
:102A400090912A03992309F44EC08EE70E94820ACE
:102A50008091AE019091AF01A091B001B091B10110
:102A60008052914DAF4FBF4F8093AE019093AF0115
:102A7000A093B001B093B10190914D0390FFF5C0C8
:102A80008091DD038F3009F4F0C02EEF20936202B5
:102A9000833009F0CBC08091300380936302809132
:102AA00031038093640280913203809365029E7F9C
:102AB000926090934D0380914C03809366028091C5
:102AC000B7018093670280914B0380936802109254
:102AD0006A02109269020E94900A40CE880F8F5FAE
:102AE0008093B2018DCF263008F07CC038E9309356
:102AF000620230E130936302109267021092680222
:102B000010926902223009F44CC0243009F460C0EC
:102B1000211168C085E08093640281EF8093650293
:102B200082E08093660283E2809367028FE0809365
:102B300068028EE70E94820A809162020E94820AE5
:102B400002E612E0D12CC12CFF24F39470E2E72EB0
:102B5000D80111968C9193E8980F923030F48DE75C
:102B60000E94820AF80181818E250E94820AD80182
:102B700011968C918C0D9D2D911D292F3327820F3D
:102B8000931F6C01DD24F394B9E0FB1609F460CFC8
:102B9000F8E0FF1203C0809580936A020F5F1F4F19
:102BA000D7CF81E08093640281EF809365028091AA
:102BB000B8018093660280914C03809367028091F4
:102BC000B7018093680280914B0380936902B1CF73
:102BD0008093640281EF809365028091B2018093BB
:102BE0006602A7CF112309F430CF42E851E022E674
:102BF00032E0DA018D91F90181939F01F1E0AA3869
:102C0000BF07C1F711501093A201112309F491CF0E
:102C1000110F110F110F191709F48BCFDA01189644
:102C20008C91FA018193AF019F5FF5CF982F9F7D23
:102C3000923061F08C3151F08E3041F08C3231F0B5
:102C4000873221F08952823008F035CF8091BA0165
:102C5000809363028091B901809364028091B801EE
:102C60008093650210924D0326CF91FF77CD80911E
:102C7000DD03833009F072CD809133038823E9F1BD
:102C80002DEF20936202873098F126E020936302B3
:102C9000865080933303926090934D038091340368
:102CA000809364028091350380936502809136039E
:102CB0008093660280913703809367028091380386
:102CC00080936802809139038093690280913A036E
:102CD00080936A0280914D0381FFFDCEE5E3F3E02E
:102CE0008BE393E0268121938E179F07D9F7F3CECC
:102CF0008093630210924D03D1CF10924D032ECDDD
:102D00008091600290916102039708F464CD82E0A3
:102D100090E090936102809360025DCD8091020308
:102D2000923109F473C2943209F0BBCD8F7780934E
:102D3000020388EE93E09093610280936002809199
:102D4000520310915F02113009F4E1C308F4B3C3D8
:102D50001430C8F48370F8E08F9FC0011124875F9E
:102D60009E4FAEE4B3E025E833E042E553E0FC01DA
:102D700064916D9334966491F90161939F0101967A
:102D80004A175B07A1F789E08093DC0310920301E7
:102D900081E0809302010E94CB02113009F0B4C39C
:102DA00081E791E00E94B20A81EE0E94BE0182EEAC
:102DB0000E94BE0160E787E00E94B30260E081E00C
:102DC0000E94B30261E082E00E94B30260E084E00E
:102DD0000E94B3020E94BD020E94D602113009F483
:102DE000CDC308F4BCC3143008F0BFC38CE19CE031
:102DF000B8C341985A9886E00E945C0184E50E941D
:102E00005C0185E70E945C0185EC0E945C018AE21E
:102E10000E945C015A9A0091DD03D12CC12C013033
:102E200021F458E6C52E50E0D52EF12CE12C8E2D44
:102E3000F601EE0DFF1D649110915F02013059F40F
:102E4000143049F48E3009F471C08F3109F472C026
:102E5000803209F471C06F3F09F069C03FEFE31A97
:102E6000F30A42E3E416F10411F780EA0E94A10993
:102E700061E082E00E94B80982E00E94A609811107
:102E8000FBCF023041F063E184E20E94B8096BE3BA
:102E900086E20E94B80960E08FE00E94B80962E013
:102EA00082E00E94B80982E00E94A6098111FBCF4E
:102EB00085E20E94A609F82E60EA8FE00E94B80918
:102EC00062E082E00E94B80982E00E94A6098111B6
:102ED000FBCF85E20E94A609093291F587706F2D1C
:102EE00067702CEF260F643010F424E0261B9CEF53
:102EF000980F843010F494E0981B2917F8F068605C
:102F000085E20E94B8090E94C4090E94EE0980E08F
:102F100098E090930101809300010C3121F0D0F4EE
:102F200001500230D8F430E020E032C061E00E946D
:102F3000B80994CF6FE1FBCF6EE1F9CF682FDFCFF7
:102F4000023009F368E00130D9F262E00533C1F2E2
:102F50006AE0D6CF093239F3053329F32091F20222
:102F60003091F30250E040E02C5C310941095109F5
:102F7000A8E5B2E011D728E636E040E050E0F0D610
:102F80002C52314041095109211558E03507D9F03B
:102F900030930101209300012F5F3F4F7901EE0C28
:102FA000FF1C6BE436FF04C081E0E81AF1086AE414
:102FB00081E10E94B8096F2D82E10E94B8096E2D4F
:102FC00083E10E94B80980EA0E94A109809151031F
:102FD000982F907F913918F0805780935103A091DA
:102FE0005103BA2FB295BF702A2F2F7030E035955C
:102FF0002795220F331F220F331F90E080E00AE055
:10300000A1706FE070E0F82EAC01FC01F595E7953A
:10301000F595E795E20FF31FE656FF4FE49181FF28
:1030200013C0EF70E09FE02D1124F0FE0FC0E05BB5
:10303000143089F4E03A79F4E7E3B43060F0EDE27B
:10304000B93048F0E9E207C0E295EBCF143019F44B
:10305000EA3081F7E1E4AA2319F0AB01481B590BD0
:103060004B575C4FFE2EFB1AFA01F082019680311D
:10307000910549F610925D0210925A028091020366
:1030800087FD13C084EC99E0909361028093600205
:1030900080E699E09093C1018093C00181E09AE0BD
:1030A0009093050380930403FCCB1092610210926D
:1030B0006002EECF4198429A0E94640510925A0233
:1030C00010924D0310922C031092BA011092B90184
:1030D0001092B80110924C031092B70110924B035A
:1030E0008091020387FD10C081E00E94EB081092DE
:1030F00056021092550280E197E29093C1018093AD
:10310000C0018EE99CE0CCCF88EE93E0909356020C
:1031100080935502F0CF4198429A6091FD027091E0
:10312000FE028091FF02909100030E94350A0E94E6
:10313000640510925A0232E0832E99249394A92CAC
:10314000B92C4FE2C42ED12CE12CF12C80915402E9
:1031500081110AC0B0D5A501940102D6A70196013C
:10316000FFD560935402F2CF80915F0281FF43C08C
:103170008DEC90E00E94B70805E813E083E5E82EA7
:1031800083E0F82E95EBC92E93E0D92E2AE0A22EEB
:103190002EE0B22E86E30E94FA05D8016D918D01D2
:1031A0008AE00E940F0683E30E94FA05C501019799
:1031B000F1F785E20E940906F70181937F01C016AD
:1031C000D10641F78091020387FD18C01092560284
:1031D0001092550281E00E944A0688E0809306031F
:1031E0001092290380E197E29093C1018093C0017E
:1031F00085E29EE055CF8AEB90E0BCCF89EE93E06C
:10320000909356028093550280E0E5CF8F778093AC
:10321000020386E990E0909361028093600210912E
:103220005F02143001F1D8F4112309F48FC0AEE429
:10323000B3E030E020E043E080915103642FEDD50E
:10324000F901949FE00DF11D1124E052FF4FE4912C
:10325000ED932F5F3F4F2330310571F72AC01530B2
:10326000F9F0163021F720915103822F8F7090E0F2
:10327000880F991FFC01E751FF4FE491E0934E0343
:10328000FC01E651FF4FE491E0934F03822F8E70D3
:103290008E3009F058C021702F5F2093500309C071
:1032A00083E0EDE0F1E0AEE4B3E001900D928A95A9
:1032B000E1F785E0E6E5F1E0DE01119601900D927F
:1032C0008A95E1F711114CC084E0ECE5F1E0A5E846
:1032D000B3E001900D928A95E1F789E08093DC03D9
:1032E0001092030181E0809302010E94CB0213300F
:1032F00019F0153009F0DAC063E083E00E94B302F0
:10330000CE0101960E94880181EE0E94BE0182EEEC
:103310000E94BE0160E787E00E94B30260E081E0A6
:103320000E94B30261E082E00E94B30260E084E0A8
:103330000E94B30260E181E10E94B3020E94BD02DB
:103340000E94D60292C010925003B3CF80914E03D8
:10335000887F80934E038091510380935003A9CFBF
:103360008DEF810F843008F08BC084E0E1E6F1E05E
:10337000A5E8B3E001900D928A95E1F7143009F0C9
:1033800091C04198429A0E948C1086E30E94FA05EF
:1033900061E088E00E940F066AE08BE00E940F0661
:1033A00060915B028CE00E940F066CE58DE00E944C
:1033B0000F066EE48EE00E940F0663EC8FE00E9421
:1033C0000F066DE880E10E940F066BE381E10E9429
:1033D0000F0660E182E10E940F0663E283E10E9432
:1033E0000F0664EA84E10E940F0662E685E10E940E
:1033F0000F0668E088E10E940F066DE189E10E94F6
:103400000F066CE18AE10E940F0667EC8BE10E94D7
:103410000F0660E08CE10E940F0660EB8DE10E94D8
:103420000F0666EB81E20E940F066AEE83E20E94BD
:103430000F0660E085E20E940F0661E186E20E94CD
:103440000F060E9444060E94700681E080930201EC
:1034500085E08093DB03FE013196A6EDB3E0019099
:103460000D928A95E1F70E94190610925A0284E99A
:1034700091E19093C1018093C00182EE9AE010CE59
:1034800084E0E6E6F1E0A5E8B3E001900D928A95CC
:10349000E1F785E0EBE6F1E0DE01119601900D9297
:1034A0008A95E1F7163009F46CCF17CFCE0101965B
:1034B0000E94B20A29CFEEE4EE2EE3E0FE2EE5E80C
:1034C000F3E026E0AFE0CA2ED12CD7018D917D012B
:1034D000482F50E074E0559547957A95E1F78F7045
:1034E000840F952F911DB601B8D4820F8193215F6F
:1034F000223459F789E08093DC031092030181E0C4
:10350000809302010E94CB0287E791E04BCC63E0FD
:1035100084D4B6E09B9FC0011124875D9E4F4EE48A
:1035200053E0A5E8B3E020E0FC013491FA013193C7
:10353000AF01223020F4FC013496E491EC932F5F2C
:1035400001961196243081F789E08093DC03109274
:10355000030181E0809302010E94CB0221CC88E02C
:1035600097E0909359028093580284EF91E09093F2
:10357000C1018093C0018BE79CE092CD8CE794E27F
:10358000F0CF8F77809303039D7F90930203E090A9
:10359000C001F090C101F1E0EF16FDE7FF06B0F0C9
:1035A0008701012F11270695069502501109B801D0
:1035B00090E080E00E948309102F0027110F110F67
:1035C000E01AF10AF092C101E092C001F894209152
:1035D0008400309185008091C0019091C101880FD5
:1035E000991F820F931F909389008093880082E037
:1035F00086BB7894809102038F7D8093020364C917
:1036000080E063C91F920F920FB60F9211242F937F
:103610003F934F935F936F937F938F939F93AF935A
:10362000BF93EF93FF939091D5028091D4029817A6
:1036300089F08091D4028F5F8093D402803610F09D
:103640001092D402E091D402F0E0EC58FD4F80815A
:103650008093C6009091D4028091D502981302C045
:103660000E94AC0AFF91EF91BF91AF919F918F9112
:103670007F916F915F914F913F912F910F900FBE6E
:103680000F901F9018951F920F920FB60F92112452
:103690002F934F935F936F937F938F939F93AF93EA
:1036A000BF93EF93FF9380911D0290918400E82FC8
:1036B000F0E0E350FE4F90838F5F80931D028032D5
:1036C00008F4CDC0EDEFF1E021918091F6029091E8
:1036D000F702A091F802B091F902820F911DA11D8D
:1036E000B11D8093F6029093F702A093F802B09375
:1036F000F9028091F6029091F702A091F802B09140
:10370000F9024091F6025091F7026091F80270912F
:10371000F9022AE0880F991FAA1FBB1F2A95D1F72B
:10372000840F951FA61FB71F8093F6029093F70290
:10373000A093F802B093F9028091F6029091F702FB
:10374000A091F802B091F9024091F6025091F7026F
:103750006091F8027091F90226E0B695A7959795C9
:1037600087952A95D1F784279527A627B727809391
:10377000F6029093F702A093F802B093F90282E068
:10378000ED31F80709F0A0CF8091F6029091F70291
:10379000A091F802B091F9024091F6025091F7021F
:1037A0006091F8027091F90223E0880F991FAA1F17
:1037B000BB1F2A95D1F7840F951FA61FB71F8093B3
:1037C000F6029093F702A093F802B093F902809169
:1037D000F6029091F702A091F802B091F90240919F
:1037E000F6025091F7026091F8027091F902EBE055
:1037F000B695A79597958795EA95D1F7842795274C
:10380000A627B7278093F6029093F702A093F802B9
:10381000B093F9028091F6029091F702A091F8021C
:10382000B091F9024091F6025091F7026091F802CE
:103830007091F902FFE0880F991FAA1FBB1FFA952C
:10384000D1F7840F951FA61FB71F8093F6029093A0
:10385000F702A093F802B093F90210926000FF9172
:10386000EF91BF91AF919F918F917F916F915F91F8
:103870004F912F910F900FBE0F901F901895789435
:103880001F920F920FB60F9211242F933F934F93D5
:103890005F936F937F938F939F93AF93BF93EF93B8
:1038A000FF9381E08093FC01EFE6F0E080818B7F65
:1038B00080830E94780AFF91EF91BF91AF919F9111
:1038C0008F917F916F915F914F913F912F910F90C9
:1038D0000FBE0F901F9018951F920F920FB60F9268
:1038E00011242F933F934F935F936F937F938F9305
:1038F0009F93AF93BF93EF93FF938091C1008F7716
:103900008093C10078948091C0008C7109F084C0CC
:10391000E091FB01EE23C1F18091FC018130A1F126
:1039200081E08E0F8093FB01F0E09091C600EF5193
:10393000FE4F90838A3108F055C08091FC018130A0
:1039400061F480916F008B7F80936F0080910303FF
:103950008F7E809303030E94780AF8948091C100BF
:1039600080688093C100FF91EF91BF91AF919F91CB
:103970008F917F916F915F914F913F912F910F9018
:103980000FBE0F901F9018951092FB011092FC0132
:10399000809103038B7F809303039091C6009093E3
:1039A000E1019091E1019C7F943539F6806180932B
:1039B00003030E94AC0A80918400909185008C5989
:1039C000964E90938B0080938A0084E086BB809112
:1039D0006F00846080936F008091FB018F5F809304
:1039E000FB01ABCF8091030381FD12C08AE1E1EEC0
:1039F000F1E0A7ECB1E001900D928A95E1F780919A
:103A0000020381608093020381E08093FC0195CFE3
:103A1000846080930303F8CF8091C6008093FB01FC
:103A2000F3CF789414B817B81AB8559A549A529A92
:103A3000579A3D9A219A209A399A3A9A519A2A9AF3
:103A40002B9A2C9A409A2D9A1092800082E08093B3
:103A50008100F89414BE80916000806180936000C2
:103A600080E48093600078945A9A5F9A299A289A01
:103A70005D9A5C9864E670E080E090E00E948309C3
:103A8000809102031D9961C08F7780628093020349
:103A900010920103E6EDF2E086EF92E020E034E0E0
:103AA000219331938E179F07D9F78CEC90E0909378
:103AB000DB028093DA022D98259A0E94A51080914E
:103AC000F6029091F702A091F802B091F902892BC9
:103AD0008A2B8B2BA1F36091F6027091F7028091F3
:103AE000F8029091F902611571058105910509F0BF
:103AF0002ED189E396E8A2E4B5E68093FD02909387
:103B0000FE02A093FF02B09300031092FA021092FB
:103B1000FB021092FC021092DD0381E00E94480A31
:103B20008FEF9FEF12E02091040330910503232BC8
:103B300071F02091030327FD0AC08139914038F4C8
:103B4000B19912C0B19BFECF19C080689FCF0E946F
:103B500011118091040390910503892BC1F3809189
:103B6000030387FDF4CFECCFF8948091840090910B
:103B7000850090938900809388007894C091030316
:103B80008C2F8860809303030E94AC0AC5FF29C074
:103B9000E0910403F0910503309719F10995EC01C8
:103BA00080910303877F809303030E94780AC13AC0
:103BB0008FE0D807D8F0C05DD740F8948091880096
:103BC000909189008056904F90938900809388004F
:103BD00016BB78940E941111811106C0B19BFECFD3
:103BE000E6CFC0EDD7E0DCCFD0E0C0E0F894809124
:103BF000880090918900CC0FDD1FC80FD91FD0938A
:103C00008900C093880016BB80918800909189003C
:103C10002091840030918500821B930B789497FD4E
:103C2000ADCF81CF8F929F92AF92BF92CF92DF9212
:103C3000EF92FF92CF93DF93EC01688179818A81C3
:103C40009B81611571058105910521F464E279ED8F
:103C50008BE597E02DE133EF41E050E081D0490161
:103C60005A019B01AC01A7EAB1E496D06B017C013B
:103C7000ACEEB4EFA50194019BD0C60ED71EE81E92
:103C8000F91EF7FE06C081E0C81AD108E10880E8F5
:103C9000F80AC882D982EA82FB82C701B6019F77FF
:103CA000DF91CF91FF90EF90DF90CF90BF90AF90DA
:103CB0009F908F9008958F929F92AF92BF92CF92D4
:103CC000DF92EF92FF926091040170910501809163
:103CD000060190910701611571058105910521F497
:103CE00064E279ED8BE597E02DE133EF41E050E0C0
:103CF00037D049015A019B01AC01A7EAB1E44CD08D
:103D00006B017C01ACEEB4EFA501940151D0C60E5D
:103D1000D71EE81EF91EF7FE06C081E0C81AD108BA
:103D2000E10880E8F80AC0920401D0920501E0920F
:103D30000601F0920701C701B6019F77FF90EF904F
:103D4000DF90CF90BF90AF909F908F900895609339
:103D50000401709305018093060190930701089573
:103D6000052E97FB16F400940FD057FD05D024D0F4
:103D700007FC02D046F408C0509540953095219537
:103D80003F4F4F4F5F4F0895909580957095619587
:103D90007F4F8F4F9F4F089531D0A59F900DB49FB7
:103DA000900DA49F800D911D11240895B7FFF4CFAD
:103DB000F3DF821B930B0895A1E21A2EAA1BBB1BF3
:103DC000FD010DC0AA1FBB1FEE1FFF1FA217B307E7
:103DD000E407F50720F0A21BB30BE40BF50B661FFD
:103DE000771F881F991F1A9469F7609570958095C1
:103DF00090959B01AC01BD01CF010895A29FB00138
:103E0000B39FC001A39F700D811D1124911DB29F0E
:103E1000700D811D1124911D0895991B79E004C036
:103E2000991F961708F0961B881F7A95C9F78095F9
:103E30000895AA1BBB1B51E107C0AA1FBB1FA617F1
:103E4000B70710F0A61BB70B881F991F5A95A9F743
:103E500080959095BC01CD01089597FB072E16F42F
:103E6000009406D077FD08D0E4DF07FC05D03EF4CF
:103E7000909581959F4F0895709561957F4F089516
:103E8000DC0101C06D9341505040E0F70895F89473
:023E9000FFCF62
:103E9200000801FD01000000550F710C00A4030091
:103EA20000000102030405060708090A0B0C0D0EA7
:103EB2000FE3B14BEA85BCE5660DAE8C881269EE64
:103EC2001FC76297D50B79CACC1B5D191024D3DCAE
:103ED2003F8EC52FAA16F395710F5500323E424E02
:103EE2000037324742006D6A7777770012223242FA
:103EF200002E363E46000A35423D006D6A737373EA
:0E3F020000EEDDCCBB1100C4570965210000A4
:00000001FF
